{
  "transactions": [
    {
      "hash": "0x5ef2f0d3766b501183137805c352756dda75eb6720008d0ff3fc363108060db5",
      "transactionType": "CALL",
      "contractName": null,
      "contractAddress": "0xcf841f89753158557091e0c28781f09e27aa3b55",
      "function": "mint(address,uint256)",
      "arguments": [
        "0xe752c55ACAbC5F745AB36a0993bf35c6555B60e4",
        "10000000000000000000"
      ],
      "transaction": {
        "from": "0xe752c55acabc5f745ab36a0993bf35c6555b60e4",
        "to": "0xcf841f89753158557091e0c28781f09e27aa3b55",
        "gas": "0xc1a6",
        "value": "0x0",
        "input": "0x40c10f19000000000000000000000000e752c55acabc5f745ab36a0993bf35c6555b60e40000000000000000000000000000000000000000000000008ac7230489e80000",
        "nonce": "0x8f",
        "chainId": "0x515"
      },
      "additionalContracts": [],
      "isFixedGasLimit": false
    },
    {
      "hash": "0x17bcf55a80f429fcb48fb45e4151da31586976e345c0b7e203e46b46d6c4912a",
      "transactionType": "CALL",
      "contractName": null,
      "contractAddress": "0xec8856122e88c4e10b2ba448e63933d5a41028cc",
      "function": "mint(address,uint256)",
      "arguments": [
        "0xe752c55ACAbC5F745AB36a0993bf35c6555B60e4",
        "25000000000"
      ],
      "transaction": {
        "from": "0xe752c55acabc5f745ab36a0993bf35c6555b60e4",
        "to": "0xec8856122e88c4e10b2ba448e63933d5a41028cc",
        "gas": "0xc183",
        "value": "0x0",
        "input": "0x40c10f19000000000000000000000000e752c55acabc5f745ab36a0993bf35c6555b60e400000000000000000000000000000000000000000000000000000005d21dba00",
        "nonce": "0x90",
        "chainId": "0x515"
      },
      "additionalContracts": [],
      "isFixedGasLimit": false
    },
    {
      "hash": "0xb398316ac6c277bbdf6c717ab8d30805f9fa82141a0791e1bfb4ea67e2db588a",
      "transactionType": "CALL",
      "contractName": null,
      "contractAddress": "0xcf841f89753158557091e0c28781f09e27aa3b55",
      "function": "approve(address,uint256)",
      "arguments": [
        "0x000000000022D473030F116dDEE9F6B43aC78BA3",
        "115792089237316195423570985008687907853269984665640564039457584007913129639935"
      ],
      "transaction": {
        "from": "0xe752c55acabc5f745ab36a0993bf35c6555b60e4",
        "to": "0xcf841f89753158557091e0c28781f09e27aa3b55",
        "gas": "0x107fc",
        "value": "0x0",
        "input": "0x095ea7b3000000000000000000000000000000000022d473030f116ddee9f6b43ac78ba3ffffffffffffffffffffffffffffffffffffffffffffffffffffffffffffffff",
        "nonce": "0x91",
        "chainId": "0x515"
      },
      "additionalContracts": [],
      "isFixedGasLimit": false
    },
    {
      "hash": "0xabdc931041aad231f14ebb83020a0643d25b746b22a4da5ff6015bf6f31f88b6",
      "transactionType": "CALL",
      "contractName": null,
      "contractAddress": "0xec8856122e88c4e10b2ba448e63933d5a41028cc",
      "function": "approve(address,uint256)",
      "arguments": [
        "0x000000000022D473030F116dDEE9F6B43aC78BA3",
        "115792089237316195423570985008687907853269984665640564039457584007913129639935"
      ],
      "transaction": {
        "from": "0xe752c55acabc5f745ab36a0993bf35c6555b60e4",
        "to": "0xec8856122e88c4e10b2ba448e63933d5a41028cc",
        "gas": "0x107fc",
        "value": "0x0",
        "input": "0x095ea7b3000000000000000000000000000000000022d473030f116ddee9f6b43ac78ba3ffffffffffffffffffffffffffffffffffffffffffffffffffffffffffffffff",
        "nonce": "0x92",
        "chainId": "0x515"
      },
      "additionalContracts": [],
      "isFixedGasLimit": false
    },
    {
      "hash": "0xa8acee1a6216d0a72763e74c5acc4d79edfc79755bbd241b64556aad54aae913",
      "transactionType": "CALL",
      "contractName": null,
      "contractAddress": "0x000000000022d473030f116ddee9f6b43ac78ba3",
      "function": "approve(address,address,uint160,uint48)",
      "arguments": [
        "0xcf841F89753158557091E0C28781f09E27Aa3B55",
        "0xf969Aee60879C54bAAed9F3eD26147Db216Fd664",
        "1461501637330902918203684832716283019655932542975",
        "281474976710655"
      ],
      "transaction": {
        "from": "0xe752c55acabc5f745ab36a0993bf35c6555b60e4",
        "to": "0x000000000022d473030f116ddee9f6b43ac78ba3",
        "gas": "0x1112d",
        "value": "0x0",
        "input": "0x87517c45000000000000000000000000cf841f89753158557091e0c28781f09e27aa3b55000000000000000000000000f969aee60879c54baaed9f3ed26147db216fd664000000000000000000000000ffffffffffffffffffffffffffffffffffffffff0000000000000000000000000000000000000000000000000000ffffffffffff",
        "nonce": "0x93",
        "chainId": "0x515"
      },
      "additionalContracts": [],
      "isFixedGasLimit": false
    },
    {
      "hash": "0x2a156570b908f1eae3762522db7994dbf1b6acfaaf21ddea3c39be084227d4dd",
      "transactionType": "CALL",
      "contractName": null,
      "contractAddress": "0x000000000022d473030f116ddee9f6b43ac78ba3",
      "function": "approve(address,address,uint160,uint48)",
      "arguments": [
        "0xEc8856122E88C4E10b2Ba448e63933D5A41028CC",
        "0xf969Aee60879C54bAAed9F3eD26147Db216Fd664",
        "1461501637330902918203684832716283019655932542975",
        "281474976710655"
      ],
      "transaction": {
        "from": "0xe752c55acabc5f745ab36a0993bf35c6555b60e4",
        "to": "0x000000000022d473030f116ddee9f6b43ac78ba3",
        "gas": "0x1112d",
        "value": "0x0",
        "input": "0x87517c45000000000000000000000000ec8856122e88c4e10b2ba448e63933d5a41028cc000000000000000000000000f969aee60879c54baaed9f3ed26147db216fd664000000000000000000000000ffffffffffffffffffffffffffffffffffffffff0000000000000000000000000000000000000000000000000000ffffffffffff",
        "nonce": "0x94",
        "chainId": "0x515"
      },
      "additionalContracts": [],
      "isFixedGasLimit": false
    },
    {
      "hash": "0x9cd08733a890cc76c7eb91c1ea3b0a5ba4818666f4e4a4f2d7f461b42c840228",
      "transactionType": "CALL",
      "contractName": null,
      "contractAddress": "0xf969aee60879c54baaed9f3ed26147db216fd664",
      "function": "modifyLiquidities(bytes,uint256)",
      "arguments": [
        "0x000000000000000000000000000000000000000000000000000000000000004000000000000000000000000000000000000000000000000000000000000000800000000000000000000000000000000000000000000000000000000000000002020d00000000000000000000000000000000000000000000000000000000000000000000000000000000000000000000000000000000000000000000000000020000000000000000000000000000000000000000000000000000000000000040000000000000000000000000000000000000000000000000000000000000020000000000000000000000000000000000000000000000000000000000000001a0000000000000000000000000cf841f89753158557091e0c28781f09e27aa3b55000000000000000000000000ec8856122e88c4e10b2ba448e63933d5a41028cc0000000000000000000000000000000000000000000000000000000000800000000000000000000000000000000000000000000000000000000000000000003c00000000000000000000000017aca8a97eaf284762ee139f743e565cdf4ce0c8fffffffffffffffffffffffffffffffffffffffffffffffffffffffffffcd9fcfffffffffffffffffffffffffffffffffffffffffffffffffffffffffffd08dc00000000000000000000000000000000000000000000000000009d96664aeb000000000000000000000000000000000000000000000000000f43fc2c04ee00000000000000000000000000000000000000000000000000000000000135f1b400000000000000000000000000e752c55acabc5f745ab36a0993bf35c6555b60e4000000000000000000000000000000000000000000000000000000000000018000000000000000000000000000000000000000000000000000000000000000000000000000000000000000000000000000000000000000000000000000000040000000000000000000000000cf841f89753158557091e0c28781f09e27aa3b55000000000000000000000000ec8856122e88c4e10b2ba448e63933d5a41028cc",
        "1773923606"
      ],
      "transaction": {
        "from": "0xe752c55acabc5f745ab36a0993bf35c6555b60e4",
        "to": "0xf969aee60879c54baaed9f3ed26147db216fd664",
        "gas": "0x7822e",
        "value": "0x0",
        "input": "0xdd46508f00000000000000000000000000000000000000000000000000000000000000400000000000000000000000000000000000000000000000000000000069bbed160000000000000000000000000000000000000000000000000000000000000300000000000000000000000000000000000000000000000000000000000000004000000000000000000000000000000000000000000000000000000000000000800000000000000000000000000000000000000000000000000000000000000002020d00000000000000000000000000000000000000000000000000000000000000000000000000000000000000000000000000000000000000000000000000020000000000000000000000000000000000000000000000000000000000000040000000000000000000000000000000000000000000000000000000000000020000000000000000000000000000000000000000000000000000000000000001a0000000000000000000000000cf841f89753158557091e0c28781f09e27aa3b55000000000000000000000000ec8856122e88c4e10b2ba448e63933d5a41028cc0000000000000000000000000000000000000000000000000000000000800000000000000000000000000000000000000000000000000000000000000000003c00000000000000000000000017aca8a97eaf284762ee139f743e565cdf4ce0c8fffffffffffffffffffffffffffffffffffffffffffffffffffffffffffcd9fcfffffffffffffffffffffffffffffffffffffffffffffffffffffffffffd08dc00000000000000000000000000000000000000000000000000009d96664aeb000000000000000000000000000000000000000000000000000f43fc2c04ee00000000000000000000000000000000000000000000000000000000000135f1b400000000000000000000000000e752c55acabc5f745ab36a0993bf35c6555b60e4000000000000000000000000000000000000000000000000000000000000018000000000000000000000000000000000000000000000000000000000000000000000000000000000000000000000000000000000000000000000000000000040000000000000000000000000cf841f89753158557091e0c28781f09e27aa3b55000000000000000000000000ec8856122e88c4e10b2ba448e63933d5a41028cc",
        "nonce": "0x95",
        "chainId": "0x515"
      },
      "additionalContracts": [],
      "isFixedGasLimit": false
    }
  ],
  "receipts": [
    {
      "status": "0x1",
      "cumulativeGasUsed": "0x2fe61",
      "logs": [
        {
          "address": "0xcf841f89753158557091e0c28781f09e27aa3b55",
          "topics": [
            "0xddf252ad1be2c89b69c2b068fc378daa952ba7f163c4a11628f55a4df523b3ef",
            "0x0000000000000000000000000000000000000000000000000000000000000000",
            "0x000000000000000000000000e752c55acabc5f745ab36a0993bf35c6555b60e4"
          ],
          "data": "0x0000000000000000000000000000000000000000000000008ac7230489e80000",
          "blockHash": "0x0000000000000000000000000000000000000000000000000000000000000000",
          "blockNumber": "0x2ce3fa7",
          "blockTimestamp": "0x69bbecf3",
          "transactionHash": "0xabdc931041aad231f14ebb83020a0643d25b746b22a4da5ff6015bf6f31f88b6",
          "transactionIndex": "0x3",
          "logIndex": "0x1",
          "removed": false
        }
      ],
      "logsBloom": "0x00000000000000000000000000000000040000000000000000000000000000000000000000000000000000000000000000000000000000000000000000000000000000000000000002000008000000000000000000000000000000000000000000000000020000000000000000008800000000000000000000000010000000000000000000000000000000000000000000000000000000000000000000000000000000000000000000000000000000000000000000080000000000000000000000000002000000000000000000000000000000008000000000000000000020000000000080000000000000000000000000000000000000000000000000000000",
      "type": "0x2",
      "transactionHash": "0xabdc931041aad231f14ebb83020a0643d25b746b22a4da5ff6015bf6f31f88b6",
      "transactionIndex": "0x3",
      "blockHash": "0x0000000000000000000000000000000000000000000000000000000000000000",
      "blockNumber": "0x2ce3fa7",
      "gasUsed": "0x8469",
      "effectiveGasPrice": "0x7a121",
      "blobGasUsed": "0x9c40",
      "from": "0xe752c55acabc5f745ab36a0993bf35c6555b60e4",
      "to": "0xcf841f89753158557091e0c28781f09e27aa3b55",
      "contractAddress": null,
      "daFootprintGasScalar": "0x190",
      "l1BaseFeeScalar": "0x7d0",
      "l1BlobBaseFee": "0x1",
      "l1BlobBaseFeeScalar": "0xdbba0",
      "l1Fee": "0xad",
      "l1GasPrice": "0xb",
      "l1GasUsed": "0x640"
    },
    {
      "status": "0x1",
      "cumulativeGasUsed": "0x382b2",
      "logs": [
        {
          "address": "0xec8856122e88c4e10b2ba448e63933d5a41028cc",
          "topics": [
            "0xddf252ad1be2c89b69c2b068fc378daa952ba7f163c4a11628f55a4df523b3ef",
            "0x0000000000000000000000000000000000000000000000000000000000000000",
            "0x000000000000000000000000e752c55acabc5f745ab36a0993bf35c6555b60e4"
          ],
          "data": "0x00000000000000000000000000000000000000000000000000000005d21dba00",
          "blockHash": "0x0000000000000000000000000000000000000000000000000000000000000000",
          "blockNumber": "0x2ce3fa7",
          "blockTimestamp": "0x69bbecf3",
          "transactionHash": "0x5ef2f0d3766b501183137805c352756dda75eb6720008d0ff3fc363108060db5",
          "transactionIndex": "0x4",
          "logIndex": "0x2",
          "removed": false
        }
      ],
      "logsBloom": "0x00000000000000000000000000000000040000000000000000000000000000000000000000000000000000000000000000000000000000000000000000000000000000000000000000000008000000000000000000000000000000000000000000000000020000000000000000008800000000000000000000000010000000000000000000000000000000000000000000000000000000000000000000000000000000000000000000000000000000000000000000000000000000000000000000000002000000000000000000000000000000008000000000000000000024000000000000000000000000000004000000004000000000000000000000000000",
      "type": "0x2",
      "transactionHash": "0x5ef2f0d3766b501183137805c352756dda75eb6720008d0ff3fc363108060db5",
      "transactionIndex": "0x4",
      "blockHash": "0x0000000000000000000000000000000000000000000000000000000000000000",
      "blockNumber": "0x2ce3fa7",
      "gasUsed": "0x8451",
      "effectiveGasPrice": "0x7a121",
      "blobGasUsed": "0x9c40",
      "from": "0xe752c55acabc5f745ab36a0993bf35c6555b60e4",
      "to": "0xec8856122e88c4e10b2ba448e63933d5a41028cc",
      "contractAddress": null,
      "daFootprintGasScalar": "0x190",
      "l1BaseFeeScalar": "0x7d0",
      "l1BlobBaseFee": "0x1",
      "l1BlobBaseFeeScalar": "0xdbba0",
      "l1Fee": "0xad",
      "l1GasPrice": "0xb",
      "l1GasUsed": "0x640"
    },
    {
      "status": "0x1",
      "cumulativeGasUsed": "0x43733",
      "logs": [
        {
          "address": "0xcf841f89753158557091e0c28781f09e27aa3b55",
          "topics": [
            "0x8c5be1e5ebec7d5bd14f71427d1e84f3dd0314c0f7b2291e5b200ac8c7c3b925",
            "0x000000000000000000000000e752c55acabc5f745ab36a0993bf35c6555b60e4",
            "0x000000000000000000000000000000000022d473030f116ddee9f6b43ac78ba3"
          ],
          "data": "0xffffffffffffffffffffffffffffffffffffffffffffffffffffffffffffffff",
          "blockHash": "0x0000000000000000000000000000000000000000000000000000000000000000",
          "blockNumber": "0x2ce3fa7",
          "blockTimestamp": "0x69bbecf3",
          "transactionHash": "0x2a156570b908f1eae3762522db7994dbf1b6acfaaf21ddea3c39be084227d4dd",
          "transactionIndex": "0x5",
          "logIndex": "0x3",
          "removed": false
        }
      ],
      "logsBloom": "0x00000000000000000000000000000000040000000000000000000000000000000000000000000000000000000000000000000000800000000000000000200000000000000000000002004000000000000000000000000800000000000000000000000000000000000000000000008000000000000000000000000000000000000000000000000000000000000000000000000000000000000000000000000000020000000000000000000000000000000000000000080000000000000000000000000000000000000000000000000000000000008000000000000000000000000010000080000000000000000000000000000000000000000000000000000000",
      "type": "0x2",
      "transactionHash": "0x2a156570b908f1eae3762522db7994dbf1b6acfaaf21ddea3c39be084227d4dd",
      "transactionIndex": "0x5",
      "blockHash": "0x0000000000000000000000000000000000000000000000000000000000000000",
      "blockNumber": "0x2ce3fa7",
      "gasUsed": "0xb481",
      "effectiveGasPrice": "0x7a121",
      "blobGasUsed": "0x9c40",
      "from": "0xe752c55acabc5f745ab36a0993bf35c6555b60e4",
      "to": "0xcf841f89753158557091e0c28781f09e27aa3b55",
      "contractAddress": null,
      "daFootprintGasScalar": "0x190",
      "l1BaseFeeScalar": "0x7d0",
      "l1BlobBaseFee": "0x1",
      "l1BlobBaseFeeScalar": "0xdbba0",
      "l1Fee": "0xad",
      "l1GasPrice": "0xb",
      "l1GasUsed": "0x640"
    },
    {
      "status": "0x1",
      "cumulativeGasUsed": "0x4ebb4",
      "logs": [
        {
          "address": "0xec8856122e88c4e10b2ba448e63933d5a41028cc",
          "topics": [
            "0x8c5be1e5ebec7d5bd14f71427d1e84f3dd0314c0f7b2291e5b200ac8c7c3b925",
            "0x000000000000000000000000e752c55acabc5f745ab36a0993bf35c6555b60e4",
            "0x000000000000000000000000000000000022d473030f116ddee9f6b43ac78ba3"
          ],
          "data": "0xffffffffffffffffffffffffffffffffffffffffffffffffffffffffffffffff",
          "blockHash": "0x0000000000000000000000000000000000000000000000000000000000000000",
          "blockNumber": "0x2ce3fa7",
          "blockTimestamp": "0x69bbecf3",
          "transactionHash": "0xb398316ac6c277bbdf6c717ab8d30805f9fa82141a0791e1bfb4ea67e2db588a",
          "transactionIndex": "0x6",
          "logIndex": "0x4",
          "removed": false
        }
      ],
      "logsBloom": "0x00000000000000000000000000000000040000000000000000000000000000000000000000000000000000000000000000000000800000000000000000200000000000000000000000004000000000000000000000000800000000000000000000000000000000000000000000008000000000000000000000000000000000000000000000000000000000000000000000000000000000000000000000000000020000000000000000000000000000000000000000000000000000000000000000000000000000000000000000000000000000008000000000000000000004000010000000000000000000000004000000004000000000000000000000000000",
      "type": "0x2",
      "transactionHash": "0xb398316ac6c277bbdf6c717ab8d30805f9fa82141a0791e1bfb4ea67e2db588a",
      "transactionIndex": "0x6",
      "blockHash": "0x0000000000000000000000000000000000000000000000000000000000000000",
      "blockNumber": "0x2ce3fa7",
      "gasUsed": "0xb481",
      "effectiveGasPrice": "0x7a121",
      "blobGasUsed": "0x9c40",
      "from": "0xe752c55acabc5f745ab36a0993bf35c6555b60e4",
      "to": "0xec8856122e88c4e10b2ba448e63933d5a41028cc",
      "contractAddress": null,
      "daFootprintGasScalar": "0x190",
      "l1BaseFeeScalar": "0x7d0",
      "l1BlobBaseFee": "0x1",
      "l1BlobBaseFeeScalar": "0xdbba0",
      "l1Fee": "0xad",
      "l1GasPrice": "0xb",
      "l1GasUsed": "0x640"
    },
    {
      "status": "0x1",
      "cumulativeGasUsed": "0x5a67e",
      "logs": [
        {
          "address": "0x000000000022d473030f116ddee9f6b43ac78ba3",
          "topics": [
            "0xda9fa7c1b00402c17d0161b249b1ab8bbec047c5a52207b9c112deffd817036b",
            "0x000000000000000000000000e752c55acabc5f745ab36a0993bf35c6555b60e4",
            "0x000000000000000000000000cf841f89753158557091e0c28781f09e27aa3b55",
            "0x000000000000000000000000f969aee60879c54baaed9f3ed26147db216fd664"
          ],
          "data": "0x000000000000000000000000ffffffffffffffffffffffffffffffffffffffff0000000000000000000000000000000000000000000000000000ffffffffffff",
          "blockHash": "0x0000000000000000000000000000000000000000000000000000000000000000",
          "blockNumber": "0x2ce3fa7",
          "blockTimestamp": "0x69bbecf3",
          "transactionHash": "0xa8acee1a6216d0a72763e74c5acc4d79edfc79755bbd241b64556aad54aae913",
          "transactionIndex": "0x7",
          "logIndex": "0x5",
          "removed": false
        }
      ],
      "logsBloom": "0x00010000000000000000000000000000040000000000002000000000000000000000000000000000000000000000000000000000000000000000000000080000000000000000000000000000000000000000000000000000000002001000000000000000000000000000000000008000000000000040000000000000000000000020000000000000000000000000000000000000000000000000000000000000000000000000000000000000000000000000000000000000000000080000000000000000000000000000000000000000000000008000000040000000080000000000000000000000000000000000000000000000000000000000000000002400",
      "type": "0x2",
      "transactionHash": "0xa8acee1a6216d0a72763e74c5acc4d79edfc79755bbd241b64556aad54aae913",
      "transactionIndex": "0x7",
      "blockHash": "0x0000000000000000000000000000000000000000000000000000000000000000",
      "blockNumber": "0x2ce3fa7",
      "gasUsed": "0xbaca",
      "effectiveGasPrice": "0x7a121",
      "blobGasUsed": "0xaa50",
      "from": "0xe752c55acabc5f745ab36a0993bf35c6555b60e4",
      "to": "0x000000000022d473030f116ddee9f6b43ac78ba3",
      "contractAddress": null,
      "daFootprintGasScalar": "0x190",
      "l1BaseFeeScalar": "0x7d0",
      "l1BlobBaseFee": "0x1",
      "l1BlobBaseFeeScalar": "0xdbba0",
      "l1Fee": "0xad",
      "l1GasPrice": "0xb",
      "l1GasUsed": "0x6da"
    },
    {
      "status": "0x1",
      "cumulativeGasUsed": "0x66148",
      "logs": [
        {
          "address": "0x000000000022d473030f116ddee9f6b43ac78ba3",
          "topics": [
            "0xda9fa7c1b00402c17d0161b249b1ab8bbec047c5a52207b9c112deffd817036b",
            "0x000000000000000000000000e752c55acabc5f745ab36a0993bf35c6555b60e4",
            "0x000000000000000000000000ec8856122e88c4e10b2ba448e63933d5a41028cc",
            "0x000000000000000000000000f969aee60879c54baaed9f3ed26147db216fd664"
          ],
          "data": "0x000000000000000000000000ffffffffffffffffffffffffffffffffffffffff0000000000000000000000000000000000000000000000000000ffffffffffff",
          "blockHash": "0x0000000000000000000000000000000000000000000000000000000000000000",
          "blockNumber": "0x2ce3fa7",
          "blockTimestamp": "0x69bbecf3",
          "transactionHash": "0x9cd08733a890cc76c7eb91c1ea3b0a5ba4818666f4e4a4f2d7f461b42c840228",
          "transactionIndex": "0x8",
          "logIndex": "0x6",
          "removed": false
        }
      ],
      "logsBloom": "0x00010000000000000000000000000000040000000000000000000000000000000000000000000000000000000000000000000000000000000000000000080000000000000000000000000000000000000000000000000000000000001000000000000000000000000000000000008000000000000040000000000000000400000020000000000000000000000000000000000080000000000000000000000000000000000000000000000000000000000000000000000000000000080000000000000000000000000000000000000000000000008000000040000000000000000000000000000000000000000000000000000000000000000000000004002400",
      "type": "0x2",
      "transactionHash": "0x9cd08733a890cc76c7eb91c1ea3b0a5ba4818666f4e4a4f2d7f461b42c840228",
      "transactionIndex": "0x8",
      "blockHash": "0x0000000000000000000000000000000000000000000000000000000000000000",
      "blockNumber": "0x2ce3fa7",
      "gasUsed": "0xbaca",
      "effectiveGasPrice": "0x7a121",
      "blobGasUsed": "0xaa50",
      "from": "0xe752c55acabc5f745ab36a0993bf35c6555b60e4",
      "to": "0x000000000022d473030f116ddee9f6b43ac78ba3",
      "contractAddress": null,
      "daFootprintGasScalar": "0x190",
      "l1BaseFeeScalar": "0x7d0",
      "l1BlobBaseFee": "0x1",
      "l1BlobBaseFeeScalar": "0xdbba0",
      "l1Fee": "0xad",
      "l1GasPrice": "0xb",
      "l1GasUsed": "0x6da"
    },
    {
      "status": "0x1",
      "cumulativeGasUsed": "0xbd0e8",
      "logs": [
        {
          "address": "0xf969aee60879c54baaed9f3ed26147db216fd664",
          "topics": [
            "0xddf252ad1be2c89b69c2b068fc378daa952ba7f163c4a11628f55a4df523b3ef",
            "0x0000000000000000000000000000000000000000000000000000000000000000",
            "0x000000000000000000000000e752c55acabc5f745ab36a0993bf35c6555b60e4",
            "0x0000000000000000000000000000000000000000000000000000000000001c5c"
          ],
          "data": "0x",
          "blockHash": "0x0000000000000000000000000000000000000000000000000000000000000000",
          "blockNumber": "0x2ce3fa7",
          "blockTimestamp": "0x69bbecf3",
          "transactionHash": "0x17bcf55a80f429fcb48fb45e4151da31586976e345c0b7e203e46b46d6c4912a",
          "transactionIndex": "0x9",
          "logIndex": "0x7",
          "removed": false
        },
        {
          "address": "0x00b036b58a818b1bc34d502d3fe730db729e62ac",
          "topics": [
            "0xf208f4912782fd25c7f114ca3723a2d5dd6f3bcc3ac8db5af63baa85f711d5ec",
            "0x81c6f61d2c8f59f5818c1991d6e838baa20eedc4b2c054f169ce07d6f0cdb04f",
            "0x000000000000000000000000f969aee60879c54baaed9f3ed26147db216fd664"
          ],
          "data": "0xfffffffffffffffffffffffffffffffffffffffffffffffffffffffffffcd9fcfffffffffffffffffffffffffffffffffffffffffffffffffffffffffffd08dc00000000000000000000000000000000000000000000000000009d96664aeb000000000000000000000000000000000000000000000000000000000000001c5c",
          "blockHash": "0x0000000000000000000000000000000000000000000000000000000000000000",
          "blockNumber": "0x2ce3fa7",
          "blockTimestamp": "0x69bbecf3",
          "transactionHash": "0x17bcf55a80f429fcb48fb45e4151da31586976e345c0b7e203e46b46d6c4912a",
          "transactionIndex": "0x9",
          "logIndex": "0x8",
          "removed": false
        },
        {
          "address": "0xec8856122e88c4e10b2ba448e63933d5a41028cc",
          "topics": [
            "0xddf252ad1be2c89b69c2b068fc378daa952ba7f163c4a11628f55a4df523b3ef",
            "0x000000000000000000000000e752c55acabc5f745ab36a0993bf35c6555b60e4",
            "0x00000000000000000000000000b036b58a818b1bc34d502d3fe730db729e62ac"
          ],
          "data": "0x0000000000000000000000000000000000000000000000000000000118e05b6f",
          "blockHash": "0x0000000000000000000000000000000000000000000000000000000000000000",
          "blockNumber": "0x2ce3fa7",
          "blockTimestamp": "0x69bbecf3",
          "transactionHash": "0x17bcf55a80f429fcb48fb45e4151da31586976e345c0b7e203e46b46d6c4912a",
          "transactionIndex": "0x9",
          "logIndex": "0x9",
          "removed": false
        }
      ],
      "logsBloom": "0x0000000000000000000000000000001004000000000000000000000000000000000000000000000000000000000000000000000000100000000008000000000000000000000000000000000800000000000000000000000000000000100000000000000002000000000000000000c800000000000040000000000010000000000000000001800000000000000008000000000000000000000000000000080000000004000000000000000000000000000800000000000020000000000000000000000002080000000000000000000000000000008000000000000000000024104000000000000000000000000004000004004000000002000000800000002010",
      "type": "0x2",
      "transactionHash": "0x17bcf55a80f429fcb48fb45e4151da31586976e345c0b7e203e46b46d6c4912a",
      "transactionIndex": "0x9",
      "blockHash": "0x0000000000000000000000000000000000000000000000000000000000000000",
      "blockNumber": "0x2ce3fa7",
      "gasUsed": "0x56fa0",
      "effectiveGasPrice": "0x7a121",
      "blobGasUsed": "0x197d0",
      "from": "0xe752c55acabc5f745ab36a0993bf35c6555b60e4",
      "to": "0xf969aee60879c54baaed9f3ed26147db216fd664",
      "contractAddress": null,
      "daFootprintGasScalar": "0x190",
      "l1BaseFeeScalar": "0x7d0",
      "l1BlobBaseFee": "0x1",
      "l1BlobBaseFeeScalar": "0xdbba0",
      "l1Fee": "0xad",
      "l1GasPrice": "0xb",
      "l1GasUsed": "0x1051"
    }
  ],
  "libraries": [],
  "pending": [],
  "returns": {},
  "timestamp": 1773923571113,
  "chain": 1301,
  "commit": "f120cc7"
}