{
  "transactions": [
    {
      "hash": "0x830d262fc855d1b36182ac9117b4213a1144b5c56551d3e08a7b7d8f07ef0bd8",
      "transactionType": "CALL",
      "contractName": null,
      "contractAddress": "0x29211b38d91f15af5a67cbd0405c5f268b094ec8",
      "function": "approve(address,uint256)",
      "arguments": [
        "0x000000000022D473030F116dDEE9F6B43aC78BA3",
        "115792089237316195423570985008687907853269984665640564039457584007913129639935"
      ],
      "transaction": {
        "from": "0xe752c55acabc5f745ab36a0993bf35c6555b60e4",
        "to": "0x29211b38d91f15af5a67cbd0405c5f268b094ec8",
        "gas": "0x107fc",
        "value": "0x0",
        "input": "0x095ea7b3000000000000000000000000000000000022d473030f116ddee9f6b43ac78ba3ffffffffffffffffffffffffffffffffffffffffffffffffffffffffffffffff",
        "nonce": "0x2e",
        "chainId": "0x515"
      },
      "additionalContracts": [],
      "isFixedGasLimit": false
    },
    {
      "hash": "0x3809c36870d6b6cd46e24b1f8230109da4e588c5567e89b3e64be2aacdc22afd",
      "transactionType": "CALL",
      "contractName": null,
      "contractAddress": "0x2a97d24634ca22aa180c1bc3146de44171c8b8b5",
      "function": "approve(address,uint256)",
      "arguments": [
        "0x000000000022D473030F116dDEE9F6B43aC78BA3",
        "115792089237316195423570985008687907853269984665640564039457584007913129639935"
      ],
      "transaction": {
        "from": "0xe752c55acabc5f745ab36a0993bf35c6555b60e4",
        "to": "0x2a97d24634ca22aa180c1bc3146de44171c8b8b5",
        "gas": "0x107fc",
        "value": "0x0",
        "input": "0x095ea7b3000000000000000000000000000000000022d473030f116ddee9f6b43ac78ba3ffffffffffffffffffffffffffffffffffffffffffffffffffffffffffffffff",
        "nonce": "0x2f",
        "chainId": "0x515"
      },
      "additionalContracts": [],
      "isFixedGasLimit": false
    },
    {
      "hash": "0xf86da7befa1a3048d5c1c0bbe7db925b0e043ba8eb1339e83f57db7bc437fe22",
      "transactionType": "CALL",
      "contractName": null,
      "contractAddress": "0x000000000022d473030f116ddee9f6b43ac78ba3",
      "function": "approve(address,address,uint160,uint48)",
      "arguments": [
        "0x29211b38D91f15AF5A67CBD0405C5F268b094EC8",
        "0xf969Aee60879C54bAAed9F3eD26147Db216Fd664",
        "1461501637330902918203684832716283019655932542975",
        "281474976710655"
      ],
      "transaction": {
        "from": "0xe752c55acabc5f745ab36a0993bf35c6555b60e4",
        "to": "0x000000000022d473030f116ddee9f6b43ac78ba3",
        "gas": "0x1112d",
        "value": "0x0",
        "input": "0x87517c4500000000000000000000000029211b38d91f15af5a67cbd0405c5f268b094ec8000000000000000000000000f969aee60879c54baaed9f3ed26147db216fd664000000000000000000000000ffffffffffffffffffffffffffffffffffffffff0000000000000000000000000000000000000000000000000000ffffffffffff",
        "nonce": "0x30",
        "chainId": "0x515"
      },
      "additionalContracts": [],
      "isFixedGasLimit": false
    },
    {
      "hash": "0xd18b3482356e23254a8ba2bee92786cf7a6eae7ff1182fe057c6a76553cd2b81",
      "transactionType": "CALL",
      "contractName": null,
      "contractAddress": "0x000000000022d473030f116ddee9f6b43ac78ba3",
      "function": "approve(address,address,uint160,uint48)",
      "arguments": [
        "0x2A97d24634cA22AA180C1BC3146De44171C8B8B5",
        "0xf969Aee60879C54bAAed9F3eD26147Db216Fd664",
        "1461501637330902918203684832716283019655932542975",
        "281474976710655"
      ],
      "transaction": {
        "from": "0xe752c55acabc5f745ab36a0993bf35c6555b60e4",
        "to": "0x000000000022d473030f116ddee9f6b43ac78ba3",
        "gas": "0x1112d",
        "value": "0x0",
        "input": "0x87517c450000000000000000000000002a97d24634ca22aa180c1bc3146de44171c8b8b5000000000000000000000000f969aee60879c54baaed9f3ed26147db216fd664000000000000000000000000ffffffffffffffffffffffffffffffffffffffff0000000000000000000000000000000000000000000000000000ffffffffffff",
        "nonce": "0x31",
        "chainId": "0x515"
      },
      "additionalContracts": [],
      "isFixedGasLimit": false
    },
    {
      "hash": "0xea1c1e0652e6b1a4bafd7a68877ae509df17c352cf8fc2da533e4f43c0e39dc3",
      "transactionType": "CALL",
      "contractName": null,
      "contractAddress": "0xf969aee60879c54baaed9f3ed26147db216fd664",
      "function": "modifyLiquidities(bytes,uint256)",
      "arguments": [
        "0x000000000000000000000000000000000000000000000000000000000000004000000000000000000000000000000000000000000000000000000000000000800000000000000000000000000000000000000000000000000000000000000002020d00000000000000000000000000000000000000000000000000000000000000000000000000000000000000000000000000000000000000000000000000020000000000000000000000000000000000000000000000000000000000000040000000000000000000000000000000000000000000000000000000000000020000000000000000000000000000000000000000000000000000000000000001a000000000000000000000000029211b38d91f15af5a67cbd0405c5f268b094ec80000000000000000000000002a97d24634ca22aa180c1bc3146de44171c8b8b50000000000000000000000000000000000000000000000000000000000800000000000000000000000000000000000000000000000000000000000000000003c0000000000000000000000002042d29d9fc03a225c6a1d56b5a138c9e61960c8fffffffffffffffffffffffffffffffffffffffffffffffffffffffffffcd9fcfffffffffffffffffffffffffffffffffffffffffffffffffffffffffffd08dc00000000000000000000000000000000000000000000000000009d96664aeb000000000000000000000000000000000000000000000000000f43fc2c04ee00000000000000000000000000000000000000000000000000000000000135f1b400000000000000000000000000e752c55acabc5f745ab36a0993bf35c6555b60e400000000000000000000000000000000000000000000000000000000000001800000000000000000000000000000000000000000000000000000000000000000000000000000000000000000000000000000000000000000000000000000004000000000000000000000000029211b38d91f15af5a67cbd0405c5f268b094ec80000000000000000000000002a97d24634ca22aa180c1bc3146de44171c8b8b5",
        "1773877667"
      ],
      "transaction": {
        "from": "0xe752c55acabc5f745ab36a0993bf35c6555b60e4",
        "to": "0xf969aee60879c54baaed9f3ed26147db216fd664",
        "gas": "0x7822e",
        "value": "0x0",
        "input": "0xdd46508f00000000000000000000000000000000000000000000000000000000000000400000000000000000000000000000000000000000000000000000000069bb39a30000000000000000000000000000000000000000000000000000000000000300000000000000000000000000000000000000000000000000000000000000004000000000000000000000000000000000000000000000000000000000000000800000000000000000000000000000000000000000000000000000000000000002020d00000000000000000000000000000000000000000000000000000000000000000000000000000000000000000000000000000000000000000000000000020000000000000000000000000000000000000000000000000000000000000040000000000000000000000000000000000000000000000000000000000000020000000000000000000000000000000000000000000000000000000000000001a000000000000000000000000029211b38d91f15af5a67cbd0405c5f268b094ec80000000000000000000000002a97d24634ca22aa180c1bc3146de44171c8b8b50000000000000000000000000000000000000000000000000000000000800000000000000000000000000000000000000000000000000000000000000000003c0000000000000000000000002042d29d9fc03a225c6a1d56b5a138c9e61960c8fffffffffffffffffffffffffffffffffffffffffffffffffffffffffffcd9fcfffffffffffffffffffffffffffffffffffffffffffffffffffffffffffd08dc00000000000000000000000000000000000000000000000000009d96664aeb000000000000000000000000000000000000000000000000000f43fc2c04ee00000000000000000000000000000000000000000000000000000000000135f1b400000000000000000000000000e752c55acabc5f745ab36a0993bf35c6555b60e400000000000000000000000000000000000000000000000000000000000001800000000000000000000000000000000000000000000000000000000000000000000000000000000000000000000000000000000000000000000000000000004000000000000000000000000029211b38d91f15af5a67cbd0405c5f268b094ec80000000000000000000000002a97d24634ca22aa180c1bc3146de44171c8b8b5",
        "nonce": "0x32",
        "chainId": "0x515"
      },
      "additionalContracts": [],
      "isFixedGasLimit": false
    }
  ],
  "receipts": [
    {
      "status": "0x1",
      "cumulativeGasUsed": "0x49e9f",
      "logs": [
        {
          "address": "0x29211b38d91f15af5a67cbd0405c5f268b094ec8",
          "topics": [
            "0x8c5be1e5ebec7d5bd14f71427d1e84f3dd0314c0f7b2291e5b200ac8c7c3b925",
            "0x000000000000000000000000e752c55acabc5f745ab36a0993bf35c6555b60e4",
            "0x000000000000000000000000000000000022d473030f116ddee9f6b43ac78ba3"
          ],
          "data": "0xffffffffffffffffffffffffffffffffffffffffffffffffffffffffffffffff",
          "blockHash": "0x00f8150df5cdc434067a6e80676582da7bebfc489317e0d67bed088cda59c3e5",
          "blockNumber": "0x2cd8c33",
          "blockTimestamp": "0x69bb397f",
          "transactionHash": "0x3809c36870d6b6cd46e24b1f8230109da4e588c5567e89b3e64be2aacdc22afd",
          "transactionIndex": "0x4",
          "logIndex": "0x2",
          "removed": false
        }
      ],
      "logsBloom": "0x00000000000000000000000000000000040000000000000000000000000000000000000000000000000000000000000000000000800000000000000000200000000000000000000000004000000000000000000000000800000000000000000000000000000000000000000000008000000000000000000000000000000000000000000000000000000000000000000000000000000000000000000000000000020000000000000000000000000000000000000000000000000000000000000000000000000000000000000000000000000000008000000000000000020000000010000000008000000000000000800000000000000000000000000000000000",
      "type": "0x2",
      "transactionHash": "0x3809c36870d6b6cd46e24b1f8230109da4e588c5567e89b3e64be2aacdc22afd",
      "transactionIndex": "0x4",
      "blockHash": "0x00f8150df5cdc434067a6e80676582da7bebfc489317e0d67bed088cda59c3e5",
      "blockNumber": "0x2cd8c33",
      "gasUsed": "0xb481",
      "effectiveGasPrice": "0x7a121",
      "blobGasUsed": "0x9c40",
      "from": "0xe752c55acabc5f745ab36a0993bf35c6555b60e4",
      "to": "0x29211b38d91f15af5a67cbd0405c5f268b094ec8",
      "contractAddress": null,
      "daFootprintGasScalar": "0x190",
      "l1BaseFeeScalar": "0x7d0",
      "l1BlobBaseFee": "0x1",
      "l1BlobBaseFeeScalar": "0xdbba0",
      "l1Fee": "0x76",
      "l1GasPrice": "0x9",
      "l1GasUsed": "0x640"
    },
    {
      "status": "0x1",
      "cumulativeGasUsed": "0x6c352",
      "logs": [
        {
          "address": "0x2a97d24634ca22aa180c1bc3146de44171c8b8b5",
          "topics": [
            "0x8c5be1e5ebec7d5bd14f71427d1e84f3dd0314c0f7b2291e5b200ac8c7c3b925",
            "0x000000000000000000000000e752c55acabc5f745ab36a0993bf35c6555b60e4",
            "0x000000000000000000000000000000000022d473030f116ddee9f6b43ac78ba3"
          ],
          "data": "0xffffffffffffffffffffffffffffffffffffffffffffffffffffffffffffffff",
          "blockHash": "0x00f8150df5cdc434067a6e80676582da7bebfc489317e0d67bed088cda59c3e5",
          "blockNumber": "0x2cd8c33",
          "blockTimestamp": "0x69bb397f",
          "transactionHash": "0xea1c1e0652e6b1a4bafd7a68877ae509df17c352cf8fc2da533e4f43c0e39dc3",
          "transactionIndex": "0x6",
          "logIndex": "0x4",
          "removed": false
        }
      ],
      "logsBloom": "0x00000000000000000000000000000000040000000000000000000000000000000000000000000000000000000000000000000000800000000000000000200000000000000000000000004000000000000000000000000800000000000000000000000000000000000000000000008000000000000000000000000000000000000000000000000000000000000000000000000000000000000000000000000000020000000000000000000000000000000000000000000000000100000000000000100000000000000000000000000000000000008000000000000000000000000010000000000000000000000000000000000000020000000000000000000000",
      "type": "0x2",
      "transactionHash": "0xea1c1e0652e6b1a4bafd7a68877ae509df17c352cf8fc2da533e4f43c0e39dc3",
      "transactionIndex": "0x6",
      "blockHash": "0x00f8150df5cdc434067a6e80676582da7bebfc489317e0d67bed088cda59c3e5",
      "blockNumber": "0x2cd8c33",
      "gasUsed": "0xb481",
      "effectiveGasPrice": "0x7a121",
      "blobGasUsed": "0x9c40",
      "from": "0xe752c55acabc5f745ab36a0993bf35c6555b60e4",
      "to": "0x2a97d24634ca22aa180c1bc3146de44171c8b8b5",
      "contractAddress": null,
      "daFootprintGasScalar": "0x190",
      "l1BaseFeeScalar": "0x7d0",
      "l1BlobBaseFee": "0x1",
      "l1BlobBaseFeeScalar": "0xdbba0",
      "l1Fee": "0x76",
      "l1GasPrice": "0x9",
      "l1GasUsed": "0x640"
    },
    {
      "status": "0x1",
      "cumulativeGasUsed": "0x77e1c",
      "logs": [
        {
          "address": "0x000000000022d473030f116ddee9f6b43ac78ba3",
          "topics": [
            "0xda9fa7c1b00402c17d0161b249b1ab8bbec047c5a52207b9c112deffd817036b",
            "0x000000000000000000000000e752c55acabc5f745ab36a0993bf35c6555b60e4",
            "0x00000000000000000000000029211b38d91f15af5a67cbd0405c5f268b094ec8",
            "0x000000000000000000000000f969aee60879c54baaed9f3ed26147db216fd664"
          ],
          "data": "0x000000000000000000000000ffffffffffffffffffffffffffffffffffffffff0000000000000000000000000000000000000000000000000000ffffffffffff",
          "blockHash": "0x00f8150df5cdc434067a6e80676582da7bebfc489317e0d67bed088cda59c3e5",
          "blockNumber": "0x2cd8c33",
          "blockTimestamp": "0x69bb397f",
          "transactionHash": "0x830d262fc855d1b36182ac9117b4213a1144b5c56551d3e08a7b7d8f07ef0bd8",
          "transactionIndex": "0x7",
          "logIndex": "0x5",
          "removed": false
        }
      ],
      "logsBloom": "0x00010000000000000000000000000000040000000000000000000000020000000000000000000000000000000000000000000000000000000000000000080000000000000000000000000000000020000000000000000000000000001000000000000000000000000000000000008000000000000040000000000000000000000020000000000000000000000000000000000000000000000000000000000000000000000000000000000000000000000000000000000000000000080000000000000000000000000000000000000000000000008000000040000000000000000000000000000000000000000000000000000200000000000000000000002400",
      "type": "0x2",
      "transactionHash": "0x830d262fc855d1b36182ac9117b4213a1144b5c56551d3e08a7b7d8f07ef0bd8",
      "transactionIndex": "0x7",
      "blockHash": "0x00f8150df5cdc434067a6e80676582da7bebfc489317e0d67bed088cda59c3e5",
      "blockNumber": "0x2cd8c33",
      "gasUsed": "0xbaca",
      "effectiveGasPrice": "0x7a121",
      "blobGasUsed": "0xa8c0",
      "from": "0xe752c55acabc5f745ab36a0993bf35c6555b60e4",
      "to": "0x000000000022d473030f116ddee9f6b43ac78ba3",
      "contractAddress": null,
      "daFootprintGasScalar": "0x190",
      "l1BaseFeeScalar": "0x7d0",
      "l1BlobBaseFee": "0x1",
      "l1BlobBaseFeeScalar": "0xdbba0",
      "l1Fee": "0x81",
      "l1GasPrice": "0x9",
      "l1GasUsed": "0x6cd"
    },
    {
      "status": "0x1",
      "cumulativeGasUsed": "0x838e6",
      "logs": [
        {
          "address": "0x000000000022d473030f116ddee9f6b43ac78ba3",
          "topics": [
            "0xda9fa7c1b00402c17d0161b249b1ab8bbec047c5a52207b9c112deffd817036b",
            "0x000000000000000000000000e752c55acabc5f745ab36a0993bf35c6555b60e4",
            "0x0000000000000000000000002a97d24634ca22aa180c1bc3146de44171c8b8b5",
            "0x000000000000000000000000f969aee60879c54baaed9f3ed26147db216fd664"
          ],
          "data": "0x000000000000000000000000ffffffffffffffffffffffffffffffffffffffff0000000000000000000000000000000000000000000000000000ffffffffffff",
          "blockHash": "0x00f8150df5cdc434067a6e80676582da7bebfc489317e0d67bed088cda59c3e5",
          "blockNumber": "0x2cd8c33",
          "blockTimestamp": "0x69bb397f",
          "transactionHash": "0xf86da7befa1a3048d5c1c0bbe7db925b0e043ba8eb1339e83f57db7bc437fe22",
          "transactionIndex": "0x8",
          "logIndex": "0x6",
          "removed": false
        }
      ],
      "logsBloom": "0x00010000000000000000000000000000040000000000000000000000000000000000000000000020000000000000000000000000000000000000000000080000000000000000000000000000000000000000000000000020000000001000000000000000000000000000000000008000000000000040000000000000000000000020000000000000000000000000000000000000000000000000000000000000000000000000000000000000000000000000000000000000000000080000000800000000000000000000000000000000000000008000000040000000000000000000000000000000000000000000000000000000000000000000000000002400",
      "type": "0x2",
      "transactionHash": "0xf86da7befa1a3048d5c1c0bbe7db925b0e043ba8eb1339e83f57db7bc437fe22",
      "transactionIndex": "0x8",
      "blockHash": "0x00f8150df5cdc434067a6e80676582da7bebfc489317e0d67bed088cda59c3e5",
      "blockNumber": "0x2cd8c33",
      "gasUsed": "0xbaca",
      "effectiveGasPrice": "0x7a121",
      "blobGasUsed": "0xa8c0",
      "from": "0xe752c55acabc5f745ab36a0993bf35c6555b60e4",
      "to": "0x000000000022d473030f116ddee9f6b43ac78ba3",
      "contractAddress": null,
      "daFootprintGasScalar": "0x190",
      "l1BaseFeeScalar": "0x7d0",
      "l1BlobBaseFee": "0x1",
      "l1BlobBaseFeeScalar": "0xdbba0",
      "l1Fee": "0x81",
      "l1GasPrice": "0x9",
      "l1GasUsed": "0x6cd"
    },
    {
      "status": "0x1",
      "cumulativeGasUsed": "0xda886",
      "logs": [
        {
          "address": "0xf969aee60879c54baaed9f3ed26147db216fd664",
          "topics": [
            "0xddf252ad1be2c89b69c2b068fc378daa952ba7f163c4a11628f55a4df523b3ef",
            "0x0000000000000000000000000000000000000000000000000000000000000000",
            "0x000000000000000000000000e752c55acabc5f745ab36a0993bf35c6555b60e4",
            "0x0000000000000000000000000000000000000000000000000000000000001c4d"
          ],
          "data": "0x",
          "blockHash": "0x00f8150df5cdc434067a6e80676582da7bebfc489317e0d67bed088cda59c3e5",
          "blockNumber": "0x2cd8c33",
          "blockTimestamp": "0x69bb397f",
          "transactionHash": "0xd18b3482356e23254a8ba2bee92786cf7a6eae7ff1182fe057c6a76553cd2b81",
          "transactionIndex": "0x9",
          "logIndex": "0x7",
          "removed": false
        },
        {
          "address": "0x00b036b58a818b1bc34d502d3fe730db729e62ac",
          "topics": [
            "0xf208f4912782fd25c7f114ca3723a2d5dd6f3bcc3ac8db5af63baa85f711d5ec",
            "0x98419b7bfb5a6f612aacf9ea5a2651d8cf0df6afedbaa41aa8b5dfc372cf175b",
            "0x000000000000000000000000f969aee60879c54baaed9f3ed26147db216fd664"
          ],
          "data": "0xfffffffffffffffffffffffffffffffffffffffffffffffffffffffffffcd9fcfffffffffffffffffffffffffffffffffffffffffffffffffffffffffffd08dc00000000000000000000000000000000000000000000000000009d96664aeb000000000000000000000000000000000000000000000000000000000000001c4d",
          "blockHash": "0x00f8150df5cdc434067a6e80676582da7bebfc489317e0d67bed088cda59c3e5",
          "blockNumber": "0x2cd8c33",
          "blockTimestamp": "0x69bb397f",
          "transactionHash": "0xd18b3482356e23254a8ba2bee92786cf7a6eae7ff1182fe057c6a76553cd2b81",
          "transactionIndex": "0x9",
          "logIndex": "0x8",
          "removed": false
        },
        {
          "address": "0x2a97d24634ca22aa180c1bc3146de44171c8b8b5",
          "topics": [
            "0xddf252ad1be2c89b69c2b068fc378daa952ba7f163c4a11628f55a4df523b3ef",
            "0x000000000000000000000000e752c55acabc5f745ab36a0993bf35c6555b60e4",
            "0x00000000000000000000000000b036b58a818b1bc34d502d3fe730db729e62ac"
          ],
          "data": "0x0000000000000000000000000000000000000000000000000000000118e05b6f",
          "blockHash": "0x00f8150df5cdc434067a6e80676582da7bebfc489317e0d67bed088cda59c3e5",
          "blockNumber": "0x2cd8c33",
          "blockTimestamp": "0x69bb397f",
          "transactionHash": "0xd18b3482356e23254a8ba2bee92786cf7a6eae7ff1182fe057c6a76553cd2b81",
          "transactionIndex": "0x9",
          "logIndex": "0x9",
          "removed": false
        }
      ],
      "logsBloom": "0x0000000000000000000000000000000004000000000000000000000080000000000000000000000000000000000000000000000000100000000000000000000000000000000000000000080800000000000000000000000000000000100000000000000002000000000000000000c800000000000040000000000010100000000000000001000000000000000008000000000000000000000000000000000000000004000000000000000000000000000800000000000020000300000000000000100002080000000000000004000000000000008000000000000000080020004000000000000000000000000000000004000000020002000000000000002010",
      "type": "0x2",
      "transactionHash": "0xd18b3482356e23254a8ba2bee92786cf7a6eae7ff1182fe057c6a76553cd2b81",
      "transactionIndex": "0x9",
      "blockHash": "0x00f8150df5cdc434067a6e80676582da7bebfc489317e0d67bed088cda59c3e5",
      "blockNumber": "0x2cd8c33",
      "gasUsed": "0x56fa0",
      "effectiveGasPrice": "0x7a121",
      "blobGasUsed": "0x19640",
      "from": "0xe752c55acabc5f745ab36a0993bf35c6555b60e4",
      "to": "0xf969aee60879c54baaed9f3ed26147db216fd664",
      "contractAddress": null,
      "daFootprintGasScalar": "0x190",
      "l1BaseFeeScalar": "0x7d0",
      "l1BlobBaseFee": "0x1",
      "l1BlobBaseFeeScalar": "0xdbba0",
      "l1Fee": "0x135",
      "l1GasPrice": "0x9",
      "l1GasUsed": "0x1043"
    }
  ],
  "libraries": [],
  "pending": [],
  "returns": {},
  "timestamp": 1773877631152,
  "chain": 1301,
  "commit": "9125607"
}