{
  "transactions": [
    {
      "hash": "0x42793bcd5cef66d0a06ae7741dd1050dbad5f0a6ff49a043ae5a51e231b0f44b",
      "transactionType": "CALL",
      "contractName": null,
      "contractAddress": "0x25dfb92b22c873518e28a26b0febf681b7f99872",
      "function": "approve(address,uint256)",
      "arguments": [
        "0x000000000022D473030F116dDEE9F6B43aC78BA3",
        "115792089237316195423570985008687907853269984665640564039457584007913129639935"
      ],
      "transaction": {
        "from": "0xe752c55acabc5f745ab36a0993bf35c6555b60e4",
        "to": "0x25dfb92b22c873518e28a26b0febf681b7f99872",
        "gas": "0x107fc",
        "value": "0x0",
        "input": "0x095ea7b3000000000000000000000000000000000022d473030f116ddee9f6b43ac78ba3ffffffffffffffffffffffffffffffffffffffffffffffffffffffffffffffff",
        "nonce": "0xd",
        "chainId": "0x515"
      },
      "additionalContracts": [],
      "isFixedGasLimit": false
    },
    {
      "hash": "0xc8fae89df03e8092717ce902374f5fbb252e6b0417cdf345fefa2458cf4905a6",
      "transactionType": "CALL",
      "contractName": null,
      "contractAddress": "0xfcaedd04acd307405d2e1ff40fc89948701421a0",
      "function": "approve(address,uint256)",
      "arguments": [
        "0x000000000022D473030F116dDEE9F6B43aC78BA3",
        "115792089237316195423570985008687907853269984665640564039457584007913129639935"
      ],
      "transaction": {
        "from": "0xe752c55acabc5f745ab36a0993bf35c6555b60e4",
        "to": "0xfcaedd04acd307405d2e1ff40fc89948701421a0",
        "gas": "0x107fc",
        "value": "0x0",
        "input": "0x095ea7b3000000000000000000000000000000000022d473030f116ddee9f6b43ac78ba3ffffffffffffffffffffffffffffffffffffffffffffffffffffffffffffffff",
        "nonce": "0xe",
        "chainId": "0x515"
      },
      "additionalContracts": [],
      "isFixedGasLimit": false
    },
    {
      "hash": "0xc0ad94043495591fcba761762901346abbe3f09e790be57eaa27cb64c4cae489",
      "transactionType": "CALL",
      "contractName": null,
      "contractAddress": "0x000000000022d473030f116ddee9f6b43ac78ba3",
      "function": "approve(address,address,uint160,uint48)",
      "arguments": [
        "0x25dfb92B22c873518e28a26B0FEbF681b7f99872",
        "0xf969Aee60879C54bAAed9F3eD26147Db216Fd664",
        "1461501637330902918203684832716283019655932542975",
        "281474976710655"
      ],
      "transaction": {
        "from": "0xe752c55acabc5f745ab36a0993bf35c6555b60e4",
        "to": "0x000000000022d473030f116ddee9f6b43ac78ba3",
        "gas": "0x1112d",
        "value": "0x0",
        "input": "0x87517c4500000000000000000000000025dfb92b22c873518e28a26b0febf681b7f99872000000000000000000000000f969aee60879c54baaed9f3ed26147db216fd664000000000000000000000000ffffffffffffffffffffffffffffffffffffffff0000000000000000000000000000000000000000000000000000ffffffffffff",
        "nonce": "0xf",
        "chainId": "0x515"
      },
      "additionalContracts": [],
      "isFixedGasLimit": false
    },
    {
      "hash": "0xfa871513fc4e433901046e4ebf13ae46a707a88a7f245b3e303a9527a44d12e6",
      "transactionType": "CALL",
      "contractName": null,
      "contractAddress": "0x000000000022d473030f116ddee9f6b43ac78ba3",
      "function": "approve(address,address,uint160,uint48)",
      "arguments": [
        "0xfcAEDD04AcD307405d2E1Ff40fC89948701421a0",
        "0xf969Aee60879C54bAAed9F3eD26147Db216Fd664",
        "1461501637330902918203684832716283019655932542975",
        "281474976710655"
      ],
      "transaction": {
        "from": "0xe752c55acabc5f745ab36a0993bf35c6555b60e4",
        "to": "0x000000000022d473030f116ddee9f6b43ac78ba3",
        "gas": "0x1112d",
        "value": "0x0",
        "input": "0x87517c45000000000000000000000000fcaedd04acd307405d2e1ff40fc89948701421a0000000000000000000000000f969aee60879c54baaed9f3ed26147db216fd664000000000000000000000000ffffffffffffffffffffffffffffffffffffffff0000000000000000000000000000000000000000000000000000ffffffffffff",
        "nonce": "0x10",
        "chainId": "0x515"
      },
      "additionalContracts": [],
      "isFixedGasLimit": false
    },
    {
      "hash": "0x38ad4d751091aa74d87d4c5f187725f3bf6b9e8f8b7295091ccbd26a3c071218",
      "transactionType": "CALL",
      "contractName": null,
      "contractAddress": "0xf969aee60879c54baaed9f3ed26147db216fd664",
      "function": "modifyLiquidities(bytes,uint256)",
      "arguments": [
        "0x000000000000000000000000000000000000000000000000000000000000004000000000000000000000000000000000000000000000000000000000000000800000000000000000000000000000000000000000000000000000000000000002020d00000000000000000000000000000000000000000000000000000000000000000000000000000000000000000000000000000000000000000000000000020000000000000000000000000000000000000000000000000000000000000040000000000000000000000000000000000000000000000000000000000000020000000000000000000000000000000000000000000000000000000000000001a000000000000000000000000025dfb92b22c873518e28a26b0febf681b7f99872000000000000000000000000fcaedd04acd307405d2e1ff40fc89948701421a00000000000000000000000000000000000000000000000000000000000800000000000000000000000000000000000000000000000000000000000000000003c0000000000000000000000004f25b3a510158a8c1917087e0679a82d473620c8000000000000000000000000000000000000000000000000000000000002f760000000000000000000000000000000000000000000000000000000000003260400000000000000000000000000000000000000000000000000009ef5d279d7d8000000000000000000000000000000000000000000000000000000007d2b75000000000000000000000000000000000000000000000000000f43fc2c04ee0000000000000000000000000000e752c55acabc5f745ab36a0993bf35c6555b60e400000000000000000000000000000000000000000000000000000000000001800000000000000000000000000000000000000000000000000000000000000000000000000000000000000000000000000000000000000000000000000000004000000000000000000000000025dfb92b22c873518e28a26b0febf681b7f99872000000000000000000000000fcaedd04acd307405d2e1ff40fc89948701421a0",
        "1773862507"
      ],
      "transaction": {
        "from": "0xe752c55acabc5f745ab36a0993bf35c6555b60e4",
        "to": "0xf969aee60879c54baaed9f3ed26147db216fd664",
        "gas": "0x94397",
        "value": "0x0",
        "input": "0xdd46508f00000000000000000000000000000000000000000000000000000000000000400000000000000000000000000000000000000000000000000000000069bafe6b0000000000000000000000000000000000000000000000000000000000000300000000000000000000000000000000000000000000000000000000000000004000000000000000000000000000000000000000000000000000000000000000800000000000000000000000000000000000000000000000000000000000000002020d00000000000000000000000000000000000000000000000000000000000000000000000000000000000000000000000000000000000000000000000000020000000000000000000000000000000000000000000000000000000000000040000000000000000000000000000000000000000000000000000000000000020000000000000000000000000000000000000000000000000000000000000001a000000000000000000000000025dfb92b22c873518e28a26b0febf681b7f99872000000000000000000000000fcaedd04acd307405d2e1ff40fc89948701421a00000000000000000000000000000000000000000000000000000000000800000000000000000000000000000000000000000000000000000000000000000003c0000000000000000000000004f25b3a510158a8c1917087e0679a82d473620c8000000000000000000000000000000000000000000000000000000000002f760000000000000000000000000000000000000000000000000000000000003260400000000000000000000000000000000000000000000000000009ef5d279d7d8000000000000000000000000000000000000000000000000000000007d2b75000000000000000000000000000000000000000000000000000f43fc2c04ee0000000000000000000000000000e752c55acabc5f745ab36a0993bf35c6555b60e400000000000000000000000000000000000000000000000000000000000001800000000000000000000000000000000000000000000000000000000000000000000000000000000000000000000000000000000000000000000000000000004000000000000000000000000025dfb92b22c873518e28a26b0febf681b7f99872000000000000000000000000fcaedd04acd307405d2e1ff40fc89948701421a0",
        "nonce": "0x11",
        "chainId": "0x515"
      },
      "additionalContracts": [],
      "isFixedGasLimit": false
    }
  ],
  "receipts": [
    {
      "status": "0x1",
      "cumulativeGasUsed": "0x77f0f",
      "logs": [
        {
          "address": "0x25dfb92b22c873518e28a26b0febf681b7f99872",
          "topics": [
            "0x8c5be1e5ebec7d5bd14f71427d1e84f3dd0314c0f7b2291e5b200ac8c7c3b925",
            "0x000000000000000000000000e752c55acabc5f745ab36a0993bf35c6555b60e4",
            "0x000000000000000000000000000000000022d473030f116ddee9f6b43ac78ba3"
          ],
          "data": "0xffffffffffffffffffffffffffffffffffffffffffffffffffffffffffffffff",
          "blockHash": "0x4ee4c159aee4145513701a6c205f8ba5208e68637aa8b4364400d147fed63d05",
          "blockNumber": "0x2cd50fe",
          "blockTimestamp": "0x69bafe4a",
          "transactionHash": "0xfa871513fc4e433901046e4ebf13ae46a707a88a7f245b3e303a9527a44d12e6",
          "transactionIndex": "0x6",
          "logIndex": "0x4",
          "removed": false
        }
      ],
      "logsBloom": "0x00000000000000000000000000000000040000000000000000000000000000000000000000000000000000200000000000000000800000000000000000200000000000000000000000004002000000000000000000000800000000000000000000000000000000000000000000008000000000000000000000000001000000000000000000000000000000000000000000000000000000000000000000000000020000000000000000000000000000000000000000000000000000000000000000000000000000000000000000000000000000008000000000000000000000000010000000000000000000000000000000000000000000000000000000000000",
      "type": "0x2",
      "transactionHash": "0xfa871513fc4e433901046e4ebf13ae46a707a88a7f245b3e303a9527a44d12e6",
      "transactionIndex": "0x6",
      "blockHash": "0x4ee4c159aee4145513701a6c205f8ba5208e68637aa8b4364400d147fed63d05",
      "blockNumber": "0x2cd50fe",
      "gasUsed": "0xb481",
      "effectiveGasPrice": "0x7a121",
      "blobGasUsed": "0x9c40",
      "from": "0xe752c55acabc5f745ab36a0993bf35c6555b60e4",
      "to": "0x25dfb92b22c873518e28a26b0febf681b7f99872",
      "contractAddress": null,
      "daFootprintGasScalar": "0x190",
      "l1BaseFeeScalar": "0x7d0",
      "l1BlobBaseFee": "0x1",
      "l1BlobBaseFeeScalar": "0xdbba0",
      "l1Fee": "0x7d",
      "l1GasPrice": "0xb",
      "l1GasUsed": "0x640"
    },
    {
      "status": "0x1",
      "cumulativeGasUsed": "0x83390",
      "logs": [
        {
          "address": "0xfcaedd04acd307405d2e1ff40fc89948701421a0",
          "topics": [
            "0x8c5be1e5ebec7d5bd14f71427d1e84f3dd0314c0f7b2291e5b200ac8c7c3b925",
            "0x000000000000000000000000e752c55acabc5f745ab36a0993bf35c6555b60e4",
            "0x000000000000000000000000000000000022d473030f116ddee9f6b43ac78ba3"
          ],
          "data": "0xffffffffffffffffffffffffffffffffffffffffffffffffffffffffffffffff",
          "blockHash": "0x4ee4c159aee4145513701a6c205f8ba5208e68637aa8b4364400d147fed63d05",
          "blockNumber": "0x2cd50fe",
          "blockTimestamp": "0x69bafe4a",
          "transactionHash": "0xc8fae89df03e8092717ce902374f5fbb252e6b0417cdf345fefa2458cf4905a6",
          "transactionIndex": "0x7",
          "logIndex": "0x5",
          "removed": false
        }
      ],
      "logsBloom": "0x00008000000000000000000000000000040000000000000000000000000000000000000000000000000000200000000000000000800000000000000000200000000000000000000000004000000000000000000000000800000000000000000000000000000000000000000000008000000000000000000000000000000000000000000000000000000000000000000000000000000000000000000000000000020000000000000000000000000000000000000000000000000000000000000000000000000000000000000000000000000000008000000000000008000000000010000000000000000000000000000000000000000000000000000000000000",
      "type": "0x2",
      "transactionHash": "0xc8fae89df03e8092717ce902374f5fbb252e6b0417cdf345fefa2458cf4905a6",
      "transactionIndex": "0x7",
      "blockHash": "0x4ee4c159aee4145513701a6c205f8ba5208e68637aa8b4364400d147fed63d05",
      "blockNumber": "0x2cd50fe",
      "gasUsed": "0xb481",
      "effectiveGasPrice": "0x7a121",
      "blobGasUsed": "0x9c40",
      "from": "0xe752c55acabc5f745ab36a0993bf35c6555b60e4",
      "to": "0xfcaedd04acd307405d2e1ff40fc89948701421a0",
      "contractAddress": null,
      "daFootprintGasScalar": "0x190",
      "l1BaseFeeScalar": "0x7d0",
      "l1BlobBaseFee": "0x1",
      "l1BlobBaseFeeScalar": "0xdbba0",
      "l1Fee": "0x7d",
      "l1GasPrice": "0xb",
      "l1GasUsed": "0x640"
    },
    {
      "status": "0x1",
      "cumulativeGasUsed": "0x8ee5a",
      "logs": [
        {
          "address": "0x000000000022d473030f116ddee9f6b43ac78ba3",
          "topics": [
            "0xda9fa7c1b00402c17d0161b249b1ab8bbec047c5a52207b9c112deffd817036b",
            "0x000000000000000000000000e752c55acabc5f745ab36a0993bf35c6555b60e4",
            "0x00000000000000000000000025dfb92b22c873518e28a26b0febf681b7f99872",
            "0x000000000000000000000000f969aee60879c54baaed9f3ed26147db216fd664"
          ],
          "data": "0x000000000000000000000000ffffffffffffffffffffffffffffffffffffffff0000000000000000000000000000000000000000000000000000ffffffffffff",
          "blockHash": "0x4ee4c159aee4145513701a6c205f8ba5208e68637aa8b4364400d147fed63d05",
          "blockNumber": "0x2cd50fe",
          "blockTimestamp": "0x69bafe4a",
          "transactionHash": "0x42793bcd5cef66d0a06ae7741dd1050dbad5f0a6ff49a043ae5a51e231b0f44b",
          "transactionIndex": "0x8",
          "logIndex": "0x6",
          "removed": false
        }
      ],
      "logsBloom": "0x00010000000000000000000000000000040000000000000000000000000000000000000000000000000000000000000000000000000000000000000000080000000000000000000000000000000000000000000000000000000000001000000000000000200000000000000000008000000000000040000000000000000000000020000000000000000000000000000000000000000000000000000000000000000000000000000004000000000000002000000000000000000000080000000000000000000000000000000000000000000000008000000040000000000000000000000000000000000000000000000000000000000000000000000000002400",
      "type": "0x2",
      "transactionHash": "0x42793bcd5cef66d0a06ae7741dd1050dbad5f0a6ff49a043ae5a51e231b0f44b",
      "transactionIndex": "0x8",
      "blockHash": "0x4ee4c159aee4145513701a6c205f8ba5208e68637aa8b4364400d147fed63d05",
      "blockNumber": "0x2cd50fe",
      "gasUsed": "0xbaca",
      "effectiveGasPrice": "0x7a121",
      "blobGasUsed": "0xa8c0",
      "from": "0xe752c55acabc5f745ab36a0993bf35c6555b60e4",
      "to": "0x000000000022d473030f116ddee9f6b43ac78ba3",
      "contractAddress": null,
      "daFootprintGasScalar": "0x190",
      "l1BaseFeeScalar": "0x7d0",
      "l1BlobBaseFee": "0x1",
      "l1BlobBaseFeeScalar": "0xdbba0",
      "l1Fee": "0x88",
      "l1GasPrice": "0xb",
      "l1GasUsed": "0x6cd"
    },
    {
      "status": "0x1",
      "cumulativeGasUsed": "0x9a924",
      "logs": [
        {
          "address": "0x000000000022d473030f116ddee9f6b43ac78ba3",
          "topics": [
            "0xda9fa7c1b00402c17d0161b249b1ab8bbec047c5a52207b9c112deffd817036b",
            "0x000000000000000000000000e752c55acabc5f745ab36a0993bf35c6555b60e4",
            "0x000000000000000000000000fcaedd04acd307405d2e1ff40fc89948701421a0",
            "0x000000000000000000000000f969aee60879c54baaed9f3ed26147db216fd664"
          ],
          "data": "0x000000000000000000000000ffffffffffffffffffffffffffffffffffffffff0000000000000000000000000000000000000000000000000000ffffffffffff",
          "blockHash": "0x4ee4c159aee4145513701a6c205f8ba5208e68637aa8b4364400d147fed63d05",
          "blockNumber": "0x2cd50fe",
          "blockTimestamp": "0x69bafe4a",
          "transactionHash": "0xc0ad94043495591fcba761762901346abbe3f09e790be57eaa27cb64c4cae489",
          "transactionIndex": "0x9",
          "logIndex": "0x7",
          "removed": false
        }
      ],
      "logsBloom": "0x00010000000000000000000000000000040000000000000000000000000000000000000000000000000000000000000000000000000000000000000000080000000000000000000000000000000000000000000000000000000000001000000000000000000000000000000000008000000000000040010000000000000000000020000000000000000000000000000000000000000000000000000000000000000000000000000800010000000000000000000000000000000000080000000000000000000000000000000000000000000000008000000040000000000000000000000000000000000000000000000000000000000000000000000000002400",
      "type": "0x2",
      "transactionHash": "0xc0ad94043495591fcba761762901346abbe3f09e790be57eaa27cb64c4cae489",
      "transactionIndex": "0x9",
      "blockHash": "0x4ee4c159aee4145513701a6c205f8ba5208e68637aa8b4364400d147fed63d05",
      "blockNumber": "0x2cd50fe",
      "gasUsed": "0xbaca",
      "effectiveGasPrice": "0x7a121",
      "blobGasUsed": "0xa8c0",
      "from": "0xe752c55acabc5f745ab36a0993bf35c6555b60e4",
      "to": "0x000000000022d473030f116ddee9f6b43ac78ba3",
      "contractAddress": null,
      "daFootprintGasScalar": "0x190",
      "l1BaseFeeScalar": "0x7d0",
      "l1BlobBaseFee": "0x1",
      "l1BlobBaseFeeScalar": "0xdbba0",
      "l1Fee": "0x88",
      "l1GasPrice": "0xb",
      "l1GasUsed": "0x6cd"
    },
    {
      "status": "0x1",
      "cumulativeGasUsed": "0x105e22",
      "logs": [
        {
          "address": "0xf969aee60879c54baaed9f3ed26147db216fd664",
          "topics": [
            "0xddf252ad1be2c89b69c2b068fc378daa952ba7f163c4a11628f55a4df523b3ef",
            "0x0000000000000000000000000000000000000000000000000000000000000000",
            "0x000000000000000000000000e752c55acabc5f745ab36a0993bf35c6555b60e4",
            "0x0000000000000000000000000000000000000000000000000000000000001c49"
          ],
          "data": "0x",
          "blockHash": "0x4ee4c159aee4145513701a6c205f8ba5208e68637aa8b4364400d147fed63d05",
          "blockNumber": "0x2cd50fe",
          "blockTimestamp": "0x69bafe4a",
          "transactionHash": "0x38ad4d751091aa74d87d4c5f187725f3bf6b9e8f8b7295091ccbd26a3c071218",
          "transactionIndex": "0xa",
          "logIndex": "0x8",
          "removed": false
        },
        {
          "address": "0x00b036b58a818b1bc34d502d3fe730db729e62ac",
          "topics": [
            "0xf208f4912782fd25c7f114ca3723a2d5dd6f3bcc3ac8db5af63baa85f711d5ec",
            "0xdad729259465ba6db551f3f95506d3425babed2ff48b2eaf4d81c07883260685",
            "0x000000000000000000000000f969aee60879c54baaed9f3ed26147db216fd664"
          ],
          "data": "0x000000000000000000000000000000000000000000000000000000000002f760000000000000000000000000000000000000000000000000000000000003260400000000000000000000000000000000000000000000000000009ef5d279d7d80000000000000000000000000000000000000000000000000000000000001c49",
          "blockHash": "0x4ee4c159aee4145513701a6c205f8ba5208e68637aa8b4364400d147fed63d05",
          "blockNumber": "0x2cd50fe",
          "blockTimestamp": "0x69bafe4a",
          "transactionHash": "0x38ad4d751091aa74d87d4c5f187725f3bf6b9e8f8b7295091ccbd26a3c071218",
          "transactionIndex": "0xa",
          "logIndex": "0x9",
          "removed": false
        },
        {
          "address": "0x25dfb92b22c873518e28a26b0febf681b7f99872",
          "topics": [
            "0xddf252ad1be2c89b69c2b068fc378daa952ba7f163c4a11628f55a4df523b3ef",
            "0x000000000000000000000000e752c55acabc5f745ab36a0993bf35c6555b60e4",
            "0x00000000000000000000000000b036b58a818b1bc34d502d3fe730db729e62ac"
          ],
          "data": "0x00000000000000000000000000000000000000000000000000000000793ddc18",
          "blockHash": "0x4ee4c159aee4145513701a6c205f8ba5208e68637aa8b4364400d147fed63d05",
          "blockNumber": "0x2cd50fe",
          "blockTimestamp": "0x69bafe4a",
          "transactionHash": "0x38ad4d751091aa74d87d4c5f187725f3bf6b9e8f8b7295091ccbd26a3c071218",
          "transactionIndex": "0xa",
          "logIndex": "0xa",
          "removed": false
        },
        {
          "address": "0xfcaedd04acd307405d2e1ff40fc89948701421a0",
          "topics": [
            "0xddf252ad1be2c89b69c2b068fc378daa952ba7f163c4a11628f55a4df523b3ef",
            "0x000000000000000000000000e752c55acabc5f745ab36a0993bf35c6555b60e4",
            "0x00000000000000000000000000b036b58a818b1bc34d502d3fe730db729e62ac"
          ],
          "data": "0x0000000000000000000000000000000000000000000000000de0b6b3a73487db",
          "blockHash": "0x4ee4c159aee4145513701a6c205f8ba5208e68637aa8b4364400d147fed63d05",
          "blockNumber": "0x2cd50fe",
          "blockTimestamp": "0x69bafe4a",
          "transactionHash": "0x38ad4d751091aa74d87d4c5f187725f3bf6b9e8f8b7295091ccbd26a3c071218",
          "transactionIndex": "0xa",
          "logIndex": "0xb",
          "removed": false
        }
      ],
      "logsBloom": "0x0000800000000000000000000000000004000000000000000000000000000000000000000000000000000020000000000000000000100000080000000000000000000000000000000000000a00000000000020000002000000080000100000000000000002000000000000000000c800000000000040000000001031000000000000000001000000000000000008000000000000000000000000000000000000000004000000000000000000000000000800000000000020000000000000000000000002080000000000000000000000000000008000000000000008000020004000000000000000000000000000000004000000000002000000000000002010",
      "type": "0x2",
      "transactionHash": "0x38ad4d751091aa74d87d4c5f187725f3bf6b9e8f8b7295091ccbd26a3c071218",
      "transactionIndex": "0xa",
      "blockHash": "0x4ee4c159aee4145513701a6c205f8ba5208e68637aa8b4364400d147fed63d05",
      "blockNumber": "0x2cd50fe",
      "gasUsed": "0x6b4fe",
      "effectiveGasPrice": "0x7a121",
      "blobGasUsed": "0x19c80",
      "from": "0xe752c55acabc5f745ab36a0993bf35c6555b60e4",
      "to": "0xf969aee60879c54baaed9f3ed26147db216fd664",
      "contractAddress": null,
      "daFootprintGasScalar": "0x190",
      "l1BaseFeeScalar": "0x7d0",
      "l1BlobBaseFee": "0x1",
      "l1BlobBaseFeeScalar": "0xdbba0",
      "l1Fee": "0x14b",
      "l1GasPrice": "0xb",
      "l1GasUsed": "0x1086"
    }
  ],
  "libraries": [],
  "pending": [],
  "returns": {},
  "timestamp": 1773862474560,
  "chain": 1301,
  "commit": "628330a"
}