{
  "transactions": [
    {
      "hash": "0xb57e6758c616988a6c8ab15a29b34b24bf1f5f7b276419c4dbaeb2857bbff836",
      "transactionType": "CALL",
      "contractName": null,
      "contractAddress": "0x46527b7df29d1b858f76e17befa8dfe87606f182",
      "function": "mint(address,uint256)",
      "arguments": [
        "0xe752c55ACAbC5F745AB36a0993bf35c6555B60e4",
        "10000000000000000000"
      ],
      "transaction": {
        "from": "0xe752c55acabc5f745ab36a0993bf35c6555b60e4",
        "to": "0x46527b7df29d1b858f76e17befa8dfe87606f182",
        "gas": "0xc1a6",
        "value": "0x0",
        "input": "0x40c10f19000000000000000000000000e752c55acabc5f745ab36a0993bf35c6555b60e40000000000000000000000000000000000000000000000008ac7230489e80000",
        "nonce": "0xa4",
        "chainId": "0x515"
      },
      "additionalContracts": [],
      "isFixedGasLimit": false
    },
    {
      "hash": "0x2c06992c20428db49ab87033b51500e54baf24678dd4ec253851b5c75425b531",
      "transactionType": "CALL",
      "contractName": null,
      "contractAddress": "0x28fc8245697fb0a2b4b8e8836e7c02a76c823126",
      "function": "mint(address,uint256)",
      "arguments": [
        "0xe752c55ACAbC5F745AB36a0993bf35c6555B60e4",
        "25000000000"
      ],
      "transaction": {
        "from": "0xe752c55acabc5f745ab36a0993bf35c6555b60e4",
        "to": "0x28fc8245697fb0a2b4b8e8836e7c02a76c823126",
        "gas": "0xc183",
        "value": "0x0",
        "input": "0x40c10f19000000000000000000000000e752c55acabc5f745ab36a0993bf35c6555b60e400000000000000000000000000000000000000000000000000000005d21dba00",
        "nonce": "0xa5",
        "chainId": "0x515"
      },
      "additionalContracts": [],
      "isFixedGasLimit": false
    },
    {
      "hash": "0x4fc07f96636cad6d5290132c620f650479bb13f496fdea891bfbc80a22a0427c",
      "transactionType": "CALL",
      "contractName": null,
      "contractAddress": "0x28fc8245697fb0a2b4b8e8836e7c02a76c823126",
      "function": "approve(address,uint256)",
      "arguments": [
        "0x000000000022D473030F116dDEE9F6B43aC78BA3",
        "115792089237316195423570985008687907853269984665640564039457584007913129639935"
      ],
      "transaction": {
        "from": "0xe752c55acabc5f745ab36a0993bf35c6555b60e4",
        "to": "0x28fc8245697fb0a2b4b8e8836e7c02a76c823126",
        "gas": "0x107fc",
        "value": "0x0",
        "input": "0x095ea7b3000000000000000000000000000000000022d473030f116ddee9f6b43ac78ba3ffffffffffffffffffffffffffffffffffffffffffffffffffffffffffffffff",
        "nonce": "0xa6",
        "chainId": "0x515"
      },
      "additionalContracts": [],
      "isFixedGasLimit": false
    },
    {
      "hash": "0x6779eae65c86fe02166f363f19b49b8d9141ce79e0a53e9525fe60bdd1fb0cf1",
      "transactionType": "CALL",
      "contractName": null,
      "contractAddress": "0x46527b7df29d1b858f76e17befa8dfe87606f182",
      "function": "approve(address,uint256)",
      "arguments": [
        "0x000000000022D473030F116dDEE9F6B43aC78BA3",
        "115792089237316195423570985008687907853269984665640564039457584007913129639935"
      ],
      "transaction": {
        "from": "0xe752c55acabc5f745ab36a0993bf35c6555b60e4",
        "to": "0x46527b7df29d1b858f76e17befa8dfe87606f182",
        "gas": "0x107fc",
        "value": "0x0",
        "input": "0x095ea7b3000000000000000000000000000000000022d473030f116ddee9f6b43ac78ba3ffffffffffffffffffffffffffffffffffffffffffffffffffffffffffffffff",
        "nonce": "0xa7",
        "chainId": "0x515"
      },
      "additionalContracts": [],
      "isFixedGasLimit": false
    },
    {
      "hash": "0xa8d61eb73dad63ed515790043502d8c015c86807cbe468b054f8c43a2f7303e4",
      "transactionType": "CALL",
      "contractName": null,
      "contractAddress": "0x000000000022d473030f116ddee9f6b43ac78ba3",
      "function": "approve(address,address,uint160,uint48)",
      "arguments": [
        "0x28fc8245697Fb0a2B4B8e8836E7C02A76C823126",
        "0xf969Aee60879C54bAAed9F3eD26147Db216Fd664",
        "1461501637330902918203684832716283019655932542975",
        "281474976710655"
      ],
      "transaction": {
        "from": "0xe752c55acabc5f745ab36a0993bf35c6555b60e4",
        "to": "0x000000000022d473030f116ddee9f6b43ac78ba3",
        "gas": "0x1112d",
        "value": "0x0",
        "input": "0x87517c4500000000000000000000000028fc8245697fb0a2b4b8e8836e7c02a76c823126000000000000000000000000f969aee60879c54baaed9f3ed26147db216fd664000000000000000000000000ffffffffffffffffffffffffffffffffffffffff0000000000000000000000000000000000000000000000000000ffffffffffff",
        "nonce": "0xa8",
        "chainId": "0x515"
      },
      "additionalContracts": [],
      "isFixedGasLimit": false
    },
    {
      "hash": "0x142413905e1f4064872db4f9f9fe01e9b7bb2c97487837a83ec3738a3172cbbf",
      "transactionType": "CALL",
      "contractName": null,
      "contractAddress": "0x000000000022d473030f116ddee9f6b43ac78ba3",
      "function": "approve(address,address,uint160,uint48)",
      "arguments": [
        "0x46527B7dF29d1B858F76e17BefA8dFe87606F182",
        "0xf969Aee60879C54bAAed9F3eD26147Db216Fd664",
        "1461501637330902918203684832716283019655932542975",
        "281474976710655"
      ],
      "transaction": {
        "from": "0xe752c55acabc5f745ab36a0993bf35c6555b60e4",
        "to": "0x000000000022d473030f116ddee9f6b43ac78ba3",
        "gas": "0x1112d",
        "value": "0x0",
        "input": "0x87517c4500000000000000000000000046527b7df29d1b858f76e17befa8dfe87606f182000000000000000000000000f969aee60879c54baaed9f3ed26147db216fd664000000000000000000000000ffffffffffffffffffffffffffffffffffffffff0000000000000000000000000000000000000000000000000000ffffffffffff",
        "nonce": "0xa9",
        "chainId": "0x515"
      },
      "additionalContracts": [],
      "isFixedGasLimit": false
    },
    {
      "hash": "0x6cc1a3ceb3f88ae3387a36bf0775c432b1a5a8bfc5ce84c4ea61336b1749a1af",
      "transactionType": "CALL",
      "contractName": null,
      "contractAddress": "0xf969aee60879c54baaed9f3ed26147db216fd664",
      "function": "modifyLiquidities(bytes,uint256)",
      "arguments": [
        "0x000000000000000000000000000000000000000000000000000000000000004000000000000000000000000000000000000000000000000000000000000000800000000000000000000000000000000000000000000000000000000000000002020d00000000000000000000000000000000000000000000000000000000000000000000000000000000000000000000000000000000000000000000000000020000000000000000000000000000000000000000000000000000000000000040000000000000000000000000000000000000000000000000000000000000020000000000000000000000000000000000000000000000000000000000000001a000000000000000000000000028fc8245697fb0a2b4b8e8836e7c02a76c82312600000000000000000000000046527b7df29d1b858f76e17befa8dfe87606f1820000000000000000000000000000000000000000000000000000000000800000000000000000000000000000000000000000000000000000000000000000003c000000000000000000000000b7056bff4178b8cfadebf4ab9baa9901524ce0c8000000000000000000000000000000000000000000000000000000000002f7240000000000000000000000000000000000000000000000000000000000032604000000000000000000000000000000000000000000000000000028ac80bff62c0000000000000000000000000000000000000000000000000000000135f1b4000000000000000000000000000000000000000000000000000f43fc2c04ee0000000000000000000000000000e752c55acabc5f745ab36a0993bf35c6555b60e400000000000000000000000000000000000000000000000000000000000001800000000000000000000000000000000000000000000000000000000000000000000000000000000000000000000000000000000000000000000000000000004000000000000000000000000028fc8245697fb0a2b4b8e8836e7c02a76c82312600000000000000000000000046527b7df29d1b858f76e17befa8dfe87606f182",
        "1773927038"
      ],
      "transaction": {
        "from": "0xe752c55acabc5f745ab36a0993bf35c6555b60e4",
        "to": "0xf969aee60879c54baaed9f3ed26147db216fd664",
        "gas": "0x8e764",
        "value": "0x0",
        "input": "0xdd46508f00000000000000000000000000000000000000000000000000000000000000400000000000000000000000000000000000000000000000000000000069bbfa7e0000000000000000000000000000000000000000000000000000000000000300000000000000000000000000000000000000000000000000000000000000004000000000000000000000000000000000000000000000000000000000000000800000000000000000000000000000000000000000000000000000000000000002020d00000000000000000000000000000000000000000000000000000000000000000000000000000000000000000000000000000000000000000000000000020000000000000000000000000000000000000000000000000000000000000040000000000000000000000000000000000000000000000000000000000000020000000000000000000000000000000000000000000000000000000000000001a000000000000000000000000028fc8245697fb0a2b4b8e8836e7c02a76c82312600000000000000000000000046527b7df29d1b858f76e17befa8dfe87606f1820000000000000000000000000000000000000000000000000000000000800000000000000000000000000000000000000000000000000000000000000000003c000000000000000000000000b7056bff4178b8cfadebf4ab9baa9901524ce0c8000000000000000000000000000000000000000000000000000000000002f7240000000000000000000000000000000000000000000000000000000000032604000000000000000000000000000000000000000000000000000028ac80bff62c0000000000000000000000000000000000000000000000000000000135f1b4000000000000000000000000000000000000000000000000000f43fc2c04ee0000000000000000000000000000e752c55acabc5f745ab36a0993bf35c6555b60e400000000000000000000000000000000000000000000000000000000000001800000000000000000000000000000000000000000000000000000000000000000000000000000000000000000000000000000000000000000000000000000004000000000000000000000000028fc8245697fb0a2b4b8e8836e7c02a76c82312600000000000000000000000046527b7df29d1b858f76e17befa8dfe87606f182",
        "nonce": "0xaa",
        "chainId": "0x515"
      },
      "additionalContracts": [],
      "isFixedGasLimit": false
    }
  ],
  "receipts": [
    {
      "status": "0x1",
      "cumulativeGasUsed": "0x5deb9",
      "logs": [
        {
          "address": "0x46527b7df29d1b858f76e17befa8dfe87606f182",
          "topics": [
            "0xddf252ad1be2c89b69c2b068fc378daa952ba7f163c4a11628f55a4df523b3ef",
            "0x0000000000000000000000000000000000000000000000000000000000000000",
            "0x000000000000000000000000e752c55acabc5f745ab36a0993bf35c6555b60e4"
          ],
          "data": "0x0000000000000000000000000000000000000000000000008ac7230489e80000",
          "blockHash": "0x480c046893a67467052d65e55a45a9402494307d8ffddb813de899d94f997cab",
          "blockNumber": "0x2ce4d0f",
          "blockTimestamp": "0x69bbfa5b",
          "transactionHash": "0xb57e6758c616988a6c8ab15a29b34b24bf1f5f7b276419c4dbaeb2857bbff836",
          "transactionIndex": "0x5",
          "logIndex": "0x3",
          "removed": false
        }
      ],
      "logsBloom": "0x00000000000000000000000000000000040000000000000000000000000000000000000000040000000000000000000000000000000000000000000000000000000000000000040000000008000000000000010000000000000000000000000000000000020000000000000000008800000000000000000000000010000000000000000000000000000000000000000000000000000000000000000000000000000000000000000000000000000000000000000000000000000000000000000000000002000000000000000000000000000000008000000000000000000020000000000000000000000000000000000000000000000000000000000000000000",
      "type": "0x2",
      "transactionHash": "0xb57e6758c616988a6c8ab15a29b34b24bf1f5f7b276419c4dbaeb2857bbff836",
      "transactionIndex": "0x5",
      "blockHash": "0x480c046893a67467052d65e55a45a9402494307d8ffddb813de899d94f997cab",
      "blockNumber": "0x2ce4d0f",
      "gasUsed": "0x8469",
      "effectiveGasPrice": "0x7a121",
      "blobGasUsed": "0x9c40",
      "from": "0xe752c55acabc5f745ab36a0993bf35c6555b60e4",
      "to": "0x46527b7df29d1b858f76e17befa8dfe87606f182",
      "contractAddress": null,
      "daFootprintGasScalar": "0x190",
      "l1BaseFeeScalar": "0x7d0",
      "l1BlobBaseFee": "0x1",
      "l1BlobBaseFeeScalar": "0xdbba0",
      "l1Fee": "0x80",
      "l1GasPrice": "0xc",
      "l1GasUsed": "0x640"
    },
    {
      "status": "0x1",
      "cumulativeGasUsed": "0x6630a",
      "logs": [
        {
          "address": "0x28fc8245697fb0a2b4b8e8836e7c02a76c823126",
          "topics": [
            "0xddf252ad1be2c89b69c2b068fc378daa952ba7f163c4a11628f55a4df523b3ef",
            "0x0000000000000000000000000000000000000000000000000000000000000000",
            "0x000000000000000000000000e752c55acabc5f745ab36a0993bf35c6555b60e4"
          ],
          "data": "0x00000000000000000000000000000000000000000000000000000005d21dba00",
          "blockHash": "0x480c046893a67467052d65e55a45a9402494307d8ffddb813de899d94f997cab",
          "blockNumber": "0x2ce4d0f",
          "blockTimestamp": "0x69bbfa5b",
          "transactionHash": "0x2c06992c20428db49ab87033b51500e54baf24678dd4ec253851b5c75425b531",
          "transactionIndex": "0x6",
          "logIndex": "0x4",
          "removed": false
        }
      ],
      "logsBloom": "0x00000000001000000000000000000000040000000000000000000000000000000000000000000000000000000000000000000000000000000000000000000000000000000000000000000008000000000000000000000000000000000000000000000000020000000000000000008800000000000000000000000010000000000000000000000000000000000000000000000000000000000000000000000000000000000000000080000000000000000000000000000000200000000000000000000002000000000000000000000000000000008000000000000000000020000000000000000000000000000000000000000000000000000000000000000000",
      "type": "0x2",
      "transactionHash": "0x2c06992c20428db49ab87033b51500e54baf24678dd4ec253851b5c75425b531",
      "transactionIndex": "0x6",
      "blockHash": "0x480c046893a67467052d65e55a45a9402494307d8ffddb813de899d94f997cab",
      "blockNumber": "0x2ce4d0f",
      "gasUsed": "0x8451",
      "effectiveGasPrice": "0x7a121",
      "blobGasUsed": "0x9c40",
      "from": "0xe752c55acabc5f745ab36a0993bf35c6555b60e4",
      "to": "0x28fc8245697fb0a2b4b8e8836e7c02a76c823126",
      "contractAddress": null,
      "daFootprintGasScalar": "0x190",
      "l1BaseFeeScalar": "0x7d0",
      "l1BlobBaseFee": "0x1",
      "l1BlobBaseFeeScalar": "0xdbba0",
      "l1Fee": "0x80",
      "l1GasPrice": "0xc",
      "l1GasUsed": "0x640"
    },
    {
      "status": "0x1",
      "cumulativeGasUsed": "0x32e79",
      "logs": [
        {
          "address": "0x28fc8245697fb0a2b4b8e8836e7c02a76c823126",
          "topics": [
            "0x8c5be1e5ebec7d5bd14f71427d1e84f3dd0314c0f7b2291e5b200ac8c7c3b925",
            "0x000000000000000000000000e752c55acabc5f745ab36a0993bf35c6555b60e4",
            "0x000000000000000000000000000000000022d473030f116ddee9f6b43ac78ba3"
          ],
          "data": "0xffffffffffffffffffffffffffffffffffffffffffffffffffffffffffffffff",
          "blockHash": "0x0000000000000000000000000000000000000000000000000000000000000000",
          "blockNumber": "0x2ce4d10",
          "blockTimestamp": "0x69bbfa5c",
          "transactionHash": "0x142413905e1f4064872db4f9f9fe01e9b7bb2c97487837a83ec3738a3172cbbf",
          "transactionIndex": "0x3",
          "logIndex": "0x1",
          "removed": false
        }
      ],
      "logsBloom": "0x00000000001000000000000000000000040000000000000000000000000000000000000000000000000000000000000000000000800000000000000000200000000000000000000000004000000000000000000000000800000000000000000000000000000000000000000000008000000000000000000000000000000000000000000000000000000000000000000000000000000000000000000000000000020000000000000080000000000000000000000000000000200000000000000000000000000000000000000000000000000000008000000000000000000000000010000000000000000000000000000000000000000000000000000000000000",
      "type": "0x2",
      "transactionHash": "0x142413905e1f4064872db4f9f9fe01e9b7bb2c97487837a83ec3738a3172cbbf",
      "transactionIndex": "0x3",
      "blockHash": "0x0000000000000000000000000000000000000000000000000000000000000000",
      "blockNumber": "0x2ce4d10",
      "gasUsed": "0xb481",
      "effectiveGasPrice": "0x7a121",
      "blobGasUsed": "0x9c40",
      "from": "0xe752c55acabc5f745ab36a0993bf35c6555b60e4",
      "to": "0x28fc8245697fb0a2b4b8e8836e7c02a76c823126",
      "contractAddress": null,
      "daFootprintGasScalar": "0x190",
      "l1BaseFeeScalar": "0x7d0",
      "l1BlobBaseFee": "0x1",
      "l1BlobBaseFeeScalar": "0xdbba0",
      "l1Fee": "0xb2",
      "l1GasPrice": "0xc",
      "l1GasUsed": "0x640"
    },
    {
      "status": "0x1",
      "cumulativeGasUsed": "0x3e2fa",
      "logs": [
        {
          "address": "0x46527b7df29d1b858f76e17befa8dfe87606f182",
          "topics": [
            "0x8c5be1e5ebec7d5bd14f71427d1e84f3dd0314c0f7b2291e5b200ac8c7c3b925",
            "0x000000000000000000000000e752c55acabc5f745ab36a0993bf35c6555b60e4",
            "0x000000000000000000000000000000000022d473030f116ddee9f6b43ac78ba3"
          ],
          "data": "0xffffffffffffffffffffffffffffffffffffffffffffffffffffffffffffffff",
          "blockHash": "0x0000000000000000000000000000000000000000000000000000000000000000",
          "blockNumber": "0x2ce4d10",
          "blockTimestamp": "0x69bbfa5c",
          "transactionHash": "0x6cc1a3ceb3f88ae3387a36bf0775c432b1a5a8bfc5ce84c4ea61336b1749a1af",
          "transactionIndex": "0x4",
          "logIndex": "0x2",
          "removed": false
        }
      ],
      "logsBloom": "0x00000000000000000000000000000000040000000000000000000000000000000000000000040000000000000000000000000000800000000000000000200000000000000000040000004000000000000000010000000800000000000000000000000000000000000000000000008000000000000000000000000000000000000000000000000000000000000000000000000000000000000000000000000000020000000000000000000000000000000000000000000000000000000000000000000000000000000000000000000000000000008000000000000000000000000010000000000000000000000000000000000000000000000000000000000000",
      "type": "0x2",
      "transactionHash": "0x6cc1a3ceb3f88ae3387a36bf0775c432b1a5a8bfc5ce84c4ea61336b1749a1af",
      "transactionIndex": "0x4",
      "blockHash": "0x0000000000000000000000000000000000000000000000000000000000000000",
      "blockNumber": "0x2ce4d10",
      "gasUsed": "0xb481",
      "effectiveGasPrice": "0x7a121",
      "blobGasUsed": "0x9c40",
      "from": "0xe752c55acabc5f745ab36a0993bf35c6555b60e4",
      "to": "0x46527b7df29d1b858f76e17befa8dfe87606f182",
      "contractAddress": null,
      "daFootprintGasScalar": "0x190",
      "l1BaseFeeScalar": "0x7d0",
      "l1BlobBaseFee": "0x1",
      "l1BlobBaseFeeScalar": "0xdbba0",
      "l1Fee": "0xb2",
      "l1GasPrice": "0xc",
      "l1GasUsed": "0x640"
    },
    {
      "status": "0x1",
      "cumulativeGasUsed": "0x49dc4",
      "logs": [
        {
          "address": "0x000000000022d473030f116ddee9f6b43ac78ba3",
          "topics": [
            "0xda9fa7c1b00402c17d0161b249b1ab8bbec047c5a52207b9c112deffd817036b",
            "0x000000000000000000000000e752c55acabc5f745ab36a0993bf35c6555b60e4",
            "0x00000000000000000000000028fc8245697fb0a2b4b8e8836e7c02a76c823126",
            "0x000000000000000000000000f969aee60879c54baaed9f3ed26147db216fd664"
          ],
          "data": "0x000000000000000000000000ffffffffffffffffffffffffffffffffffffffff0000000000000000000000000000000000000000000000000000ffffffffffff",
          "blockHash": "0x0000000000000000000000000000000000000000000000000000000000000000",
          "blockNumber": "0x2ce4d10",
          "blockTimestamp": "0x69bbfa5c",
          "transactionHash": "0xa8d61eb73dad63ed515790043502d8c015c86807cbe468b054f8c43a2f7303e4",
          "transactionIndex": "0x5",
          "logIndex": "0x3",
          "removed": false
        }
      ],
      "logsBloom": "0x00010000000000000000000000000000040000000000000000000000000000000000000000000000000000000000000000000000000000000000000000080000000000000000000000000000000000000000000200000000000000001000000000000000000000000000000000008000000000000040000000000000000000000020000000000000000000000000000010000000000000000000000000000000000000000000000000000000000000000000000000000000000000080000000000000000000000000000000000000000000000008000000040000000000000000000000000000000000000000800000000000000000000000000000000002400",
      "type": "0x2",
      "transactionHash": "0xa8d61eb73dad63ed515790043502d8c015c86807cbe468b054f8c43a2f7303e4",
      "transactionIndex": "0x5",
      "blockHash": "0x0000000000000000000000000000000000000000000000000000000000000000",
      "blockNumber": "0x2ce4d10",
      "gasUsed": "0xbaca",
      "effectiveGasPrice": "0x7a121",
      "blobGasUsed": "0xaa50",
      "from": "0xe752c55acabc5f745ab36a0993bf35c6555b60e4",
      "to": "0x000000000022d473030f116ddee9f6b43ac78ba3",
      "contractAddress": null,
      "daFootprintGasScalar": "0x190",
      "l1BaseFeeScalar": "0x7d0",
      "l1BlobBaseFee": "0x1",
      "l1BlobBaseFeeScalar": "0xdbba0",
      "l1Fee": "0xb2",
      "l1GasPrice": "0xc",
      "l1GasUsed": "0x6da"
    },
    {
      "status": "0x1",
      "cumulativeGasUsed": "0x5588e",
      "logs": [
        {
          "address": "0x000000000022d473030f116ddee9f6b43ac78ba3",
          "topics": [
            "0xda9fa7c1b00402c17d0161b249b1ab8bbec047c5a52207b9c112deffd817036b",
            "0x000000000000000000000000e752c55acabc5f745ab36a0993bf35c6555b60e4",
            "0x00000000000000000000000046527b7df29d1b858f76e17befa8dfe87606f182",
            "0x000000000000000000000000f969aee60879c54baaed9f3ed26147db216fd664"
          ],
          "data": "0x000000000000000000000000ffffffffffffffffffffffffffffffffffffffff0000000000000000000000000000000000000000000000000000ffffffffffff",
          "blockHash": "0x0000000000000000000000000000000000000000000000000000000000000000",
          "blockNumber": "0x2ce4d10",
          "blockTimestamp": "0x69bbfa5c",
          "transactionHash": "0x6779eae65c86fe02166f363f19b49b8d9141ce79e0a53e9525fe60bdd1fb0cf1",
          "transactionIndex": "0x6",
          "logIndex": "0x4",
          "removed": false
        }
      ],
      "logsBloom": "0x00010000000000000000000000000000040000000000000000000000000000000000000000000000000000000000000000000000000000000000000000080000000000000000000000000000000000000000000000000000000000001000000000000000000000000000000000008000001000000040000000080000000000000020000000000000000000000000000000000000000000000000000000000000000000000000000000000000000000000000000008000000000000080000000000000000000000000000000000000000000000008000000040000000000000000000000000000000000000000000000000000000000000000000000000002400",
      "type": "0x2",
      "transactionHash": "0x6779eae65c86fe02166f363f19b49b8d9141ce79e0a53e9525fe60bdd1fb0cf1",
      "transactionIndex": "0x6",
      "blockHash": "0x0000000000000000000000000000000000000000000000000000000000000000",
      "blockNumber": "0x2ce4d10",
      "gasUsed": "0xbaca",
      "effectiveGasPrice": "0x7a121",
      "blobGasUsed": "0xaa50",
      "from": "0xe752c55acabc5f745ab36a0993bf35c6555b60e4",
      "to": "0x000000000022d473030f116ddee9f6b43ac78ba3",
      "contractAddress": null,
      "daFootprintGasScalar": "0x190",
      "l1BaseFeeScalar": "0x7d0",
      "l1BlobBaseFee": "0x1",
      "l1BlobBaseFeeScalar": "0xdbba0",
      "l1Fee": "0xb2",
      "l1GasPrice": "0xc",
      "l1GasUsed": "0x6da"
    },
    {
      "status": "0x1",
      "cumulativeGasUsed": "0xbcacc",
      "logs": [
        {
          "address": "0xf969aee60879c54baaed9f3ed26147db216fd664",
          "topics": [
            "0xddf252ad1be2c89b69c2b068fc378daa952ba7f163c4a11628f55a4df523b3ef",
            "0x0000000000000000000000000000000000000000000000000000000000000000",
            "0x000000000000000000000000e752c55acabc5f745ab36a0993bf35c6555b60e4",
            "0x0000000000000000000000000000000000000000000000000000000000001c5d"
          ],
          "data": "0x",
          "blockHash": "0x0000000000000000000000000000000000000000000000000000000000000000",
          "blockNumber": "0x2ce4d10",
          "blockTimestamp": "0x69bbfa5c",
          "transactionHash": "0x4fc07f96636cad6d5290132c620f650479bb13f496fdea891bfbc80a22a0427c",
          "transactionIndex": "0x7",
          "logIndex": "0x5",
          "removed": false
        },
        {
          "address": "0x00b036b58a818b1bc34d502d3fe730db729e62ac",
          "topics": [
            "0xf208f4912782fd25c7f114ca3723a2d5dd6f3bcc3ac8db5af63baa85f711d5ec",
            "0x4e127ac6ac33037cd47f94bc2a7da84fbfd7a0169fd44f370569ec544d93e885",
            "0x000000000000000000000000f969aee60879c54baaed9f3ed26147db216fd664"
          ],
          "data": "0x000000000000000000000000000000000000000000000000000000000002f7240000000000000000000000000000000000000000000000000000000000032604000000000000000000000000000000000000000000000000000028ac80bff62c0000000000000000000000000000000000000000000000000000000000001c5d",
          "blockHash": "0x0000000000000000000000000000000000000000000000000000000000000000",
          "blockNumber": "0x2ce4d10",
          "blockTimestamp": "0x69bbfa5c",
          "transactionHash": "0x4fc07f96636cad6d5290132c620f650479bb13f496fdea891bfbc80a22a0427c",
          "transactionIndex": "0x7",
          "logIndex": "0x6",
          "removed": false
        },
        {
          "address": "0x28fc8245697fb0a2b4b8e8836e7c02a76c823126",
          "topics": [
            "0xddf252ad1be2c89b69c2b068fc378daa952ba7f163c4a11628f55a4df523b3ef",
            "0x000000000000000000000000e752c55acabc5f745ab36a0993bf35c6555b60e4",
            "0x00000000000000000000000000b036b58a818b1bc34d502d3fe730db729e62ac"
          ],
          "data": "0x000000000000000000000000000000000000000000000000000000001f05ca57",
          "blockHash": "0x0000000000000000000000000000000000000000000000000000000000000000",
          "blockNumber": "0x2ce4d10",
          "blockTimestamp": "0x69bbfa5c",
          "transactionHash": "0x4fc07f96636cad6d5290132c620f650479bb13f496fdea891bfbc80a22a0427c",
          "transactionIndex": "0x7",
          "logIndex": "0x7",
          "removed": false
        },
        {
          "address": "0x46527b7df29d1b858f76e17befa8dfe87606f182",
          "topics": [
            "0xddf252ad1be2c89b69c2b068fc378daa952ba7f163c4a11628f55a4df523b3ef",
            "0x000000000000000000000000e752c55acabc5f745ab36a0993bf35c6555b60e4",
            "0x00000000000000000000000000b036b58a818b1bc34d502d3fe730db729e62ac"
          ],
          "data": "0x0000000000000000000000000000000000000000000000000394f78114864387",
          "blockHash": "0x0000000000000000000000000000000000000000000000000000000000000000",
          "blockNumber": "0x2ce4d10",
          "blockTimestamp": "0x69bbfa5c",
          "transactionHash": "0x4fc07f96636cad6d5290132c620f650479bb13f496fdea891bfbc80a22a0427c",
          "transactionIndex": "0x7",
          "logIndex": "0x8",
          "removed": false
        }
      ],
      "logsBloom": "0x000080000010000000000000000000000400000000000000000000000000000000000000000c000000000000000000000000000000100000000000800000000000000000000004000000000800000000000001000000000000000000100000000000000002000000000000000000c800000000000040000000000010000000000000000001000000000000000008000000000000000000000000000000000000000004100040000080000000000200000800000000000020200000000000000000000002080000000000000000000000000000008000000000000000000020004000000000000000000000000000000004000000000002000000000000002010",
      "type": "0x2",
      "transactionHash": "0x4fc07f96636cad6d5290132c620f650479bb13f496fdea891bfbc80a22a0427c",
      "transactionIndex": "0x7",
      "blockHash": "0x0000000000000000000000000000000000000000000000000000000000000000",
      "blockNumber": "0x2ce4d10",
      "gasUsed": "0x6723e",
      "effectiveGasPrice": "0x7a121",
      "blobGasUsed": "0x19fa0",
      "from": "0xe752c55acabc5f745ab36a0993bf35c6555b60e4",
      "to": "0xf969aee60879c54baaed9f3ed26147db216fd664",
      "contractAddress": null,
      "daFootprintGasScalar": "0x190",
      "l1BaseFeeScalar": "0x7d0",
      "l1BlobBaseFee": "0x1",
      "l1BlobBaseFeeScalar": "0xdbba0",
      "l1Fee": "0xb2",
      "l1GasPrice": "0xc",
      "l1GasUsed": "0x10ae"
    }
  ],
  "libraries": [],
  "pending": [],
  "returns": {},
  "timestamp": 1773927003770,
  "chain": 1301,
  "commit": "db9b2f7"
}