{
  "transactions": [
    {
      "hash": "0x749ac7f9c3e6d41cfd86e24b5d066ec0a42bb5e4c6d1559c1ce630c2ddd647d5",
      "transactionType": "CALL",
      "contractName": null,
      "contractAddress": "0x330fac6bd4e4c2279cdbe29e9642d0ca53342f86",
      "function": "mint(address,uint256)",
      "arguments": [
        "0xe752c55ACAbC5F745AB36a0993bf35c6555B60e4",
        "10000000000000000000"
      ],
      "transaction": {
        "from": "0xe752c55acabc5f745ab36a0993bf35c6555b60e4",
        "to": "0x330fac6bd4e4c2279cdbe29e9642d0ca53342f86",
        "gas": "0xc1a6",
        "value": "0x0",
        "input": "0x40c10f19000000000000000000000000e752c55acabc5f745ab36a0993bf35c6555b60e40000000000000000000000000000000000000000000000008ac7230489e80000",
        "nonce": "0xf3",
        "chainId": "0x515"
      },
      "additionalContracts": [],
      "isFixedGasLimit": false
    },
    {
      "hash": "0xae996f1bc014794267df3017f01c3227a6f38f9f9be92bf7c13ab77b07b9f5ae",
      "transactionType": "CALL",
      "contractName": null,
      "contractAddress": "0xf39d83f111544becba071814ba3bb87ce1f24491",
      "function": "mint(address,uint256)",
      "arguments": [
        "0xe752c55ACAbC5F745AB36a0993bf35c6555B60e4",
        "25000000000"
      ],
      "transaction": {
        "from": "0xe752c55acabc5f745ab36a0993bf35c6555b60e4",
        "to": "0xf39d83f111544becba071814ba3bb87ce1f24491",
        "gas": "0xc183",
        "value": "0x0",
        "input": "0x40c10f19000000000000000000000000e752c55acabc5f745ab36a0993bf35c6555b60e400000000000000000000000000000000000000000000000000000005d21dba00",
        "nonce": "0xf4",
        "chainId": "0x515"
      },
      "additionalContracts": [],
      "isFixedGasLimit": false
    },
    {
      "hash": "0x670d917c6c88cd1ed36a5200a7e558392514c2d2ab2e23ed31541dff40089412",
      "transactionType": "CALL",
      "contractName": null,
      "contractAddress": "0x330fac6bd4e4c2279cdbe29e9642d0ca53342f86",
      "function": "approve(address,uint256)",
      "arguments": [
        "0x000000000022D473030F116dDEE9F6B43aC78BA3",
        "115792089237316195423570985008687907853269984665640564039457584007913129639935"
      ],
      "transaction": {
        "from": "0xe752c55acabc5f745ab36a0993bf35c6555b60e4",
        "to": "0x330fac6bd4e4c2279cdbe29e9642d0ca53342f86",
        "gas": "0x107fc",
        "value": "0x0",
        "input": "0x095ea7b3000000000000000000000000000000000022d473030f116ddee9f6b43ac78ba3ffffffffffffffffffffffffffffffffffffffffffffffffffffffffffffffff",
        "nonce": "0xf5",
        "chainId": "0x515"
      },
      "additionalContracts": [],
      "isFixedGasLimit": false
    },
    {
      "hash": "0xbe81411ec7c1d01d6a2cc484c61cd3b2d42d3d18797d3ce9f1896021b1b3d640",
      "transactionType": "CALL",
      "contractName": null,
      "contractAddress": "0xf39d83f111544becba071814ba3bb87ce1f24491",
      "function": "approve(address,uint256)",
      "arguments": [
        "0x000000000022D473030F116dDEE9F6B43aC78BA3",
        "115792089237316195423570985008687907853269984665640564039457584007913129639935"
      ],
      "transaction": {
        "from": "0xe752c55acabc5f745ab36a0993bf35c6555b60e4",
        "to": "0xf39d83f111544becba071814ba3bb87ce1f24491",
        "gas": "0x107fc",
        "value": "0x0",
        "input": "0x095ea7b3000000000000000000000000000000000022d473030f116ddee9f6b43ac78ba3ffffffffffffffffffffffffffffffffffffffffffffffffffffffffffffffff",
        "nonce": "0xf6",
        "chainId": "0x515"
      },
      "additionalContracts": [],
      "isFixedGasLimit": false
    },
    {
      "hash": "0xfc49617feaff3f91be66e8ced15f4a911808548b692e769b08ee283bb39b69b3",
      "transactionType": "CALL",
      "contractName": null,
      "contractAddress": "0x000000000022d473030f116ddee9f6b43ac78ba3",
      "function": "approve(address,address,uint160,uint48)",
      "arguments": [
        "0x330FAc6bd4e4c2279CdBe29E9642d0CA53342f86",
        "0xf969Aee60879C54bAAed9F3eD26147Db216Fd664",
        "1461501637330902918203684832716283019655932542975",
        "281474976710655"
      ],
      "transaction": {
        "from": "0xe752c55acabc5f745ab36a0993bf35c6555b60e4",
        "to": "0x000000000022d473030f116ddee9f6b43ac78ba3",
        "gas": "0x1112d",
        "value": "0x0",
        "input": "0x87517c45000000000000000000000000330fac6bd4e4c2279cdbe29e9642d0ca53342f86000000000000000000000000f969aee60879c54baaed9f3ed26147db216fd664000000000000000000000000ffffffffffffffffffffffffffffffffffffffff0000000000000000000000000000000000000000000000000000ffffffffffff",
        "nonce": "0xf7",
        "chainId": "0x515"
      },
      "additionalContracts": [],
      "isFixedGasLimit": false
    },
    {
      "hash": "0xcf79c486316123ccbf85f74a26557e168fd48a6486d4266eb943d84d56a561f2",
      "transactionType": "CALL",
      "contractName": null,
      "contractAddress": "0x000000000022d473030f116ddee9f6b43ac78ba3",
      "function": "approve(address,address,uint160,uint48)",
      "arguments": [
        "0xF39d83F111544beCba071814ba3Bb87CE1F24491",
        "0xf969Aee60879C54bAAed9F3eD26147Db216Fd664",
        "1461501637330902918203684832716283019655932542975",
        "281474976710655"
      ],
      "transaction": {
        "from": "0xe752c55acabc5f745ab36a0993bf35c6555b60e4",
        "to": "0x000000000022d473030f116ddee9f6b43ac78ba3",
        "gas": "0x1112d",
        "value": "0x0",
        "input": "0x87517c45000000000000000000000000f39d83f111544becba071814ba3bb87ce1f24491000000000000000000000000f969aee60879c54baaed9f3ed26147db216fd664000000000000000000000000ffffffffffffffffffffffffffffffffffffffff0000000000000000000000000000000000000000000000000000ffffffffffff",
        "nonce": "0xf8",
        "chainId": "0x515"
      },
      "additionalContracts": [],
      "isFixedGasLimit": false
    },
    {
      "hash": "0xc52c1cc66c5c863361a95bc4e870167135de266926dabfa12070ee43a4775b38",
      "transactionType": "CALL",
      "contractName": null,
      "contractAddress": "0xf969aee60879c54baaed9f3ed26147db216fd664",
      "function": "modifyLiquidities(bytes,uint256)",
      "arguments": [
        "0x000000000000000000000000000000000000000000000000000000000000004000000000000000000000000000000000000000000000000000000000000000800000000000000000000000000000000000000000000000000000000000000002020d00000000000000000000000000000000000000000000000000000000000000000000000000000000000000000000000000000000000000000000000000020000000000000000000000000000000000000000000000000000000000000040000000000000000000000000000000000000000000000000000000000000020000000000000000000000000000000000000000000000000000000000000001a0000000000000000000000000330fac6bd4e4c2279cdbe29e9642d0ca53342f86000000000000000000000000f39d83f111544becba071814ba3bb87ce1f244910000000000000000000000000000000000000000000000000000000000800000000000000000000000000000000000000000000000000000000000000000003c0000000000000000000000009aadcd5a16093e382be24634f34df64c721c60c8fffffffffffffffffffffffffffffffffffffffffffffffffffffffffffcd9fcfffffffffffffffffffffffffffffffffffffffffffffffffffffffffffd08dc000000000000000000000000000000000000000000000000000028ac80bff62c0000000000000000000000000000000000000000000000000f43fc2c04ee00000000000000000000000000000000000000000000000000000000000135f1b400000000000000000000000000e752c55acabc5f745ab36a0993bf35c6555b60e4000000000000000000000000000000000000000000000000000000000000018000000000000000000000000000000000000000000000000000000000000000000000000000000000000000000000000000000000000000000000000000000040000000000000000000000000330fac6bd4e4c2279cdbe29e9642d0ca53342f86000000000000000000000000f39d83f111544becba071814ba3bb87ce1f24491",
        "1773946982"
      ],
      "transaction": {
        "from": "0xe752c55acabc5f745ab36a0993bf35c6555b60e4",
        "to": "0xf969aee60879c54baaed9f3ed26147db216fd664",
        "gas": "0x8eaee",
        "value": "0x0",
        "input": "0xdd46508f00000000000000000000000000000000000000000000000000000000000000400000000000000000000000000000000000000000000000000000000069bc48660000000000000000000000000000000000000000000000000000000000000300000000000000000000000000000000000000000000000000000000000000004000000000000000000000000000000000000000000000000000000000000000800000000000000000000000000000000000000000000000000000000000000002020d00000000000000000000000000000000000000000000000000000000000000000000000000000000000000000000000000000000000000000000000000020000000000000000000000000000000000000000000000000000000000000040000000000000000000000000000000000000000000000000000000000000020000000000000000000000000000000000000000000000000000000000000001a0000000000000000000000000330fac6bd4e4c2279cdbe29e9642d0ca53342f86000000000000000000000000f39d83f111544becba071814ba3bb87ce1f244910000000000000000000000000000000000000000000000000000000000800000000000000000000000000000000000000000000000000000000000000000003c0000000000000000000000009aadcd5a16093e382be24634f34df64c721c60c8fffffffffffffffffffffffffffffffffffffffffffffffffffffffffffcd9fcfffffffffffffffffffffffffffffffffffffffffffffffffffffffffffd08dc000000000000000000000000000000000000000000000000000028ac80bff62c0000000000000000000000000000000000000000000000000f43fc2c04ee00000000000000000000000000000000000000000000000000000000000135f1b400000000000000000000000000e752c55acabc5f745ab36a0993bf35c6555b60e4000000000000000000000000000000000000000000000000000000000000018000000000000000000000000000000000000000000000000000000000000000000000000000000000000000000000000000000000000000000000000000000040000000000000000000000000330fac6bd4e4c2279cdbe29e9642d0ca53342f86000000000000000000000000f39d83f111544becba071814ba3bb87ce1f24491",
        "nonce": "0xf9",
        "chainId": "0x515"
      },
      "additionalContracts": [],
      "isFixedGasLimit": false
    }
  ],
  "receipts": [
    {
      "status": "0x1",
      "cumulativeGasUsed": "0x86919",
      "logs": [
        {
          "address": "0x330fac6bd4e4c2279cdbe29e9642d0ca53342f86",
          "topics": [
            "0xddf252ad1be2c89b69c2b068fc378daa952ba7f163c4a11628f55a4df523b3ef",
            "0x0000000000000000000000000000000000000000000000000000000000000000",
            "0x000000000000000000000000e752c55acabc5f745ab36a0993bf35c6555b60e4"
          ],
          "data": "0x0000000000000000000000000000000000000000000000008ac7230489e80000",
          "blockHash": "0x76cd488ed5b0f35b5edb7703124f3c1849b1a17e752e6e97a8016b3e8e0cc5b9",
          "blockNumber": "0x2ce8d23",
          "blockTimestamp": "0x69bc3a6f",
          "transactionHash": "0x670d917c6c88cd1ed36a5200a7e558392514c2d2ab2e23ed31541dff40089412",
          "transactionIndex": "0x7",
          "logIndex": "0x7",
          "removed": false
        }
      ],
      "logsBloom": "0x00000000000000000000000000000000040000000000000000000000000000000002000000000000000000000000000000000000000000000000080000000000000000000000000000000008000000000000000000000000000000000000000000000000020000000000000000008800000000000000000000000010000000000000000000000000000040000000000000000000000000000000000000000000000000000000000000000000000000000000000000000000000000000000000000000002000000000000000000000000000000008000000000000000000020000000000000000000000000000000000000000000000000000000000000000000",
      "type": "0x2",
      "transactionHash": "0x670d917c6c88cd1ed36a5200a7e558392514c2d2ab2e23ed31541dff40089412",
      "transactionIndex": "0x7",
      "blockHash": "0x76cd488ed5b0f35b5edb7703124f3c1849b1a17e752e6e97a8016b3e8e0cc5b9",
      "blockNumber": "0x2ce8d23",
      "gasUsed": "0x8469",
      "effectiveGasPrice": "0x7a121",
      "blobGasUsed": "0x9c40",
      "from": "0xe752c55acabc5f745ab36a0993bf35c6555b60e4",
      "to": "0x330fac6bd4e4c2279cdbe29e9642d0ca53342f86",
      "contractAddress": null,
      "daFootprintGasScalar": "0x190",
      "l1BaseFeeScalar": "0x7d0",
      "l1BlobBaseFee": "0x1",
      "l1BlobBaseFeeScalar": "0xdbba0",
      "l1Fee": "0x7a",
      "l1GasPrice": "0xa",
      "l1GasUsed": "0x640"
    },
    {
      "status": "0x1",
      "cumulativeGasUsed": "0x8ed6a",
      "logs": [
        {
          "address": "0xf39d83f111544becba071814ba3bb87ce1f24491",
          "topics": [
            "0xddf252ad1be2c89b69c2b068fc378daa952ba7f163c4a11628f55a4df523b3ef",
            "0x0000000000000000000000000000000000000000000000000000000000000000",
            "0x000000000000000000000000e752c55acabc5f745ab36a0993bf35c6555b60e4"
          ],
          "data": "0x00000000000000000000000000000000000000000000000000000005d21dba00",
          "blockHash": "0x76cd488ed5b0f35b5edb7703124f3c1849b1a17e752e6e97a8016b3e8e0cc5b9",
          "blockNumber": "0x2ce8d23",
          "blockTimestamp": "0x69bc3a6f",
          "transactionHash": "0x749ac7f9c3e6d41cfd86e24b5d066ec0a42bb5e4c6d1559c1ce630c2ddd647d5",
          "transactionIndex": "0x8",
          "logIndex": "0x8",
          "removed": false
        }
      ],
      "logsBloom": "0x00000000000000000000000000000000040000000000000000000000000000000000000000000000000000000000000000000000000000000000000000002000000000000000000000000008000000000000000000000000000000000040000000000000020000000000000000008800000000000000000000000010000000000000000000000000000000000000000000000000000000000000000000000000000000000000000000000000000000000000000000000000000000000000000000000002000000000000000000000000000000008000000000000000000020000000000000000000000000000000000000000000000000000020000000000000",
      "type": "0x2",
      "transactionHash": "0x749ac7f9c3e6d41cfd86e24b5d066ec0a42bb5e4c6d1559c1ce630c2ddd647d5",
      "transactionIndex": "0x8",
      "blockHash": "0x76cd488ed5b0f35b5edb7703124f3c1849b1a17e752e6e97a8016b3e8e0cc5b9",
      "blockNumber": "0x2ce8d23",
      "gasUsed": "0x8451",
      "effectiveGasPrice": "0x7a121",
      "blobGasUsed": "0x9c40",
      "from": "0xe752c55acabc5f745ab36a0993bf35c6555b60e4",
      "to": "0xf39d83f111544becba071814ba3bb87ce1f24491",
      "contractAddress": null,
      "daFootprintGasScalar": "0x190",
      "l1BaseFeeScalar": "0x7d0",
      "l1BlobBaseFee": "0x1",
      "l1BlobBaseFeeScalar": "0xdbba0",
      "l1Fee": "0x7a",
      "l1GasPrice": "0xa",
      "l1GasUsed": "0x640"
    },
    {
      "status": "0x1",
      "cumulativeGasUsed": "0x9a1eb",
      "logs": [
        {
          "address": "0x330fac6bd4e4c2279cdbe29e9642d0ca53342f86",
          "topics": [
            "0x8c5be1e5ebec7d5bd14f71427d1e84f3dd0314c0f7b2291e5b200ac8c7c3b925",
            "0x000000000000000000000000e752c55acabc5f745ab36a0993bf35c6555b60e4",
            "0x000000000000000000000000000000000022d473030f116ddee9f6b43ac78ba3"
          ],
          "data": "0xffffffffffffffffffffffffffffffffffffffffffffffffffffffffffffffff",
          "blockHash": "0x76cd488ed5b0f35b5edb7703124f3c1849b1a17e752e6e97a8016b3e8e0cc5b9",
          "blockNumber": "0x2ce8d23",
          "blockTimestamp": "0x69bc3a6f",
          "transactionHash": "0xae996f1bc014794267df3017f01c3227a6f38f9f9be92bf7c13ab77b07b9f5ae",
          "transactionIndex": "0x9",
          "logIndex": "0x9",
          "removed": false
        }
      ],
      "logsBloom": "0x00000000000000000000000000000000040000000000000000000000000000000002000000000000000000000000000000000000800000000000080000200000000000000000000000004000000000000000000000000800000000000000000000000000000000000000000000008000000000000000000000000000000000000000000000000000000040000000000000000000000000000000000000000000020000000000000000000000000000000000000000000000000000000000000000000000000000000000000000000000000000008000000000000000000000000010000000000000000000000000000000000000000000000000000000000000",
      "type": "0x2",
      "transactionHash": "0xae996f1bc014794267df3017f01c3227a6f38f9f9be92bf7c13ab77b07b9f5ae",
      "transactionIndex": "0x9",
      "blockHash": "0x76cd488ed5b0f35b5edb7703124f3c1849b1a17e752e6e97a8016b3e8e0cc5b9",
      "blockNumber": "0x2ce8d23",
      "gasUsed": "0xb481",
      "effectiveGasPrice": "0x7a121",
      "blobGasUsed": "0x9c40",
      "from": "0xe752c55acabc5f745ab36a0993bf35c6555b60e4",
      "to": "0x330fac6bd4e4c2279cdbe29e9642d0ca53342f86",
      "contractAddress": null,
      "daFootprintGasScalar": "0x190",
      "l1BaseFeeScalar": "0x7d0",
      "l1BlobBaseFee": "0x1",
      "l1BlobBaseFeeScalar": "0xdbba0",
      "l1Fee": "0x7a",
      "l1GasPrice": "0xa",
      "l1GasUsed": "0x640"
    },
    {
      "status": "0x1",
      "cumulativeGasUsed": "0xa566c",
      "logs": [
        {
          "address": "0xf39d83f111544becba071814ba3bb87ce1f24491",
          "topics": [
            "0x8c5be1e5ebec7d5bd14f71427d1e84f3dd0314c0f7b2291e5b200ac8c7c3b925",
            "0x000000000000000000000000e752c55acabc5f745ab36a0993bf35c6555b60e4",
            "0x000000000000000000000000000000000022d473030f116ddee9f6b43ac78ba3"
          ],
          "data": "0xffffffffffffffffffffffffffffffffffffffffffffffffffffffffffffffff",
          "blockHash": "0x76cd488ed5b0f35b5edb7703124f3c1849b1a17e752e6e97a8016b3e8e0cc5b9",
          "blockNumber": "0x2ce8d23",
          "blockTimestamp": "0x69bc3a6f",
          "transactionHash": "0xc52c1cc66c5c863361a95bc4e870167135de266926dabfa12070ee43a4775b38",
          "transactionIndex": "0xa",
          "logIndex": "0xa",
          "removed": false
        }
      ],
      "logsBloom": "0x00000000000000000000000000000000040000000000000000000000000000000000000000000000000000000000000000000000800000000000000000202000000000000000000000004000000000000000000000000800000000000040000000000000000000000000000000008000000000000000000000000000000000000000000000000000000000000000000000000000000000000000000000000000020000000000000000000000000000000000000000000000000000000000000000000000000000000000000000000000000000008000000000000000000000000010000000000000000000000000000000000000000000000020000000000000",
      "type": "0x2",
      "transactionHash": "0xc52c1cc66c5c863361a95bc4e870167135de266926dabfa12070ee43a4775b38",
      "transactionIndex": "0xa",
      "blockHash": "0x76cd488ed5b0f35b5edb7703124f3c1849b1a17e752e6e97a8016b3e8e0cc5b9",
      "blockNumber": "0x2ce8d23",
      "gasUsed": "0xb481",
      "effectiveGasPrice": "0x7a121",
      "blobGasUsed": "0x9c40",
      "from": "0xe752c55acabc5f745ab36a0993bf35c6555b60e4",
      "to": "0xf39d83f111544becba071814ba3bb87ce1f24491",
      "contractAddress": null,
      "daFootprintGasScalar": "0x190",
      "l1BaseFeeScalar": "0x7d0",
      "l1BlobBaseFee": "0x1",
      "l1BlobBaseFeeScalar": "0xdbba0",
      "l1Fee": "0x7a",
      "l1GasPrice": "0xa",
      "l1GasUsed": "0x640"
    },
    {
      "status": "0x1",
      "cumulativeGasUsed": "0xb1136",
      "logs": [
        {
          "address": "0x000000000022d473030f116ddee9f6b43ac78ba3",
          "topics": [
            "0xda9fa7c1b00402c17d0161b249b1ab8bbec047c5a52207b9c112deffd817036b",
            "0x000000000000000000000000e752c55acabc5f745ab36a0993bf35c6555b60e4",
            "0x000000000000000000000000330fac6bd4e4c2279cdbe29e9642d0ca53342f86",
            "0x000000000000000000000000f969aee60879c54baaed9f3ed26147db216fd664"
          ],
          "data": "0x000000000000000000000000ffffffffffffffffffffffffffffffffffffffff0000000000000000000000000000000000000000000000000000ffffffffffff",
          "blockHash": "0x76cd488ed5b0f35b5edb7703124f3c1849b1a17e752e6e97a8016b3e8e0cc5b9",
          "blockNumber": "0x2ce8d23",
          "blockTimestamp": "0x69bc3a6f",
          "transactionHash": "0xcf79c486316123ccbf85f74a26557e168fd48a6486d4266eb943d84d56a561f2",
          "transactionIndex": "0xb",
          "logIndex": "0xb",
          "removed": false
        }
      ],
      "logsBloom": "0x00010000000000000000000000000000040000000000000000000000000000000000000000000000000000000000000000000000000000000000000000088000000000000000000000000000000000000000000000000000000000001000000000000000000000000200000000008000000400000040000000000000000000000020000000000000000000000000000000000000000000000000000000000000000000000000000000000000000000000000000000000000000000080000000000000000000000000000000000000000000000008000000040000000000000000000000000000000000000000000000000000000000000000000000000002400",
      "type": "0x2",
      "transactionHash": "0xcf79c486316123ccbf85f74a26557e168fd48a6486d4266eb943d84d56a561f2",
      "transactionIndex": "0xb",
      "blockHash": "0x76cd488ed5b0f35b5edb7703124f3c1849b1a17e752e6e97a8016b3e8e0cc5b9",
      "blockNumber": "0x2ce8d23",
      "gasUsed": "0xbaca",
      "effectiveGasPrice": "0x7a121",
      "blobGasUsed": "0xaa50",
      "from": "0xe752c55acabc5f745ab36a0993bf35c6555b60e4",
      "to": "0x000000000022d473030f116ddee9f6b43ac78ba3",
      "contractAddress": null,
      "daFootprintGasScalar": "0x190",
      "l1BaseFeeScalar": "0x7d0",
      "l1BlobBaseFee": "0x1",
      "l1BlobBaseFeeScalar": "0xdbba0",
      "l1Fee": "0x85",
      "l1GasPrice": "0xa",
      "l1GasUsed": "0x6da"
    },
    {
      "status": "0x1",
      "cumulativeGasUsed": "0xbcc00",
      "logs": [
        {
          "address": "0x000000000022d473030f116ddee9f6b43ac78ba3",
          "topics": [
            "0xda9fa7c1b00402c17d0161b249b1ab8bbec047c5a52207b9c112deffd817036b",
            "0x000000000000000000000000e752c55acabc5f745ab36a0993bf35c6555b60e4",
            "0x000000000000000000000000f39d83f111544becba071814ba3bb87ce1f24491",
            "0x000000000000000000000000f969aee60879c54baaed9f3ed26147db216fd664"
          ],
          "data": "0x000000000000000000000000ffffffffffffffffffffffffffffffffffffffff0000000000000000000000000000000000000000000000000000ffffffffffff",
          "blockHash": "0x76cd488ed5b0f35b5edb7703124f3c1849b1a17e752e6e97a8016b3e8e0cc5b9",
          "blockNumber": "0x2ce8d23",
          "blockTimestamp": "0x69bc3a6f",
          "transactionHash": "0xbe81411ec7c1d01d6a2cc484c61cd3b2d42d3d18797d3ce9f1896021b1b3d640",
          "transactionIndex": "0xc",
          "logIndex": "0xc",
          "removed": false
        }
      ],
      "logsBloom": "0x00010000000000000000000000000000040000000000000000000000000000000000000000000000000000000000000000000000000000000000000000080000000000000000000000000000000000000000000004000000000000001000000000000000000000000000000000008000000000000040000000000000000000000420000000000000000000000000000000000000000000000000000000000000000000000000000000000000000008000000000000000000000000080000000000000000000000000000000000000000000000008000000040000000000000000000000000000000000000000000000000000000000000000000000000002400",
      "type": "0x2",
      "transactionHash": "0xbe81411ec7c1d01d6a2cc484c61cd3b2d42d3d18797d3ce9f1896021b1b3d640",
      "transactionIndex": "0xc",
      "blockHash": "0x76cd488ed5b0f35b5edb7703124f3c1849b1a17e752e6e97a8016b3e8e0cc5b9",
      "blockNumber": "0x2ce8d23",
      "gasUsed": "0xbaca",
      "effectiveGasPrice": "0x7a121",
      "blobGasUsed": "0xaa50",
      "from": "0xe752c55acabc5f745ab36a0993bf35c6555b60e4",
      "to": "0x000000000022d473030f116ddee9f6b43ac78ba3",
      "contractAddress": null,
      "daFootprintGasScalar": "0x190",
      "l1BaseFeeScalar": "0x7d0",
      "l1BlobBaseFee": "0x1",
      "l1BlobBaseFeeScalar": "0xdbba0",
      "l1Fee": "0x85",
      "l1GasPrice": "0xa",
      "l1GasUsed": "0x6da"
    },
    {
      "status": "0x1",
      "cumulativeGasUsed": "0x1240ce",
      "logs": [
        {
          "address": "0xf969aee60879c54baaed9f3ed26147db216fd664",
          "topics": [
            "0xddf252ad1be2c89b69c2b068fc378daa952ba7f163c4a11628f55a4df523b3ef",
            "0x0000000000000000000000000000000000000000000000000000000000000000",
            "0x000000000000000000000000e752c55acabc5f745ab36a0993bf35c6555b60e4",
            "0x0000000000000000000000000000000000000000000000000000000000001c67"
          ],
          "data": "0x",
          "blockHash": "0x76cd488ed5b0f35b5edb7703124f3c1849b1a17e752e6e97a8016b3e8e0cc5b9",
          "blockNumber": "0x2ce8d23",
          "blockTimestamp": "0x69bc3a6f",
          "transactionHash": "0xfc49617feaff3f91be66e8ced15f4a911808548b692e769b08ee283bb39b69b3",
          "transactionIndex": "0xd",
          "logIndex": "0xd",
          "removed": false
        },
        {
          "address": "0x00b036b58a818b1bc34d502d3fe730db729e62ac",
          "topics": [
            "0xf208f4912782fd25c7f114ca3723a2d5dd6f3bcc3ac8db5af63baa85f711d5ec",
            "0x364a54423bb1c50fc07644fd1b911487017490ce2ed80b9f6f00a1eb6145bbb4",
            "0x000000000000000000000000f969aee60879c54baaed9f3ed26147db216fd664"
          ],
          "data": "0xfffffffffffffffffffffffffffffffffffffffffffffffffffffffffffcd9fcfffffffffffffffffffffffffffffffffffffffffffffffffffffffffffd08dc000000000000000000000000000000000000000000000000000028ac80bff62c0000000000000000000000000000000000000000000000000000000000001c67",
          "blockHash": "0x76cd488ed5b0f35b5edb7703124f3c1849b1a17e752e6e97a8016b3e8e0cc5b9",
          "blockNumber": "0x2ce8d23",
          "blockTimestamp": "0x69bc3a6f",
          "transactionHash": "0xfc49617feaff3f91be66e8ced15f4a911808548b692e769b08ee283bb39b69b3",
          "transactionIndex": "0xd",
          "logIndex": "0xe",
          "removed": false
        },
        {
          "address": "0x330fac6bd4e4c2279cdbe29e9642d0ca53342f86",
          "topics": [
            "0xddf252ad1be2c89b69c2b068fc378daa952ba7f163c4a11628f55a4df523b3ef",
            "0x000000000000000000000000e752c55acabc5f745ab36a0993bf35c6555b60e4",
            "0x00000000000000000000000000b036b58a818b1bc34d502d3fe730db729e62ac"
          ],
          "data": "0x0000000000000000000000000000000000000000000000000394f7811486433f",
          "blockHash": "0x76cd488ed5b0f35b5edb7703124f3c1849b1a17e752e6e97a8016b3e8e0cc5b9",
          "blockNumber": "0x2ce8d23",
          "blockTimestamp": "0x69bc3a6f",
          "transactionHash": "0xfc49617feaff3f91be66e8ced15f4a911808548b692e769b08ee283bb39b69b3",
          "transactionIndex": "0xd",
          "logIndex": "0xf",
          "removed": false
        },
        {
          "address": "0xf39d83f111544becba071814ba3bb87ce1f24491",
          "topics": [
            "0xddf252ad1be2c89b69c2b068fc378daa952ba7f163c4a11628f55a4df523b3ef",
            "0x000000000000000000000000e752c55acabc5f745ab36a0993bf35c6555b60e4",
            "0x00000000000000000000000000b036b58a818b1bc34d502d3fe730db729e62ac"
          ],
          "data": "0x000000000000000000000000000000000000000000000000000000001f05ca57",
          "blockHash": "0x76cd488ed5b0f35b5edb7703124f3c1849b1a17e752e6e97a8016b3e8e0cc5b9",
          "blockNumber": "0x2ce8d23",
          "blockTimestamp": "0x69bc3a6f",
          "transactionHash": "0xfc49617feaff3f91be66e8ced15f4a911808548b692e769b08ee283bb39b69b3",
          "transactionIndex": "0xd",
          "logIndex": "0x10",
          "removed": false
        }
      ],
      "logsBloom": "0x0000000000000000000000400000000004000000000000000000000000000000000200000000000000000000000000000000000000100000000108000000200000000000000000000000000800000000000000000000000000000000104000000000000002000000000000000000c800000000000040000000000010000000000000000001000000000040000008000000000000000010000000000000000000000104000800000000000000000000000800000000000020000000000000000000000002080000000000000000000000000000008000000000000000000020004000000000000000000000200000000004000000000002000020000000002010",
      "type": "0x2",
      "transactionHash": "0xfc49617feaff3f91be66e8ced15f4a911808548b692e769b08ee283bb39b69b3",
      "transactionIndex": "0xd",
      "blockHash": "0x76cd488ed5b0f35b5edb7703124f3c1849b1a17e752e6e97a8016b3e8e0cc5b9",
      "blockNumber": "0x2ce8d23",
      "gasUsed": "0x674ce",
      "effectiveGasPrice": "0x7a121",
      "blobGasUsed": "0x197d0",
      "from": "0xe752c55acabc5f745ab36a0993bf35c6555b60e4",
      "to": "0xf969aee60879c54baaed9f3ed26147db216fd664",
      "contractAddress": null,
      "daFootprintGasScalar": "0x190",
      "l1BaseFeeScalar": "0x7d0",
      "l1BlobBaseFee": "0x1",
      "l1BlobBaseFeeScalar": "0xdbba0",
      "l1Fee": "0x13f",
      "l1GasPrice": "0xa",
      "l1GasUsed": "0x105e"
    }
  ],
  "libraries": [],
  "pending": [],
  "returns": {},
  "timestamp": 1773943407112,
  "chain": 1301,
  "commit": "86d2825"
}