{
  "transactions": [
    {
      "hash": "0x36eabba86a44906a34408a5ec5cc7bce737bc5722e1563e023f7d7c0c567d6c2",
      "transactionType": "CALL",
      "contractName": null,
      "contractAddress": "0x0c8a8efd21533d1181451effafceb6680cf19ea8",
      "function": "mint(address,uint256)",
      "arguments": [
        "0xe752c55ACAbC5F745AB36a0993bf35c6555B60e4",
        "10000000000000000000"
      ],
      "transaction": {
        "from": "0xe752c55acabc5f745ab36a0993bf35c6555b60e4",
        "to": "0x0c8a8efd21533d1181451effafceb6680cf19ea8",
        "gas": "0xc1a6",
        "value": "0x0",
        "input": "0x40c10f19000000000000000000000000e752c55acabc5f745ab36a0993bf35c6555b60e40000000000000000000000000000000000000000000000008ac7230489e80000",
        "nonce": "0xde",
        "chainId": "0x515"
      },
      "additionalContracts": [],
      "isFixedGasLimit": false
    },
    {
      "hash": "0xe905b120aac5c9fa4b26cab6ff4c743eb30a8f2e1129b77f391c877161ffb6ce",
      "transactionType": "CALL",
      "contractName": null,
      "contractAddress": "0x87f578ab6796283ffb48f27902439451be9e5e35",
      "function": "mint(address,uint256)",
      "arguments": [
        "0xe752c55ACAbC5F745AB36a0993bf35c6555B60e4",
        "25000000000"
      ],
      "transaction": {
        "from": "0xe752c55acabc5f745ab36a0993bf35c6555b60e4",
        "to": "0x87f578ab6796283ffb48f27902439451be9e5e35",
        "gas": "0xc183",
        "value": "0x0",
        "input": "0x40c10f19000000000000000000000000e752c55acabc5f745ab36a0993bf35c6555b60e400000000000000000000000000000000000000000000000000000005d21dba00",
        "nonce": "0xdf",
        "chainId": "0x515"
      },
      "additionalContracts": [],
      "isFixedGasLimit": false
    },
    {
      "hash": "0xd0d7e59feb8fa8dda7e537adf953dfd93cf9ff9a77087491e207346447f53697",
      "transactionType": "CALL",
      "contractName": null,
      "contractAddress": "0x0c8a8efd21533d1181451effafceb6680cf19ea8",
      "function": "approve(address,uint256)",
      "arguments": [
        "0x000000000022D473030F116dDEE9F6B43aC78BA3",
        "115792089237316195423570985008687907853269984665640564039457584007913129639935"
      ],
      "transaction": {
        "from": "0xe752c55acabc5f745ab36a0993bf35c6555b60e4",
        "to": "0x0c8a8efd21533d1181451effafceb6680cf19ea8",
        "gas": "0x8df2",
        "value": "0x0",
        "input": "0x095ea7b3000000000000000000000000000000000022d473030f116ddee9f6b43ac78ba3ffffffffffffffffffffffffffffffffffffffffffffffffffffffffffffffff",
        "nonce": "0xe0",
        "chainId": "0x515"
      },
      "additionalContracts": [],
      "isFixedGasLimit": false
    },
    {
      "hash": "0xf10cbbe6dcf2f7ffb60f462c8fee84699218fd7660615c0c5d6a5daebebd187d",
      "transactionType": "CALL",
      "contractName": null,
      "contractAddress": "0x87f578ab6796283ffb48f27902439451be9e5e35",
      "function": "approve(address,uint256)",
      "arguments": [
        "0x000000000022D473030F116dDEE9F6B43aC78BA3",
        "115792089237316195423570985008687907853269984665640564039457584007913129639935"
      ],
      "transaction": {
        "from": "0xe752c55acabc5f745ab36a0993bf35c6555b60e4",
        "to": "0x87f578ab6796283ffb48f27902439451be9e5e35",
        "gas": "0x8df2",
        "value": "0x0",
        "input": "0x095ea7b3000000000000000000000000000000000022d473030f116ddee9f6b43ac78ba3ffffffffffffffffffffffffffffffffffffffffffffffffffffffffffffffff",
        "nonce": "0xe1",
        "chainId": "0x515"
      },
      "additionalContracts": [],
      "isFixedGasLimit": false
    },
    {
      "hash": "0xeb6cd5bb502d8e505059d07c88fc6e44109040baf9186fe4c06aecbeed5b093d",
      "transactionType": "CALL",
      "contractName": null,
      "contractAddress": "0x000000000022d473030f116ddee9f6b43ac78ba3",
      "function": "approve(address,address,uint160,uint48)",
      "arguments": [
        "0x0c8a8eFd21533d1181451eFfAfceb6680CF19EA8",
        "0xf969Aee60879C54bAAed9F3eD26147Db216Fd664",
        "1461501637330902918203684832716283019655932542975",
        "281474976710655"
      ],
      "transaction": {
        "from": "0xe752c55acabc5f745ab36a0993bf35c6555b60e4",
        "to": "0x000000000022d473030f116ddee9f6b43ac78ba3",
        "gas": "0x96a0",
        "value": "0x0",
        "input": "0x87517c450000000000000000000000000c8a8efd21533d1181451effafceb6680cf19ea8000000000000000000000000f969aee60879c54baaed9f3ed26147db216fd664000000000000000000000000ffffffffffffffffffffffffffffffffffffffff0000000000000000000000000000000000000000000000000000ffffffffffff",
        "nonce": "0xe2",
        "chainId": "0x515"
      },
      "additionalContracts": [],
      "isFixedGasLimit": false
    },
    {
      "hash": "0x87caf331859e1e42170a9f3292819f9e5f20f8df5a9763a40df0bb8c8e2a54ad",
      "transactionType": "CALL",
      "contractName": null,
      "contractAddress": "0x000000000022d473030f116ddee9f6b43ac78ba3",
      "function": "approve(address,address,uint160,uint48)",
      "arguments": [
        "0x87F578AB6796283ffb48F27902439451be9e5e35",
        "0xf969Aee60879C54bAAed9F3eD26147Db216Fd664",
        "1461501637330902918203684832716283019655932542975",
        "281474976710655"
      ],
      "transaction": {
        "from": "0xe752c55acabc5f745ab36a0993bf35c6555b60e4",
        "to": "0x000000000022d473030f116ddee9f6b43ac78ba3",
        "gas": "0x96a0",
        "value": "0x0",
        "input": "0x87517c4500000000000000000000000087f578ab6796283ffb48f27902439451be9e5e35000000000000000000000000f969aee60879c54baaed9f3ed26147db216fd664000000000000000000000000ffffffffffffffffffffffffffffffffffffffff0000000000000000000000000000000000000000000000000000ffffffffffff",
        "nonce": "0xe3",
        "chainId": "0x515"
      },
      "additionalContracts": [],
      "isFixedGasLimit": false
    },
    {
      "hash": "0xd98b0831dd52222162df43116d70c208b6da45f42e3ad900334c969b0ebdba77",
      "transactionType": "CALL",
      "contractName": null,
      "contractAddress": "0xf969aee60879c54baaed9f3ed26147db216fd664",
      "function": "modifyLiquidities(bytes,uint256)",
      "arguments": [
        "0x000000000000000000000000000000000000000000000000000000000000004000000000000000000000000000000000000000000000000000000000000000800000000000000000000000000000000000000000000000000000000000000002020d00000000000000000000000000000000000000000000000000000000000000000000000000000000000000000000000000000000000000000000000000020000000000000000000000000000000000000000000000000000000000000040000000000000000000000000000000000000000000000000000000000000020000000000000000000000000000000000000000000000000000000000000001a00000000000000000000000000c8a8efd21533d1181451effafceb6680cf19ea800000000000000000000000087f578ab6796283ffb48f27902439451be9e5e350000000000000000000000000000000000000000000000000000000000800000000000000000000000000000000000000000000000000000000000000000003c000000000000000000000000bba8ac1decc79495bfb10cb0368a82ca185f20c8fffffffffffffffffffffffffffffffffffffffffffffffffffffffffffcd9fcfffffffffffffffffffffffffffffffffffffffffffffffffffffffffffd08dc000000000000000000000000000000000000000000000000000028ac80bff62c0000000000000000000000000000000000000000000000000f43fc2c04ee00000000000000000000000000000000000000000000000000000000000135f1b400000000000000000000000000e752c55acabc5f745ab36a0993bf35c6555b60e40000000000000000000000000000000000000000000000000000000000000180000000000000000000000000000000000000000000000000000000000000000000000000000000000000000000000000000000000000000000000000000000400000000000000000000000000c8a8efd21533d1181451effafceb6680cf19ea800000000000000000000000087f578ab6796283ffb48f27902439451be9e5e35",
        "1773943697"
      ],
      "transaction": {
        "from": "0xe752c55acabc5f745ab36a0993bf35c6555b60e4",
        "to": "0xf969aee60879c54baaed9f3ed26147db216fd664",
        "gas": "0x4c7df",
        "value": "0x0",
        "input": "0xdd46508f00000000000000000000000000000000000000000000000000000000000000400000000000000000000000000000000000000000000000000000000069bc3b910000000000000000000000000000000000000000000000000000000000000300000000000000000000000000000000000000000000000000000000000000004000000000000000000000000000000000000000000000000000000000000000800000000000000000000000000000000000000000000000000000000000000002020d00000000000000000000000000000000000000000000000000000000000000000000000000000000000000000000000000000000000000000000000000020000000000000000000000000000000000000000000000000000000000000040000000000000000000000000000000000000000000000000000000000000020000000000000000000000000000000000000000000000000000000000000001a00000000000000000000000000c8a8efd21533d1181451effafceb6680cf19ea800000000000000000000000087f578ab6796283ffb48f27902439451be9e5e350000000000000000000000000000000000000000000000000000000000800000000000000000000000000000000000000000000000000000000000000000003c000000000000000000000000bba8ac1decc79495bfb10cb0368a82ca185f20c8fffffffffffffffffffffffffffffffffffffffffffffffffffffffffffcd9fcfffffffffffffffffffffffffffffffffffffffffffffffffffffffffffd08dc000000000000000000000000000000000000000000000000000028ac80bff62c0000000000000000000000000000000000000000000000000f43fc2c04ee00000000000000000000000000000000000000000000000000000000000135f1b400000000000000000000000000e752c55acabc5f745ab36a0993bf35c6555b60e40000000000000000000000000000000000000000000000000000000000000180000000000000000000000000000000000000000000000000000000000000000000000000000000000000000000000000000000000000000000000000000000400000000000000000000000000c8a8efd21533d1181451effafceb6680cf19ea800000000000000000000000087f578ab6796283ffb48f27902439451be9e5e35",
        "nonce": "0xe4",
        "chainId": "0x515"
      },
      "additionalContracts": [],
      "isFixedGasLimit": false
    }
  ],
  "receipts": [
    {
      "status": "0x1",
      "cumulativeGasUsed": "0x2fe61",
      "logs": [
        {
          "address": "0x0c8a8efd21533d1181451effafceb6680cf19ea8",
          "topics": [
            "0xddf252ad1be2c89b69c2b068fc378daa952ba7f163c4a11628f55a4df523b3ef",
            "0x0000000000000000000000000000000000000000000000000000000000000000",
            "0x000000000000000000000000e752c55acabc5f745ab36a0993bf35c6555b60e4"
          ],
          "data": "0x0000000000000000000000000000000000000000000000008ac7230489e80000",
          "blockHash": "0x25fc7620d004c7ad29b74417d0cd62fc9e2b8cc62d1c6d4d0cf7e74a0cf2eb0c",
          "blockNumber": "0x2ce804f",
          "blockTimestamp": "0x69bc2d9b",
          "transactionHash": "0x36eabba86a44906a34408a5ec5cc7bce737bc5722e1563e023f7d7c0c567d6c2",
          "transactionIndex": "0x3",
          "logIndex": "0x1",
          "removed": false
        }
      ],
      "logsBloom": "0x00000000000000000000002000000000040000000000000000400000000000000000000000000000000000000000000000000000000000000000000000000000000000000000000000000008000000000000000000000000000000000000000000040000020000000000000000008800000000000000000000000010000000000000000000000000000000000000000000000000000000000000000000000000000000000000000000000000000000000000000000000000000000000000000000000002000000000000000000000000000000008000000000000000000020000000000000000000000000000000000000000000000000000000000000000000",
      "type": "0x2",
      "transactionHash": "0x36eabba86a44906a34408a5ec5cc7bce737bc5722e1563e023f7d7c0c567d6c2",
      "transactionIndex": "0x3",
      "blockHash": "0x25fc7620d004c7ad29b74417d0cd62fc9e2b8cc62d1c6d4d0cf7e74a0cf2eb0c",
      "blockNumber": "0x2ce804f",
      "gasUsed": "0x8469",
      "effectiveGasPrice": "0x7a121",
      "blobGasUsed": "0x9c40",
      "from": "0xe752c55acabc5f745ab36a0993bf35c6555b60e4",
      "to": "0x0c8a8efd21533d1181451effafceb6680cf19ea8",
      "contractAddress": null,
      "daFootprintGasScalar": "0x190",
      "l1BaseFeeScalar": "0x7d0",
      "l1BlobBaseFee": "0x1",
      "l1BlobBaseFeeScalar": "0xdbba0",
      "l1Fee": "0x7a",
      "l1GasPrice": "0xa",
      "l1GasUsed": "0x640"
    },
    {
      "status": "0x1",
      "cumulativeGasUsed": "0x4f2e4",
      "logs": [
        {
          "address": "0x87f578ab6796283ffb48f27902439451be9e5e35",
          "topics": [
            "0xddf252ad1be2c89b69c2b068fc378daa952ba7f163c4a11628f55a4df523b3ef",
            "0x0000000000000000000000000000000000000000000000000000000000000000",
            "0x000000000000000000000000e752c55acabc5f745ab36a0993bf35c6555b60e4"
          ],
          "data": "0x00000000000000000000000000000000000000000000000000000005d21dba00",
          "blockHash": "0x25fc7620d004c7ad29b74417d0cd62fc9e2b8cc62d1c6d4d0cf7e74a0cf2eb0c",
          "blockNumber": "0x2ce804f",
          "blockTimestamp": "0x69bc2d9b",
          "transactionHash": "0xe905b120aac5c9fa4b26cab6ff4c743eb30a8f2e1129b77f391c877161ffb6ce",
          "transactionIndex": "0x5",
          "logIndex": "0x3",
          "removed": false
        }
      ],
      "logsBloom": "0x00000000000000000000000000000000040000000000000000000000000000000000000000000000000000000000000800000000000000000000000000000000000000000000000100000008008000000000000000000000000000000000000000000000020000000000000000008800000000000000000000000010000000000000000000000000000000000000000000000000000000000000000000000000000000000000000000000000000000000000000000000000000000000000000000000002000000000000000000000000000000008000000000000000000020000000000000000000000000000000000000000000000000000000000000000000",
      "type": "0x2",
      "transactionHash": "0xe905b120aac5c9fa4b26cab6ff4c743eb30a8f2e1129b77f391c877161ffb6ce",
      "transactionIndex": "0x5",
      "blockHash": "0x25fc7620d004c7ad29b74417d0cd62fc9e2b8cc62d1c6d4d0cf7e74a0cf2eb0c",
      "blockNumber": "0x2ce804f",
      "gasUsed": "0x8451",
      "effectiveGasPrice": "0x7a121",
      "blobGasUsed": "0x9c40",
      "from": "0xe752c55acabc5f745ab36a0993bf35c6555b60e4",
      "to": "0x87f578ab6796283ffb48f27902439451be9e5e35",
      "contractAddress": null,
      "daFootprintGasScalar": "0x190",
      "l1BaseFeeScalar": "0x7d0",
      "l1BlobBaseFee": "0x1",
      "l1BlobBaseFeeScalar": "0xdbba0",
      "l1Fee": "0x7a",
      "l1GasPrice": "0xa",
      "l1GasUsed": "0x640"
    },
    {
      "status": "0x1",
      "cumulativeGasUsed": "0x559a9",
      "logs": [
        {
          "address": "0x0c8a8efd21533d1181451effafceb6680cf19ea8",
          "topics": [
            "0x8c5be1e5ebec7d5bd14f71427d1e84f3dd0314c0f7b2291e5b200ac8c7c3b925",
            "0x000000000000000000000000e752c55acabc5f745ab36a0993bf35c6555b60e4",
            "0x000000000000000000000000000000000022d473030f116ddee9f6b43ac78ba3"
          ],
          "data": "0xffffffffffffffffffffffffffffffffffffffffffffffffffffffffffffffff",
          "blockHash": "0x25fc7620d004c7ad29b74417d0cd62fc9e2b8cc62d1c6d4d0cf7e74a0cf2eb0c",
          "blockNumber": "0x2ce804f",
          "blockTimestamp": "0x69bc2d9b",
          "transactionHash": "0xeb6cd5bb502d8e505059d07c88fc6e44109040baf9186fe4c06aecbeed5b093d",
          "transactionIndex": "0x6",
          "logIndex": "0x4",
          "removed": false
        }
      ],
      "logsBloom": "0x00000000000000000000002000000000040000000000000000400000000000000000000000000000000000000000000000000000800000000000000000200000000000000000000000004000000000000000000000000800000000000000000000040000000000000000000000008000000000000000000000000000000000000000000000000000000000000000000000000000000000000000000000000000020000000000000000000000000000000000000000000000000000000000000000000000000000000000000000000000000000008000000000000000000000000010000000000000000000000000000000000000000000000000000000000000",
      "type": "0x2",
      "transactionHash": "0xeb6cd5bb502d8e505059d07c88fc6e44109040baf9186fe4c06aecbeed5b093d",
      "transactionIndex": "0x6",
      "blockHash": "0x25fc7620d004c7ad29b74417d0cd62fc9e2b8cc62d1c6d4d0cf7e74a0cf2eb0c",
      "blockNumber": "0x2ce804f",
      "gasUsed": "0x66c5",
      "effectiveGasPrice": "0x7a121",
      "blobGasUsed": "0x9c40",
      "from": "0xe752c55acabc5f745ab36a0993bf35c6555b60e4",
      "to": "0x0c8a8efd21533d1181451effafceb6680cf19ea8",
      "contractAddress": null,
      "daFootprintGasScalar": "0x190",
      "l1BaseFeeScalar": "0x7d0",
      "l1BlobBaseFee": "0x1",
      "l1BlobBaseFeeScalar": "0xdbba0",
      "l1Fee": "0x7a",
      "l1GasPrice": "0xa",
      "l1GasUsed": "0x640"
    },
    {
      "status": "0x1",
      "cumulativeGasUsed": "0x5c06e",
      "logs": [
        {
          "address": "0x87f578ab6796283ffb48f27902439451be9e5e35",
          "topics": [
            "0x8c5be1e5ebec7d5bd14f71427d1e84f3dd0314c0f7b2291e5b200ac8c7c3b925",
            "0x000000000000000000000000e752c55acabc5f745ab36a0993bf35c6555b60e4",
            "0x000000000000000000000000000000000022d473030f116ddee9f6b43ac78ba3"
          ],
          "data": "0xffffffffffffffffffffffffffffffffffffffffffffffffffffffffffffffff",
          "blockHash": "0x25fc7620d004c7ad29b74417d0cd62fc9e2b8cc62d1c6d4d0cf7e74a0cf2eb0c",
          "blockNumber": "0x2ce804f",
          "blockTimestamp": "0x69bc2d9b",
          "transactionHash": "0xf10cbbe6dcf2f7ffb60f462c8fee84699218fd7660615c0c5d6a5daebebd187d",
          "transactionIndex": "0x7",
          "logIndex": "0x5",
          "removed": false
        }
      ],
      "logsBloom": "0x00000000000000000000000000000000040000000000000000000000000000000000000000000000000000000000000800000000800000000000000000200000000000000000000100004000008000000000000000000800000000000000000000000000000000000000000000008000000000000000000000000000000000000000000000000000000000000000000000000000000000000000000000000000020000000000000000000000000000000000000000000000000000000000000000000000000000000000000000000000000000008000000000000000000000000010000000000000000000000000000000000000000000000000000000000000",
      "type": "0x2",
      "transactionHash": "0xf10cbbe6dcf2f7ffb60f462c8fee84699218fd7660615c0c5d6a5daebebd187d",
      "transactionIndex": "0x7",
      "blockHash": "0x25fc7620d004c7ad29b74417d0cd62fc9e2b8cc62d1c6d4d0cf7e74a0cf2eb0c",
      "blockNumber": "0x2ce804f",
      "gasUsed": "0x66c5",
      "effectiveGasPrice": "0x7a121",
      "blobGasUsed": "0x9c40",
      "from": "0xe752c55acabc5f745ab36a0993bf35c6555b60e4",
      "to": "0x87f578ab6796283ffb48f27902439451be9e5e35",
      "contractAddress": null,
      "daFootprintGasScalar": "0x190",
      "l1BaseFeeScalar": "0x7d0",
      "l1BlobBaseFee": "0x1",
      "l1BlobBaseFeeScalar": "0xdbba0",
      "l1Fee": "0x7a",
      "l1GasPrice": "0xa",
      "l1GasUsed": "0x640"
    },
    {
      "status": "0x1",
      "cumulativeGasUsed": "0x62d7c",
      "logs": [
        {
          "address": "0x000000000022d473030f116ddee9f6b43ac78ba3",
          "topics": [
            "0xda9fa7c1b00402c17d0161b249b1ab8bbec047c5a52207b9c112deffd817036b",
            "0x000000000000000000000000e752c55acabc5f745ab36a0993bf35c6555b60e4",
            "0x0000000000000000000000000c8a8efd21533d1181451effafceb6680cf19ea8",
            "0x000000000000000000000000f969aee60879c54baaed9f3ed26147db216fd664"
          ],
          "data": "0x000000000000000000000000ffffffffffffffffffffffffffffffffffffffff0000000000000000000000000000000000000000000000000000ffffffffffff",
          "blockHash": "0x25fc7620d004c7ad29b74417d0cd62fc9e2b8cc62d1c6d4d0cf7e74a0cf2eb0c",
          "blockNumber": "0x2ce804f",
          "blockTimestamp": "0x69bc2d9b",
          "transactionHash": "0xd0d7e59feb8fa8dda7e537adf953dfd93cf9ff9a77087491e207346447f53697",
          "transactionIndex": "0x8",
          "logIndex": "0x6",
          "removed": false
        }
      ],
      "logsBloom": "0x00010000000200000000000000000000040000000000000000000000000000000020000000000000000000000000000000000000000000000000000000080000000000000000000000000000000000000000000000000000000000001000040000000000000000000000000000008000000000000040000000000000000000000020000000000000000000000000000000000000000000000000000000000000000000000000000000000000000000000000000000000000000000080000000000000000000000000000000000000000000000008000000040000000000000000000000000000000000000000000000000000000000000000000000000002400",
      "type": "0x2",
      "transactionHash": "0xd0d7e59feb8fa8dda7e537adf953dfd93cf9ff9a77087491e207346447f53697",
      "transactionIndex": "0x8",
      "blockHash": "0x25fc7620d004c7ad29b74417d0cd62fc9e2b8cc62d1c6d4d0cf7e74a0cf2eb0c",
      "blockNumber": "0x2ce804f",
      "gasUsed": "0x6d0e",
      "effectiveGasPrice": "0x7a121",
      "blobGasUsed": "0xa8c0",
      "from": "0xe752c55acabc5f745ab36a0993bf35c6555b60e4",
      "to": "0x000000000022d473030f116ddee9f6b43ac78ba3",
      "contractAddress": null,
      "daFootprintGasScalar": "0x190",
      "l1BaseFeeScalar": "0x7d0",
      "l1BlobBaseFee": "0x1",
      "l1BlobBaseFeeScalar": "0xdbba0",
      "l1Fee": "0x84",
      "l1GasPrice": "0xa",
      "l1GasUsed": "0x6cd"
    },
    {
      "status": "0x1",
      "cumulativeGasUsed": "0x69a8a",
      "logs": [
        {
          "address": "0x000000000022d473030f116ddee9f6b43ac78ba3",
          "topics": [
            "0xda9fa7c1b00402c17d0161b249b1ab8bbec047c5a52207b9c112deffd817036b",
            "0x000000000000000000000000e752c55acabc5f745ab36a0993bf35c6555b60e4",
            "0x00000000000000000000000087f578ab6796283ffb48f27902439451be9e5e35",
            "0x000000000000000000000000f969aee60879c54baaed9f3ed26147db216fd664"
          ],
          "data": "0x000000000000000000000000ffffffffffffffffffffffffffffffffffffffff0000000000000000000000000000000000000000000000000000ffffffffffff",
          "blockHash": "0x25fc7620d004c7ad29b74417d0cd62fc9e2b8cc62d1c6d4d0cf7e74a0cf2eb0c",
          "blockNumber": "0x2ce804f",
          "blockTimestamp": "0x69bc2d9b",
          "transactionHash": "0x87caf331859e1e42170a9f3292819f9e5f20f8df5a9763a40df0bb8c8e2a54ad",
          "transactionIndex": "0x9",
          "logIndex": "0x7",
          "removed": false
        }
      ],
      "logsBloom": "0x00010000000000020000000000000000040000000000000000000000000000000000000000000000000000000000000000000000000000000000000000080000000000000000000000000000000000000000000000000000000000001000000000000000000000000000000000008000000000004040000000000000000000000020200000000000000000000000000000000000000000000000000000000000000000000000000000000000000000000000000000000000000000080000000000000000000000000000000000000000000000008000000040000000000000000000000000000000000000000000000000000000000000000000000000002400",
      "type": "0x2",
      "transactionHash": "0x87caf331859e1e42170a9f3292819f9e5f20f8df5a9763a40df0bb8c8e2a54ad",
      "transactionIndex": "0x9",
      "blockHash": "0x25fc7620d004c7ad29b74417d0cd62fc9e2b8cc62d1c6d4d0cf7e74a0cf2eb0c",
      "blockNumber": "0x2ce804f",
      "gasUsed": "0x6d0e",
      "effectiveGasPrice": "0x7a121",
      "blobGasUsed": "0xa8c0",
      "from": "0xe752c55acabc5f745ab36a0993bf35c6555b60e4",
      "to": "0x000000000022d473030f116ddee9f6b43ac78ba3",
      "contractAddress": null,
      "daFootprintGasScalar": "0x190",
      "l1BaseFeeScalar": "0x7d0",
      "l1BlobBaseFee": "0x1",
      "l1BlobBaseFeeScalar": "0xdbba0",
      "l1Fee": "0x84",
      "l1GasPrice": "0xa",
      "l1GasUsed": "0x6cd"
    },
    {
      "status": "0x1",
      "cumulativeGasUsed": "0xb80cc",
      "logs": [
        {
          "address": "0xf969aee60879c54baaed9f3ed26147db216fd664",
          "topics": [
            "0xddf252ad1be2c89b69c2b068fc378daa952ba7f163c4a11628f55a4df523b3ef",
            "0x0000000000000000000000000000000000000000000000000000000000000000",
            "0x000000000000000000000000e752c55acabc5f745ab36a0993bf35c6555b60e4",
            "0x0000000000000000000000000000000000000000000000000000000000001c66"
          ],
          "data": "0x",
          "blockHash": "0x25fc7620d004c7ad29b74417d0cd62fc9e2b8cc62d1c6d4d0cf7e74a0cf2eb0c",
          "blockNumber": "0x2ce804f",
          "blockTimestamp": "0x69bc2d9b",
          "transactionHash": "0xd98b0831dd52222162df43116d70c208b6da45f42e3ad900334c969b0ebdba77",
          "transactionIndex": "0xb",
          "logIndex": "0x9",
          "removed": false
        },
        {
          "address": "0x00b036b58a818b1bc34d502d3fe730db729e62ac",
          "topics": [
            "0xf208f4912782fd25c7f114ca3723a2d5dd6f3bcc3ac8db5af63baa85f711d5ec",
            "0xcb96fd1c797c79d857ef6649b6d330d31115fe9dea91c83beef9fb3eb2de1118",
            "0x000000000000000000000000f969aee60879c54baaed9f3ed26147db216fd664"
          ],
          "data": "0xfffffffffffffffffffffffffffffffffffffffffffffffffffffffffffcd9fcfffffffffffffffffffffffffffffffffffffffffffffffffffffffffffd08dc000000000000000000000000000000000000000000000000000028ac80bff62c0000000000000000000000000000000000000000000000000000000000001c66",
          "blockHash": "0x25fc7620d004c7ad29b74417d0cd62fc9e2b8cc62d1c6d4d0cf7e74a0cf2eb0c",
          "blockNumber": "0x2ce804f",
          "blockTimestamp": "0x69bc2d9b",
          "transactionHash": "0xd98b0831dd52222162df43116d70c208b6da45f42e3ad900334c969b0ebdba77",
          "transactionIndex": "0xb",
          "logIndex": "0xa",
          "removed": false
        },
        {
          "address": "0x0c8a8efd21533d1181451effafceb6680cf19ea8",
          "topics": [
            "0xddf252ad1be2c89b69c2b068fc378daa952ba7f163c4a11628f55a4df523b3ef",
            "0x000000000000000000000000e752c55acabc5f745ab36a0993bf35c6555b60e4",
            "0x00000000000000000000000000b036b58a818b1bc34d502d3fe730db729e62ac"
          ],
          "data": "0x0000000000000000000000000000000000000000000000000394f7811486433f",
          "blockHash": "0x25fc7620d004c7ad29b74417d0cd62fc9e2b8cc62d1c6d4d0cf7e74a0cf2eb0c",
          "blockNumber": "0x2ce804f",
          "blockTimestamp": "0x69bc2d9b",
          "transactionHash": "0xd98b0831dd52222162df43116d70c208b6da45f42e3ad900334c969b0ebdba77",
          "transactionIndex": "0xb",
          "logIndex": "0xb",
          "removed": false
        },
        {
          "address": "0x87f578ab6796283ffb48f27902439451be9e5e35",
          "topics": [
            "0xddf252ad1be2c89b69c2b068fc378daa952ba7f163c4a11628f55a4df523b3ef",
            "0x000000000000000000000000e752c55acabc5f745ab36a0993bf35c6555b60e4",
            "0x00000000000000000000000000b036b58a818b1bc34d502d3fe730db729e62ac"
          ],
          "data": "0x000000000000000000000000000000000000000000000000000000001f05ca57",
          "blockHash": "0x25fc7620d004c7ad29b74417d0cd62fc9e2b8cc62d1c6d4d0cf7e74a0cf2eb0c",
          "blockNumber": "0x2ce804f",
          "blockTimestamp": "0x69bc2d9b",
          "transactionHash": "0xd98b0831dd52222162df43116d70c208b6da45f42e3ad900334c969b0ebdba77",
          "transactionIndex": "0xb",
          "logIndex": "0xc",
          "removed": false
        }
      ],
      "logsBloom": "0x1000000000000000000000200000000004000000000000000040000000000000000000000000000000004000000000080000000000100000000000000000000000000000000000010000000880800000000000000000000000000000100000000004000002000000000000000000c800000000000040000000000010000000000000000001000000000000000008000020000000000000000000000000000000000004000000000000000000000000000800000000000020001000000000000000000002080000000800000000000000000000008000000000000000000020004000000000000000000000000000000004000000000002000000000000002010",
      "type": "0x2",
      "transactionHash": "0xd98b0831dd52222162df43116d70c208b6da45f42e3ad900334c969b0ebdba77",
      "transactionIndex": "0xb",
      "blockHash": "0x25fc7620d004c7ad29b74417d0cd62fc9e2b8cc62d1c6d4d0cf7e74a0cf2eb0c",
      "blockNumber": "0x2ce804f",
      "gasUsed": "0x37610",
      "effectiveGasPrice": "0x7a121",
      "blobGasUsed": "0x197d0",
      "from": "0xe752c55acabc5f745ab36a0993bf35c6555b60e4",
      "to": "0xf969aee60879c54baaed9f3ed26147db216fd664",
      "contractAddress": null,
      "daFootprintGasScalar": "0x190",
      "l1BaseFeeScalar": "0x7d0",
      "l1BlobBaseFee": "0x1",
      "l1BlobBaseFeeScalar": "0xdbba0",
      "l1Fee": "0x13f",
      "l1GasPrice": "0xa",
      "l1GasUsed": "0x105e"
    }
  ],
  "libraries": [],
  "pending": [],
  "returns": {},
  "timestamp": 1773940124176,
  "chain": 1301,
  "commit": "25fbf8a"
}