{
  "transactions": [
    {
      "hash": "0xc2cd0933cd0ec53257402380aaf266d88409ca12b17231e5194dac04cd5901a7",
      "transactionType": "CALL",
      "contractName": null,
      "contractAddress": "0x0c8a8efd21533d1181451effafceb6680cf19ea8",
      "function": "mint(address,uint256)",
      "arguments": [
        "0xe752c55ACAbC5F745AB36a0993bf35c6555B60e4",
        "10000000000000000000"
      ],
      "transaction": {
        "from": "0xe752c55acabc5f745ab36a0993bf35c6555b60e4",
        "to": "0x0c8a8efd21533d1181451effafceb6680cf19ea8",
        "gas": "0xc1a6",
        "value": "0x0",
        "input": "0x40c10f19000000000000000000000000e752c55acabc5f745ab36a0993bf35c6555b60e40000000000000000000000000000000000000000000000008ac7230489e80000",
        "nonce": "0xd7",
        "chainId": "0x515"
      },
      "additionalContracts": [],
      "isFixedGasLimit": false
    },
    {
      "hash": "0x449b19fba06162d631f3a1d91f90e61e399dcd670af52fd79ec23962e65d40d9",
      "transactionType": "CALL",
      "contractName": null,
      "contractAddress": "0x87f578ab6796283ffb48f27902439451be9e5e35",
      "function": "mint(address,uint256)",
      "arguments": [
        "0xe752c55ACAbC5F745AB36a0993bf35c6555B60e4",
        "25000000000"
      ],
      "transaction": {
        "from": "0xe752c55acabc5f745ab36a0993bf35c6555b60e4",
        "to": "0x87f578ab6796283ffb48f27902439451be9e5e35",
        "gas": "0xc183",
        "value": "0x0",
        "input": "0x40c10f19000000000000000000000000e752c55acabc5f745ab36a0993bf35c6555b60e400000000000000000000000000000000000000000000000000000005d21dba00",
        "nonce": "0xd8",
        "chainId": "0x515"
      },
      "additionalContracts": [],
      "isFixedGasLimit": false
    },
    {
      "hash": "0x2612d57be82849c6c68f8350d4e152e222e5aaec354949fe11d90de0f0f7a672",
      "transactionType": "CALL",
      "contractName": null,
      "contractAddress": "0x0c8a8efd21533d1181451effafceb6680cf19ea8",
      "function": "approve(address,uint256)",
      "arguments": [
        "0x000000000022D473030F116dDEE9F6B43aC78BA3",
        "115792089237316195423570985008687907853269984665640564039457584007913129639935"
      ],
      "transaction": {
        "from": "0xe752c55acabc5f745ab36a0993bf35c6555b60e4",
        "to": "0x0c8a8efd21533d1181451effafceb6680cf19ea8",
        "gas": "0x107fc",
        "value": "0x0",
        "input": "0x095ea7b3000000000000000000000000000000000022d473030f116ddee9f6b43ac78ba3ffffffffffffffffffffffffffffffffffffffffffffffffffffffffffffffff",
        "nonce": "0xd9",
        "chainId": "0x515"
      },
      "additionalContracts": [],
      "isFixedGasLimit": false
    },
    {
      "hash": "0x158aa6616d69208e2042455bf3045323435a4fbc50c0c06552ed4bcbf04dc17e",
      "transactionType": "CALL",
      "contractName": null,
      "contractAddress": "0x87f578ab6796283ffb48f27902439451be9e5e35",
      "function": "approve(address,uint256)",
      "arguments": [
        "0x000000000022D473030F116dDEE9F6B43aC78BA3",
        "115792089237316195423570985008687907853269984665640564039457584007913129639935"
      ],
      "transaction": {
        "from": "0xe752c55acabc5f745ab36a0993bf35c6555b60e4",
        "to": "0x87f578ab6796283ffb48f27902439451be9e5e35",
        "gas": "0x107fc",
        "value": "0x0",
        "input": "0x095ea7b3000000000000000000000000000000000022d473030f116ddee9f6b43ac78ba3ffffffffffffffffffffffffffffffffffffffffffffffffffffffffffffffff",
        "nonce": "0xda",
        "chainId": "0x515"
      },
      "additionalContracts": [],
      "isFixedGasLimit": false
    },
    {
      "hash": "0x0cfae9b8a1a025091d7f85d7e918a7f8b1d633170509473ec986d84e76946401",
      "transactionType": "CALL",
      "contractName": null,
      "contractAddress": "0x000000000022d473030f116ddee9f6b43ac78ba3",
      "function": "approve(address,address,uint160,uint48)",
      "arguments": [
        "0x0c8a8eFd21533d1181451eFfAfceb6680CF19EA8",
        "0xf969Aee60879C54bAAed9F3eD26147Db216Fd664",
        "1461501637330902918203684832716283019655932542975",
        "281474976710655"
      ],
      "transaction": {
        "from": "0xe752c55acabc5f745ab36a0993bf35c6555b60e4",
        "to": "0x000000000022d473030f116ddee9f6b43ac78ba3",
        "gas": "0x1112d",
        "value": "0x0",
        "input": "0x87517c450000000000000000000000000c8a8efd21533d1181451effafceb6680cf19ea8000000000000000000000000f969aee60879c54baaed9f3ed26147db216fd664000000000000000000000000ffffffffffffffffffffffffffffffffffffffff0000000000000000000000000000000000000000000000000000ffffffffffff",
        "nonce": "0xdb",
        "chainId": "0x515"
      },
      "additionalContracts": [],
      "isFixedGasLimit": false
    },
    {
      "hash": "0xaf62362c6c961069198d5bd891e07123223f0ee492f5583225394091f6f9dd22",
      "transactionType": "CALL",
      "contractName": null,
      "contractAddress": "0x000000000022d473030f116ddee9f6b43ac78ba3",
      "function": "approve(address,address,uint160,uint48)",
      "arguments": [
        "0x87F578AB6796283ffb48F27902439451be9e5e35",
        "0xf969Aee60879C54bAAed9F3eD26147Db216Fd664",
        "1461501637330902918203684832716283019655932542975",
        "281474976710655"
      ],
      "transaction": {
        "from": "0xe752c55acabc5f745ab36a0993bf35c6555b60e4",
        "to": "0x000000000022d473030f116ddee9f6b43ac78ba3",
        "gas": "0x1112d",
        "value": "0x0",
        "input": "0x87517c4500000000000000000000000087f578ab6796283ffb48f27902439451be9e5e35000000000000000000000000f969aee60879c54baaed9f3ed26147db216fd664000000000000000000000000ffffffffffffffffffffffffffffffffffffffff0000000000000000000000000000000000000000000000000000ffffffffffff",
        "nonce": "0xdc",
        "chainId": "0x515"
      },
      "additionalContracts": [],
      "isFixedGasLimit": false
    },
    {
      "hash": "0xc1a6745947d62b2ca0ee7477f09652011bc32a6bc9edc2548f1a035e10172231",
      "transactionType": "CALL",
      "contractName": null,
      "contractAddress": "0xf969aee60879c54baaed9f3ed26147db216fd664",
      "function": "modifyLiquidities(bytes,uint256)",
      "arguments": [
        "0x000000000000000000000000000000000000000000000000000000000000004000000000000000000000000000000000000000000000000000000000000000800000000000000000000000000000000000000000000000000000000000000002020d00000000000000000000000000000000000000000000000000000000000000000000000000000000000000000000000000000000000000000000000000020000000000000000000000000000000000000000000000000000000000000040000000000000000000000000000000000000000000000000000000000000020000000000000000000000000000000000000000000000000000000000000001a00000000000000000000000000c8a8efd21533d1181451effafceb6680cf19ea800000000000000000000000087f578ab6796283ffb48f27902439451be9e5e350000000000000000000000000000000000000000000000000000000000800000000000000000000000000000000000000000000000000000000000000000003c000000000000000000000000bba8ac1decc79495bfb10cb0368a82ca185f20c8fffffffffffffffffffffffffffffffffffffffffffffffffffffffffffcd9fcfffffffffffffffffffffffffffffffffffffffffffffffffffffffffffd08dc000000000000000000000000000000000000000000000000000028ac80bff62c0000000000000000000000000000000000000000000000000f43fc2c04ee00000000000000000000000000000000000000000000000000000000000135f1b400000000000000000000000000e752c55acabc5f745ab36a0993bf35c6555b60e40000000000000000000000000000000000000000000000000000000000000180000000000000000000000000000000000000000000000000000000000000000000000000000000000000000000000000000000000000000000000000000000400000000000000000000000000c8a8efd21533d1181451effafceb6680cf19ea800000000000000000000000087f578ab6796283ffb48f27902439451be9e5e35",
        "1773938864"
      ],
      "transaction": {
        "from": "0xe752c55acabc5f745ab36a0993bf35c6555b60e4",
        "to": "0xf969aee60879c54baaed9f3ed26147db216fd664",
        "gas": "0x8eaee",
        "value": "0x0",
        "input": "0xdd46508f00000000000000000000000000000000000000000000000000000000000000400000000000000000000000000000000000000000000000000000000069bc28b00000000000000000000000000000000000000000000000000000000000000300000000000000000000000000000000000000000000000000000000000000004000000000000000000000000000000000000000000000000000000000000000800000000000000000000000000000000000000000000000000000000000000002020d00000000000000000000000000000000000000000000000000000000000000000000000000000000000000000000000000000000000000000000000000020000000000000000000000000000000000000000000000000000000000000040000000000000000000000000000000000000000000000000000000000000020000000000000000000000000000000000000000000000000000000000000001a00000000000000000000000000c8a8efd21533d1181451effafceb6680cf19ea800000000000000000000000087f578ab6796283ffb48f27902439451be9e5e350000000000000000000000000000000000000000000000000000000000800000000000000000000000000000000000000000000000000000000000000000003c000000000000000000000000bba8ac1decc79495bfb10cb0368a82ca185f20c8fffffffffffffffffffffffffffffffffffffffffffffffffffffffffffcd9fcfffffffffffffffffffffffffffffffffffffffffffffffffffffffffffd08dc000000000000000000000000000000000000000000000000000028ac80bff62c0000000000000000000000000000000000000000000000000f43fc2c04ee00000000000000000000000000000000000000000000000000000000000135f1b400000000000000000000000000e752c55acabc5f745ab36a0993bf35c6555b60e40000000000000000000000000000000000000000000000000000000000000180000000000000000000000000000000000000000000000000000000000000000000000000000000000000000000000000000000000000000000000000000000400000000000000000000000000c8a8efd21533d1181451effafceb6680cf19ea800000000000000000000000087f578ab6796283ffb48f27902439451be9e5e35",
        "nonce": "0xdd",
        "chainId": "0x515"
      },
      "additionalContracts": [],
      "isFixedGasLimit": false
    }
  ],
  "receipts": [
    {
      "status": "0x1",
      "cumulativeGasUsed": "0x764bf",
      "logs": [
        {
          "address": "0x0c8a8efd21533d1181451effafceb6680cf19ea8",
          "topics": [
            "0xddf252ad1be2c89b69c2b068fc378daa952ba7f163c4a11628f55a4df523b3ef",
            "0x0000000000000000000000000000000000000000000000000000000000000000",
            "0x000000000000000000000000e752c55acabc5f745ab36a0993bf35c6555b60e4"
          ],
          "data": "0x0000000000000000000000000000000000000000000000008ac7230489e80000",
          "blockHash": "0xc577512d18bfe377aabf781bb2062ea71fa53b4e4fd484035b39962b3a10c4d9",
          "blockNumber": "0x2ce7b41",
          "blockTimestamp": "0x69bc288d",
          "transactionHash": "0xc2cd0933cd0ec53257402380aaf266d88409ca12b17231e5194dac04cd5901a7",
          "transactionIndex": "0x6",
          "logIndex": "0x4",
          "removed": false
        }
      ],
      "logsBloom": "0x00000000000000000000002000000000040000000000000000400000000000000000000000000000000000000000000000000000000000000000000000000000000000000000000000000008000000000000000000000000000000000000000000040000020000000000000000008800000000000000000000000010000000000000000000000000000000000000000000000000000000000000000000000000000000000000000000000000000000000000000000000000000000000000000000000002000000000000000000000000000000008000000000000000000020000000000000000000000000000000000000000000000000000000000000000000",
      "type": "0x2",
      "transactionHash": "0xc2cd0933cd0ec53257402380aaf266d88409ca12b17231e5194dac04cd5901a7",
      "transactionIndex": "0x6",
      "blockHash": "0xc577512d18bfe377aabf781bb2062ea71fa53b4e4fd484035b39962b3a10c4d9",
      "blockNumber": "0x2ce7b41",
      "gasUsed": "0x8469",
      "effectiveGasPrice": "0x7a121",
      "blobGasUsed": "0x9c40",
      "from": "0xe752c55acabc5f745ab36a0993bf35c6555b60e4",
      "to": "0x0c8a8efd21533d1181451effafceb6680cf19ea8",
      "contractAddress": null,
      "daFootprintGasScalar": "0x190",
      "l1BaseFeeScalar": "0x7d0",
      "l1BlobBaseFee": "0x1",
      "l1BlobBaseFeeScalar": "0xdbba0",
      "l1Fee": "0x7d",
      "l1GasPrice": "0xb",
      "l1GasUsed": "0x640"
    },
    {
      "status": "0x1",
      "cumulativeGasUsed": "0xbe4d1",
      "logs": [
        {
          "address": "0x87f578ab6796283ffb48f27902439451be9e5e35",
          "topics": [
            "0xddf252ad1be2c89b69c2b068fc378daa952ba7f163c4a11628f55a4df523b3ef",
            "0x0000000000000000000000000000000000000000000000000000000000000000",
            "0x000000000000000000000000e752c55acabc5f745ab36a0993bf35c6555b60e4"
          ],
          "data": "0x00000000000000000000000000000000000000000000000000000005d21dba00",
          "blockHash": "0xc577512d18bfe377aabf781bb2062ea71fa53b4e4fd484035b39962b3a10c4d9",
          "blockNumber": "0x2ce7b41",
          "blockTimestamp": "0x69bc288d",
          "transactionHash": "0x2612d57be82849c6c68f8350d4e152e222e5aaec354949fe11d90de0f0f7a672",
          "transactionIndex": "0x9",
          "logIndex": "0xc",
          "removed": false
        }
      ],
      "logsBloom": "0x00000000000000000000000000000000040000000000000000000000000000000000000000000000000000000000000800000000000000000000000000000000000000000000000100000008008000000000000000000000000000000000000000000000020000000000000000008800000000000000000000000010000000000000000000000000000000000000000000000000000000000000000000000000000000000000000000000000000000000000000000000000000000000000000000000002000000000000000000000000000000008000000000000000000020000000000000000000000000000000000000000000000000000000000000000000",
      "type": "0x2",
      "transactionHash": "0x2612d57be82849c6c68f8350d4e152e222e5aaec354949fe11d90de0f0f7a672",
      "transactionIndex": "0x9",
      "blockHash": "0xc577512d18bfe377aabf781bb2062ea71fa53b4e4fd484035b39962b3a10c4d9",
      "blockNumber": "0x2ce7b41",
      "gasUsed": "0x8451",
      "effectiveGasPrice": "0x7a121",
      "blobGasUsed": "0x9c40",
      "from": "0xe752c55acabc5f745ab36a0993bf35c6555b60e4",
      "to": "0x87f578ab6796283ffb48f27902439451be9e5e35",
      "contractAddress": null,
      "daFootprintGasScalar": "0x190",
      "l1BaseFeeScalar": "0x7d0",
      "l1BlobBaseFee": "0x1",
      "l1BlobBaseFeeScalar": "0xdbba0",
      "l1Fee": "0x7d",
      "l1GasPrice": "0xb",
      "l1GasUsed": "0x640"
    },
    {
      "status": "0x1",
      "cumulativeGasUsed": "0xc9952",
      "logs": [
        {
          "address": "0x0c8a8efd21533d1181451effafceb6680cf19ea8",
          "topics": [
            "0x8c5be1e5ebec7d5bd14f71427d1e84f3dd0314c0f7b2291e5b200ac8c7c3b925",
            "0x000000000000000000000000e752c55acabc5f745ab36a0993bf35c6555b60e4",
            "0x000000000000000000000000000000000022d473030f116ddee9f6b43ac78ba3"
          ],
          "data": "0xffffffffffffffffffffffffffffffffffffffffffffffffffffffffffffffff",
          "blockHash": "0xc577512d18bfe377aabf781bb2062ea71fa53b4e4fd484035b39962b3a10c4d9",
          "blockNumber": "0x2ce7b41",
          "blockTimestamp": "0x69bc288d",
          "transactionHash": "0x158aa6616d69208e2042455bf3045323435a4fbc50c0c06552ed4bcbf04dc17e",
          "transactionIndex": "0xa",
          "logIndex": "0xd",
          "removed": false
        }
      ],
      "logsBloom": "0x00000000000000000000002000000000040000000000000000400000000000000000000000000000000000000000000000000000800000000000000000200000000000000000000000004000000000000000000000000800000000000000000000040000000000000000000000008000000000000000000000000000000000000000000000000000000000000000000000000000000000000000000000000000020000000000000000000000000000000000000000000000000000000000000000000000000000000000000000000000000000008000000000000000000000000010000000000000000000000000000000000000000000000000000000000000",
      "type": "0x2",
      "transactionHash": "0x158aa6616d69208e2042455bf3045323435a4fbc50c0c06552ed4bcbf04dc17e",
      "transactionIndex": "0xa",
      "blockHash": "0xc577512d18bfe377aabf781bb2062ea71fa53b4e4fd484035b39962b3a10c4d9",
      "blockNumber": "0x2ce7b41",
      "gasUsed": "0xb481",
      "effectiveGasPrice": "0x7a121",
      "blobGasUsed": "0x9c40",
      "from": "0xe752c55acabc5f745ab36a0993bf35c6555b60e4",
      "to": "0x0c8a8efd21533d1181451effafceb6680cf19ea8",
      "contractAddress": null,
      "daFootprintGasScalar": "0x190",
      "l1BaseFeeScalar": "0x7d0",
      "l1BlobBaseFee": "0x1",
      "l1BlobBaseFeeScalar": "0xdbba0",
      "l1Fee": "0x7d",
      "l1GasPrice": "0xb",
      "l1GasUsed": "0x640"
    },
    {
      "status": "0x1",
      "cumulativeGasUsed": "0xd4dd3",
      "logs": [
        {
          "address": "0x87f578ab6796283ffb48f27902439451be9e5e35",
          "topics": [
            "0x8c5be1e5ebec7d5bd14f71427d1e84f3dd0314c0f7b2291e5b200ac8c7c3b925",
            "0x000000000000000000000000e752c55acabc5f745ab36a0993bf35c6555b60e4",
            "0x000000000000000000000000000000000022d473030f116ddee9f6b43ac78ba3"
          ],
          "data": "0xffffffffffffffffffffffffffffffffffffffffffffffffffffffffffffffff",
          "blockHash": "0xc577512d18bfe377aabf781bb2062ea71fa53b4e4fd484035b39962b3a10c4d9",
          "blockNumber": "0x2ce7b41",
          "blockTimestamp": "0x69bc288d",
          "transactionHash": "0x449b19fba06162d631f3a1d91f90e61e399dcd670af52fd79ec23962e65d40d9",
          "transactionIndex": "0xb",
          "logIndex": "0xe",
          "removed": false
        }
      ],
      "logsBloom": "0x00000000000000000000000000000000040000000000000000000000000000000000000000000000000000000000000800000000800000000000000000200000000000000000000100004000008000000000000000000800000000000000000000000000000000000000000000008000000000000000000000000000000000000000000000000000000000000000000000000000000000000000000000000000020000000000000000000000000000000000000000000000000000000000000000000000000000000000000000000000000000008000000000000000000000000010000000000000000000000000000000000000000000000000000000000000",
      "type": "0x2",
      "transactionHash": "0x449b19fba06162d631f3a1d91f90e61e399dcd670af52fd79ec23962e65d40d9",
      "transactionIndex": "0xb",
      "blockHash": "0xc577512d18bfe377aabf781bb2062ea71fa53b4e4fd484035b39962b3a10c4d9",
      "blockNumber": "0x2ce7b41",
      "gasUsed": "0xb481",
      "effectiveGasPrice": "0x7a121",
      "blobGasUsed": "0x9c40",
      "from": "0xe752c55acabc5f745ab36a0993bf35c6555b60e4",
      "to": "0x87f578ab6796283ffb48f27902439451be9e5e35",
      "contractAddress": null,
      "daFootprintGasScalar": "0x190",
      "l1BaseFeeScalar": "0x7d0",
      "l1BlobBaseFee": "0x1",
      "l1BlobBaseFeeScalar": "0xdbba0",
      "l1Fee": "0x7d",
      "l1GasPrice": "0xb",
      "l1GasUsed": "0x640"
    },
    {
      "status": "0x1",
      "cumulativeGasUsed": "0xe089d",
      "logs": [
        {
          "address": "0x000000000022d473030f116ddee9f6b43ac78ba3",
          "topics": [
            "0xda9fa7c1b00402c17d0161b249b1ab8bbec047c5a52207b9c112deffd817036b",
            "0x000000000000000000000000e752c55acabc5f745ab36a0993bf35c6555b60e4",
            "0x0000000000000000000000000c8a8efd21533d1181451effafceb6680cf19ea8",
            "0x000000000000000000000000f969aee60879c54baaed9f3ed26147db216fd664"
          ],
          "data": "0x000000000000000000000000ffffffffffffffffffffffffffffffffffffffff0000000000000000000000000000000000000000000000000000ffffffffffff",
          "blockHash": "0xc577512d18bfe377aabf781bb2062ea71fa53b4e4fd484035b39962b3a10c4d9",
          "blockNumber": "0x2ce7b41",
          "blockTimestamp": "0x69bc288d",
          "transactionHash": "0x0cfae9b8a1a025091d7f85d7e918a7f8b1d633170509473ec986d84e76946401",
          "transactionIndex": "0xc",
          "logIndex": "0xf",
          "removed": false
        }
      ],
      "logsBloom": "0x00010000000200000000000000000000040000000000000000000000000000000020000000000000000000000000000000000000000000000000000000080000000000000000000000000000000000000000000000000000000000001000040000000000000000000000000000008000000000000040000000000000000000000020000000000000000000000000000000000000000000000000000000000000000000000000000000000000000000000000000000000000000000080000000000000000000000000000000000000000000000008000000040000000000000000000000000000000000000000000000000000000000000000000000000002400",
      "type": "0x2",
      "transactionHash": "0x0cfae9b8a1a025091d7f85d7e918a7f8b1d633170509473ec986d84e76946401",
      "transactionIndex": "0xc",
      "blockHash": "0xc577512d18bfe377aabf781bb2062ea71fa53b4e4fd484035b39962b3a10c4d9",
      "blockNumber": "0x2ce7b41",
      "gasUsed": "0xbaca",
      "effectiveGasPrice": "0x7a121",
      "blobGasUsed": "0xaa50",
      "from": "0xe752c55acabc5f745ab36a0993bf35c6555b60e4",
      "to": "0x000000000022d473030f116ddee9f6b43ac78ba3",
      "contractAddress": null,
      "daFootprintGasScalar": "0x190",
      "l1BaseFeeScalar": "0x7d0",
      "l1BlobBaseFee": "0x1",
      "l1BlobBaseFeeScalar": "0xdbba0",
      "l1Fee": "0x89",
      "l1GasPrice": "0xb",
      "l1GasUsed": "0x6da"
    },
    {
      "status": "0x1",
      "cumulativeGasUsed": "0x334c2",
      "logs": [
        {
          "address": "0x000000000022d473030f116ddee9f6b43ac78ba3",
          "topics": [
            "0xda9fa7c1b00402c17d0161b249b1ab8bbec047c5a52207b9c112deffd817036b",
            "0x000000000000000000000000e752c55acabc5f745ab36a0993bf35c6555b60e4",
            "0x00000000000000000000000087f578ab6796283ffb48f27902439451be9e5e35",
            "0x000000000000000000000000f969aee60879c54baaed9f3ed26147db216fd664"
          ],
          "data": "0x000000000000000000000000ffffffffffffffffffffffffffffffffffffffff0000000000000000000000000000000000000000000000000000ffffffffffff",
          "blockHash": "0x0000000000000000000000000000000000000000000000000000000000000000",
          "blockNumber": "0x2ce7b42",
          "blockTimestamp": "0x69bc288e",
          "transactionHash": "0xc1a6745947d62b2ca0ee7477f09652011bc32a6bc9edc2548f1a035e10172231",
          "transactionIndex": "0x3",
          "logIndex": "0x1",
          "removed": false
        }
      ],
      "logsBloom": "0x00010000000000020000000000000000040000000000000000000000000000000000000000000000000000000000000000000000000000000000000000080000000000000000000000000000000000000000000000000000000000001000000000000000000000000000000000008000000000004040000000000000000000000020200000000000000000000000000000000000000000000000000000000000000000000000000000000000000000000000000000000000000000080000000000000000000000000000000000000000000000008000000040000000000000000000000000000000000000000000000000000000000000000000000000002400",
      "type": "0x2",
      "transactionHash": "0xc1a6745947d62b2ca0ee7477f09652011bc32a6bc9edc2548f1a035e10172231",
      "transactionIndex": "0x3",
      "blockHash": "0x0000000000000000000000000000000000000000000000000000000000000000",
      "blockNumber": "0x2ce7b42",
      "gasUsed": "0xbaca",
      "effectiveGasPrice": "0x7a121",
      "blobGasUsed": "0xaa50",
      "from": "0xe752c55acabc5f745ab36a0993bf35c6555b60e4",
      "to": "0x000000000022d473030f116ddee9f6b43ac78ba3",
      "contractAddress": null,
      "daFootprintGasScalar": "0x190",
      "l1BaseFeeScalar": "0x7d0",
      "l1BlobBaseFee": "0x1",
      "l1BlobBaseFeeScalar": "0xdbba0",
      "l1Fee": "0xad",
      "l1GasPrice": "0xb",
      "l1GasUsed": "0x6da"
    },
    {
      "status": "0x1",
      "cumulativeGasUsed": "0x9a990",
      "logs": [
        {
          "address": "0xf969aee60879c54baaed9f3ed26147db216fd664",
          "topics": [
            "0xddf252ad1be2c89b69c2b068fc378daa952ba7f163c4a11628f55a4df523b3ef",
            "0x0000000000000000000000000000000000000000000000000000000000000000",
            "0x000000000000000000000000e752c55acabc5f745ab36a0993bf35c6555b60e4",
            "0x0000000000000000000000000000000000000000000000000000000000001c65"
          ],
          "data": "0x",
          "blockHash": "0x0000000000000000000000000000000000000000000000000000000000000000",
          "blockNumber": "0x2ce7b42",
          "blockTimestamp": "0x69bc288e",
          "transactionHash": "0xaf62362c6c961069198d5bd891e07123223f0ee492f5583225394091f6f9dd22",
          "transactionIndex": "0x4",
          "logIndex": "0x2",
          "removed": false
        },
        {
          "address": "0x00b036b58a818b1bc34d502d3fe730db729e62ac",
          "topics": [
            "0xf208f4912782fd25c7f114ca3723a2d5dd6f3bcc3ac8db5af63baa85f711d5ec",
            "0xcb96fd1c797c79d857ef6649b6d330d31115fe9dea91c83beef9fb3eb2de1118",
            "0x000000000000000000000000f969aee60879c54baaed9f3ed26147db216fd664"
          ],
          "data": "0xfffffffffffffffffffffffffffffffffffffffffffffffffffffffffffcd9fcfffffffffffffffffffffffffffffffffffffffffffffffffffffffffffd08dc000000000000000000000000000000000000000000000000000028ac80bff62c0000000000000000000000000000000000000000000000000000000000001c65",
          "blockHash": "0x0000000000000000000000000000000000000000000000000000000000000000",
          "blockNumber": "0x2ce7b42",
          "blockTimestamp": "0x69bc288e",
          "transactionHash": "0xaf62362c6c961069198d5bd891e07123223f0ee492f5583225394091f6f9dd22",
          "transactionIndex": "0x4",
          "logIndex": "0x3",
          "removed": false
        },
        {
          "address": "0x0c8a8efd21533d1181451effafceb6680cf19ea8",
          "topics": [
            "0xddf252ad1be2c89b69c2b068fc378daa952ba7f163c4a11628f55a4df523b3ef",
            "0x000000000000000000000000e752c55acabc5f745ab36a0993bf35c6555b60e4",
            "0x00000000000000000000000000b036b58a818b1bc34d502d3fe730db729e62ac"
          ],
          "data": "0x0000000000000000000000000000000000000000000000000394f7811486433f",
          "blockHash": "0x0000000000000000000000000000000000000000000000000000000000000000",
          "blockNumber": "0x2ce7b42",
          "blockTimestamp": "0x69bc288e",
          "transactionHash": "0xaf62362c6c961069198d5bd891e07123223f0ee492f5583225394091f6f9dd22",
          "transactionIndex": "0x4",
          "logIndex": "0x4",
          "removed": false
        },
        {
          "address": "0x87f578ab6796283ffb48f27902439451be9e5e35",
          "topics": [
            "0xddf252ad1be2c89b69c2b068fc378daa952ba7f163c4a11628f55a4df523b3ef",
            "0x000000000000000000000000e752c55acabc5f745ab36a0993bf35c6555b60e4",
            "0x00000000000000000000000000b036b58a818b1bc34d502d3fe730db729e62ac"
          ],
          "data": "0x000000000000000000000000000000000000000000000000000000001f05ca57",
          "blockHash": "0x0000000000000000000000000000000000000000000000000000000000000000",
          "blockNumber": "0x2ce7b42",
          "blockTimestamp": "0x69bc288e",
          "transactionHash": "0xaf62362c6c961069198d5bd891e07123223f0ee492f5583225394091f6f9dd22",
          "transactionIndex": "0x4",
          "logIndex": "0x5",
          "removed": false
        }
      ],
      "logsBloom": "0x0000000000000000000000200000000004000000000000000040000000000000000000000000000000004000000000080020000000100000000000000000000000000000000000010000000800800000000000000000000000000000100000000004000002000000000000000000c800000000000040000000000010000000000000000001000000000000000008000020000000000000000000000000000000000004000000000000000400000000000800000000000020000000000000000000000002080000000800000000000000000000008000000000001000000020004000000000000000000000000000000004000000000002000000000000002010",
      "type": "0x2",
      "transactionHash": "0xaf62362c6c961069198d5bd891e07123223f0ee492f5583225394091f6f9dd22",
      "transactionIndex": "0x4",
      "blockHash": "0x0000000000000000000000000000000000000000000000000000000000000000",
      "blockNumber": "0x2ce7b42",
      "gasUsed": "0x674ce",
      "effectiveGasPrice": "0x7a121",
      "blobGasUsed": "0x197d0",
      "from": "0xe752c55acabc5f745ab36a0993bf35c6555b60e4",
      "to": "0xf969aee60879c54baaed9f3ed26147db216fd664",
      "contractAddress": null,
      "daFootprintGasScalar": "0x190",
      "l1BaseFeeScalar": "0x7d0",
      "l1BlobBaseFee": "0x1",
      "l1BlobBaseFeeScalar": "0xdbba0",
      "l1Fee": "0xad",
      "l1GasPrice": "0xb",
      "l1GasUsed": "0x105e"
    }
  ],
  "libraries": [],
  "pending": [],
  "returns": {},
  "timestamp": 1773938829693,
  "chain": 1301,
  "commit": "25fbf8a"
}