{
  "transactions": [
    {
      "hash": "0x2684e3fd604920fce0304d22fffc442731cda58f410bb213c51fdbb4001f1501",
      "transactionType": "CREATE",
      "contractName": "MockERC20",
      "contractAddress": "0xe55c5ace3b0645aead6d685d29dfec35245619bc",
      "function": null,
      "arguments": [
        "Mock USDC",
        "mUSDC",
        "6"
      ],
      "transaction": {
        "from": "0xe752c55acabc5f745ab36a0993bf35c6555b60e4",
        "gas": "0x9b21d",
        "value": "0x0",
        "input": "0x60a06040523461033057610a6f8038038061001981610334565b9283398101906060818303126103305780516001600160401b0381116103305782610045918301610359565b60208201519092906001600160401b03811161033057604091610069918401610359565b91015160ff811681036103305782516001600160401b03811161024157600354600181811c91168015610326575b602082101461022357601f81116102c3575b506020601f821160011461026057819293945f92610255575b50508160011b915f199060031b1c1916176003555b81516001600160401b03811161024157600454600181811c91168015610237575b602082101461022357601f81116101c0575b50602092601f821160011461015f57928192935f92610154575b50508160011b915f199060031b1c1916176004555b6080526040516106c490816103ab82396080518161031c0152f35b015190505f80610124565b601f1982169360045f52805f20915f5b8681106101a85750836001959610610190575b505050811b01600455610139565b01515f1960f88460031b161c191690555f8080610182565b9192602060018192868501518155019401920161016f565b60045f527f8a35acfbc15ff81a39ae7d344fd709f28e8600b4aa8c65c6b64bfe7fe36bd19b601f830160051c81019160208410610219575b601f0160051c01905b81811061020e575061010a565b5f8155600101610201565b90915081906101f8565b634e487b7160e01b5f52602260045260245ffd5b90607f16906100f8565b634e487b7160e01b5f52604160045260245ffd5b015190505f806100c2565b601f1982169060035f52805f20915f5b8181106102ab57509583600195969710610293575b505050811b016003556100d7565b01515f1960f88460031b161c191690555f8080610285565b9192602060018192868b015181550194019201610270565b60035f527fc2575a0e9e593c00f959f8c92f12db2869c3395a3b0502d05e2516446f71f85b601f830160051c8101916020841061031c575b601f0160051c01905b81811061031157506100a9565b5f8155600101610304565b90915081906102fb565b90607f1690610097565b5f80fd5b6040519190601f01601f191682016001600160401b0381118382101761024157604052565b81601f82011215610330578051906001600160401b03821161024157610388601f8301601f1916602001610334565b928284526020838301011161033057815f9260208093018386015e830101529056fe6080806040526004361015610012575f80fd5b5f3560e01c90816306fdde03146104bf57508063095ea7b31461043d57806318160ddd1461042057806323b872dd14610340578063313ce5671461030357806340c10f191461026157806370a082311461022a57806395d89b411461010f578063a9059cbb146100de5763dd62ed3e1461008a575f80fd5b346100da5760403660031901126100da576100a36105b8565b6100ab6105ce565b6001600160a01b039182165f908152600160209081526040808320949093168252928352819020549051908152f35b5f80fd5b346100da5760403660031901126100da576101046100fa6105b8565b60243590336105e4565b602060405160018152f35b346100da575f3660031901126100da576040515f6004548060011c90600181168015610220575b60208310811461020c578285529081156101f0575060011461019b575b50819003601f01601f191681019067ffffffffffffffff821181831017610187576101838291826040528261058e565b0390f35b634e487b7160e01b5f52604160045260245ffd5b905060045f527f8a35acfbc15ff81a39ae7d344fd709f28e8600b4aa8c65c6b64bfe7fe36bd19b5f905b8282106101da57506020915082010182610153565b60018160209254838588010152019101906101c5565b90506020925060ff191682840152151560051b82010182610153565b634e487b7160e01b5f52602260045260245ffd5b91607f1691610136565b346100da5760203660031901126100da576001600160a01b0361024b6105b8565b165f525f602052602060405f2054604051908152f35b346100da5760403660031901126100da5761027a6105b8565b6001600160a01b031660243581156102f057600254908082018092116102dc5760207fddf252ad1be2c89b69c2b068fc378daa952ba7f163c4a11628f55a4df523b3ef915f9360025584845283825260408420818154019055604051908152a3005b634e487b7160e01b5f52601160045260245ffd5b63ec442f0560e01b5f525f60045260245ffd5b346100da575f3660031901126100da57602060405160ff7f0000000000000000000000000000000000000000000000000000000000000000168152f35b346100da5760603660031901126100da576103596105b8565b6103616105ce565b6001600160a01b0382165f8181526001602081815260408084203385529091529091205491936044359392909181016103a0575b5061010493506105e4565b8381106104055784156103f25733156103df57610104945f52600160205260405f2060018060a01b0333165f526020528360405f209103905584610395565b634a1406b160e11b5f525f60045260245ffd5b63e602df0560e01b5f525f60045260245ffd5b8390637dc7a0d960e11b5f523360045260245260445260645ffd5b346100da575f3660031901126100da576020600254604051908152f35b346100da5760403660031901126100da576104566105b8565b6024359033156103f2576001600160a01b03169081156103df57335f52600160205260405f20825f526020528060405f20556040519081527f8c5be1e5ebec7d5bd14f71427d1e84f3dd0314c0f7b2291e5b200ac8c7c3b92560203392a3602060405160018152f35b346100da575f3660031901126100da575f6003548060011c90600181168015610584575b60208310811461020c578285529081156101f0575060011461052f5750819003601f01601f191681019067ffffffffffffffff821181831017610187576101838291826040528261058e565b905060035f527fc2575a0e9e593c00f959f8c92f12db2869c3395a3b0502d05e2516446f71f85b5f905b82821061056e57506020915082010182610153565b6001816020925483858801015201910190610559565b91607f16916104e3565b602060409281835280519182918282860152018484015e5f828201840152601f01601f1916010190565b600435906001600160a01b03821682036100da57565b602435906001600160a01b03821682036100da57565b6001600160a01b031690811561067b576001600160a01b03169182156102f057815f525f60205260405f205481811061066257817fddf252ad1be2c89b69c2b068fc378daa952ba7f163c4a11628f55a4df523b3ef92602092855f525f84520360405f2055845f525f825260405f20818154019055604051908152a3565b8263391434e360e21b5f5260045260245260445260645ffd5b634b637e8f60e11b5f525f60045260245ffdfea2646970667358221220bd2c7cc8593de1264990a23ad31392dd52771912b8f35fd6c7a8a9308105c25764736f6c634300081e0033000000000000000000000000000000000000000000000000000000000000006000000000000000000000000000000000000000000000000000000000000000a0000000000000000000000000000000000000000000000000000000000000000600000000000000000000000000000000000000000000000000000000000000094d6f636b2055534443000000000000000000000000000000000000000000000000000000000000000000000000000000000000000000000000000000000000056d55534443000000000000000000000000000000000000000000000000000000",
        "nonce": "0x66",
        "chainId": "0x515"
      },
      "additionalContracts": [],
      "isFixedGasLimit": false
    },
    {
      "hash": "0xe6de691aa37723737a8094be151b6b913ef247cb888a324a41aaf43517f85c46",
      "transactionType": "CREATE",
      "contractName": "MockERC20",
      "contractAddress": "0x83190ed6aba775d7910ef2f5f94845ca79ccc29e",
      "function": null,
      "arguments": [
        "Mock WETH",
        "mWETH",
        "18"
      ],
      "transaction": {
        "from": "0xe752c55acabc5f745ab36a0993bf35c6555b60e4",
        "gas": "0x9b21d",
        "value": "0x0",
        "input": "0x60a06040523461033057610a6f8038038061001981610334565b9283398101906060818303126103305780516001600160401b0381116103305782610045918301610359565b60208201519092906001600160401b03811161033057604091610069918401610359565b91015160ff811681036103305782516001600160401b03811161024157600354600181811c91168015610326575b602082101461022357601f81116102c3575b506020601f821160011461026057819293945f92610255575b50508160011b915f199060031b1c1916176003555b81516001600160401b03811161024157600454600181811c91168015610237575b602082101461022357601f81116101c0575b50602092601f821160011461015f57928192935f92610154575b50508160011b915f199060031b1c1916176004555b6080526040516106c490816103ab82396080518161031c0152f35b015190505f80610124565b601f1982169360045f52805f20915f5b8681106101a85750836001959610610190575b505050811b01600455610139565b01515f1960f88460031b161c191690555f8080610182565b9192602060018192868501518155019401920161016f565b60045f527f8a35acfbc15ff81a39ae7d344fd709f28e8600b4aa8c65c6b64bfe7fe36bd19b601f830160051c81019160208410610219575b601f0160051c01905b81811061020e575061010a565b5f8155600101610201565b90915081906101f8565b634e487b7160e01b5f52602260045260245ffd5b90607f16906100f8565b634e487b7160e01b5f52604160045260245ffd5b015190505f806100c2565b601f1982169060035f52805f20915f5b8181106102ab57509583600195969710610293575b505050811b016003556100d7565b01515f1960f88460031b161c191690555f8080610285565b9192602060018192868b015181550194019201610270565b60035f527fc2575a0e9e593c00f959f8c92f12db2869c3395a3b0502d05e2516446f71f85b601f830160051c8101916020841061031c575b601f0160051c01905b81811061031157506100a9565b5f8155600101610304565b90915081906102fb565b90607f1690610097565b5f80fd5b6040519190601f01601f191682016001600160401b0381118382101761024157604052565b81601f82011215610330578051906001600160401b03821161024157610388601f8301601f1916602001610334565b928284526020838301011161033057815f9260208093018386015e830101529056fe6080806040526004361015610012575f80fd5b5f3560e01c90816306fdde03146104bf57508063095ea7b31461043d57806318160ddd1461042057806323b872dd14610340578063313ce5671461030357806340c10f191461026157806370a082311461022a57806395d89b411461010f578063a9059cbb146100de5763dd62ed3e1461008a575f80fd5b346100da5760403660031901126100da576100a36105b8565b6100ab6105ce565b6001600160a01b039182165f908152600160209081526040808320949093168252928352819020549051908152f35b5f80fd5b346100da5760403660031901126100da576101046100fa6105b8565b60243590336105e4565b602060405160018152f35b346100da575f3660031901126100da576040515f6004548060011c90600181168015610220575b60208310811461020c578285529081156101f0575060011461019b575b50819003601f01601f191681019067ffffffffffffffff821181831017610187576101838291826040528261058e565b0390f35b634e487b7160e01b5f52604160045260245ffd5b905060045f527f8a35acfbc15ff81a39ae7d344fd709f28e8600b4aa8c65c6b64bfe7fe36bd19b5f905b8282106101da57506020915082010182610153565b60018160209254838588010152019101906101c5565b90506020925060ff191682840152151560051b82010182610153565b634e487b7160e01b5f52602260045260245ffd5b91607f1691610136565b346100da5760203660031901126100da576001600160a01b0361024b6105b8565b165f525f602052602060405f2054604051908152f35b346100da5760403660031901126100da5761027a6105b8565b6001600160a01b031660243581156102f057600254908082018092116102dc5760207fddf252ad1be2c89b69c2b068fc378daa952ba7f163c4a11628f55a4df523b3ef915f9360025584845283825260408420818154019055604051908152a3005b634e487b7160e01b5f52601160045260245ffd5b63ec442f0560e01b5f525f60045260245ffd5b346100da575f3660031901126100da57602060405160ff7f0000000000000000000000000000000000000000000000000000000000000000168152f35b346100da5760603660031901126100da576103596105b8565b6103616105ce565b6001600160a01b0382165f8181526001602081815260408084203385529091529091205491936044359392909181016103a0575b5061010493506105e4565b8381106104055784156103f25733156103df57610104945f52600160205260405f2060018060a01b0333165f526020528360405f209103905584610395565b634a1406b160e11b5f525f60045260245ffd5b63e602df0560e01b5f525f60045260245ffd5b8390637dc7a0d960e11b5f523360045260245260445260645ffd5b346100da575f3660031901126100da576020600254604051908152f35b346100da5760403660031901126100da576104566105b8565b6024359033156103f2576001600160a01b03169081156103df57335f52600160205260405f20825f526020528060405f20556040519081527f8c5be1e5ebec7d5bd14f71427d1e84f3dd0314c0f7b2291e5b200ac8c7c3b92560203392a3602060405160018152f35b346100da575f3660031901126100da575f6003548060011c90600181168015610584575b60208310811461020c578285529081156101f0575060011461052f5750819003601f01601f191681019067ffffffffffffffff821181831017610187576101838291826040528261058e565b905060035f527fc2575a0e9e593c00f959f8c92f12db2869c3395a3b0502d05e2516446f71f85b5f905b82821061056e57506020915082010182610153565b6001816020925483858801015201910190610559565b91607f16916104e3565b602060409281835280519182918282860152018484015e5f828201840152601f01601f1916010190565b600435906001600160a01b03821682036100da57565b602435906001600160a01b03821682036100da57565b6001600160a01b031690811561067b576001600160a01b03169182156102f057815f525f60205260405f205481811061066257817fddf252ad1be2c89b69c2b068fc378daa952ba7f163c4a11628f55a4df523b3ef92602092855f525f84520360405f2055845f525f825260405f20818154019055604051908152a3565b8263391434e360e21b5f5260045260245260445260645ffd5b634b637e8f60e11b5f525f60045260245ffdfea2646970667358221220bd2c7cc8593de1264990a23ad31392dd52771912b8f35fd6c7a8a9308105c25764736f6c634300081e0033000000000000000000000000000000000000000000000000000000000000006000000000000000000000000000000000000000000000000000000000000000a0000000000000000000000000000000000000000000000000000000000000001200000000000000000000000000000000000000000000000000000000000000094d6f636b2057455448000000000000000000000000000000000000000000000000000000000000000000000000000000000000000000000000000000000000056d57455448000000000000000000000000000000000000000000000000000000",
        "nonce": "0x67",
        "chainId": "0x515"
      },
      "additionalContracts": [],
      "isFixedGasLimit": false
    },
    {
      "hash": "0x584cb67f4af3c652aa44574b8c13782ce1ca5b4c0a879c5d959047809c6bf094",
      "transactionType": "CREATE",
      "contractName": "AegisPolicy",
      "contractAddress": "0xc42c18ee275a172569d28809745aa97f1a022b7f",
      "function": null,
      "arguments": [
        "0xe752c55ACAbC5F745AB36a0993bf35c6555B60e4",
        "0x9299472A6399Fd1027ebF067571Eb3e3D7837FC4"
      ],
      "transaction": {
        "from": "0xe752c55acabc5f745ab36a0993bf35c6555b60e4",
        "gas": "0xb04e9",
        "value": "0x0",
        "input": "0x60803461011057601f61089638819003918201601f19168301916001600160401b0383118484101761011457808492604094855283398101031261011057610052602061004b83610128565b9201610128565b6001600160a01b039091169081156100fd575f80546001600160a01b031981168417825560405193916001600160a01b03909116907f8be0079c531659141344cd1fd0a4f28419497f9722a3daafe3b4186f6b6457e09080a3600380546001600160a01b03199081163317909155600180549091166001600160a01b039290921691821781555f91825260026020526040909120805460ff19169091179055610759908161013d8239f35b631e4fbdf760e01b5f525f60045260245ffd5b5f80fd5b634e487b7160e01b5f52604160045260245ffd5b51906001600160a01b03821682036101105756fe6080604052600436101561001a575b3615610018575f80fd5b005b5f3560e01c80630c2a869b1461038d578063249d39e9146103715780633eea50771461032f578063715018a6146102d85780637a90b990146102465780638da5cb5b1461021f578063c290d691146101ea578063e4a8fa34146101c6578063f2fde38b14610141578063f7648765146100e0578063f9b09d3e146100c75763ff4ee4670361000e57346100c35760206100bb6100b5366103be565b916105df565b604051908152f35b5f80fd5b346100c35760206100bb6100da366103be565b91610543565b346100c35760403660031901126100c3576100f96103a8565b5060243561ffff811681036100c357335f52600260205261012060ff60405f2054166104bb565b6003805461ffff60a01b191660a09290921b61ffff60a01b16919091179055005b346100c35760203660031901126100c35761015a6103a8565b61016261060a565b6001600160a01b031680156101b3575f80546001600160a01b03198116831782556001600160a01b0316907f8be0079c531659141344cd1fd0a4f28419497f9722a3daafe3b4186f6b6457e09080a3005b631e4fbdf760e01b5f525f60045260245ffd5b346100c3575f3660031901126100c357602061ffff60035460a01c16604051908152f35b346100c35760203660031901126100c357335f52600260205261021360ff60405f2054166104bb565b61001860043533610630565b346100c3575f3660031901126100c3575f546040516001600160a01b039091168152602090f35b346100c3575f3660031901126100c3576001546040516326db15bb60e21b8152306004820152906001600160a01b0316602082602481845afa9081156102cd575f91610297575b6100189250610630565b90506020823d6020116102c5575b816102b260209383610500565b810103126100c35761001891519061028d565b3d91506102a5565b6040513d5f823e3d90fd5b346100c3575f3660031901126100c3576102f061060a565b5f80546001600160a01b0319811682556001600160a01b03167f8be0079c531659141344cd1fd0a4f28419497f9722a3daafe3b4186f6b6457e08280a3005b346100c35760203660031901126100c3576103486103a8565b50335f52600260205261036160ff60405f2054166104bb565b6003805461ffff60a01b19169055005b346100c3575f3660031901126100c35760206040516127108152f35b346100c35760a03660031901126100c35760206100bb610415565b600435906001600160a01b03821682036100c357565b60609060031901126100c357600435906024359060443560048110156100c35790565b919082018092116103ee57565b634e487b7160e01b5f52601160045260245ffd5b818102929181159184041417156103ee57565b60843560048110156100c35780156104b65760018103610477575061271061046061044c60055b61ffff60035460a01c16906103e1565b6103e860643511610464575b600435610402565b0490565b806104729160011c906103e1565b610458565b60028103610490575061271061046061044c600a61043c565b6003036104a75761271061046061044c601461043c565b63e142361760e01b5f5260045ffd5b505f90565b156104c257565b60405162461bcd60e51b8152602060048201526016602482015275417574686f72697a65642073656e646572206f6e6c7960501b6044820152606490fd5b90601f8019910116810190811067ffffffffffffffff82111761052257604052565b634e487b7160e01b5f52604160045260245ffd5b919082039182116103ee57565b9060048310156105cb57821580156105c1575b6105ba578161056491610536565b916001810361058c575061057d61271091606490610402565b04811161058957505f90565b90565b600281036105a4575061057d61271091603290610402565b6003036104a75761057d61271091601490610402565b5050505f90565b5081811115610556565b634e487b7160e01b5f52602160045260245ffd5b9060048310156105cb5782158015610600575b6105ba576105649082610536565b50818110156105f2565b5f546001600160a01b0316330361061d57565b63118cdaa760e01b5f523360045260245ffd5b8147106106e95781610640575050565b5f8091602093604051906106548683610500565b83825285820191601f19870136843751926001600160a01b03165af13d156106e4573d67ffffffffffffffff8111610522576040519061069d601f8201601f1916850183610500565b81525f833d92013e5b156106ae5750565b6064906040519062461bcd60e51b82526004820152600f60248201526e151c985b9cd9995c8819985a5b1959608a1b6044820152fd5b6106a6565b60405162461bcd60e51b8152602060048201526012602482015271496e73756666696369656e742066756e647360701b6044820152606490fdfea2646970667358221220657aebb1fc705a550086b6932d716fa25b09d262d25c954187eb6bfbb57e2ea064736f6c634300081e0033000000000000000000000000e752c55acabc5f745ab36a0993bf35c6555b60e40000000000000000000000009299472a6399fd1027ebf067571eb3e3d7837fc4",
        "nonce": "0x68",
        "chainId": "0x515"
      },
      "additionalContracts": [],
      "isFixedGasLimit": false
    },
    {
      "hash": "0x126539186bc7dafc964c4388149996d10899ec0694c2929b19e59d2a234f984e",
      "transactionType": "CREATE",
      "contractName": "AegisOracle",
      "contractAddress": "0x0649f336c2350a6bdfec655b06dd9bdc4b4b7b2d",
      "function": null,
      "arguments": null,
      "transaction": {
        "from": "0xe752c55acabc5f745ab36a0993bf35c6555b60e4",
        "gas": "0x4e261",
        "value": "0x0",
        "input": "0x6080806040523460155761037d908161001a8239f35b5f80fdfe60806040526004361015610011575f80fd5b5f3560e01c806330162fab146100c0578063509ef27c146100a5578063609d78bd1461007f5763c40e9e0a14610045575f80fd5b3461007b57602036600319011261007b576004355f525f6020526040805f205461ffff825191818116835260101c166020820152f35b5f80fd5b3461007b57602036600319011261007b57602061009d6004356102a1565b604051908152f35b3461007b575f36600319011261007b576020604051600a8152f35b3461007b57604036600319011261007b576024358060020b810361007b576100ea9060043561010f565b005b600a8210156100fb5701905f90565b634e487b7160e01b5f52603260045260245ffd5b5f525f60205260405f209081549061ffff8260101c16151580610255575b61025057604051916040830183811067ffffffffffffffff82111761023c576101749161ffff9160405263ffffffff42168552602085019360020b845216600185016100ec565b9290926102295763ffffffff9051168254918163ffffffff1984161784555160201b66ffffff00000000169166ffffffffffffff1916171790558054600161ffff82160161ffff811161021557600a61ffff809216061661ffff81811984161780855560101c16600a81106101ea575b50505050565b61ffff811461021557600163ffff0000910160101b169163ffffffff1916171790555f8080806101e4565b634e487b7160e01b5f52601160045260245ffd5b634e487b7160e01b5f525f60045260245ffd5b634e487b7160e01b5f52604160045260245ffd5b505050565b50600a61ffff83160161ffff81116102155761ffff5f1991160161ffff811161021557610291600a61ffff63ffffffff931606600186016100ec565b50541663ffffffff42161461012d565b5f525f60205260405f2061ffff815460101c16906002821061034157627fffff1991627fffff916001015f5b8261ffff8216106102fb5750505060020b9060020b03627fffff8113627fffff198212176102155760020b90565b61030581836100ec565b505460201c60020b8460020b8112610339575b8560020b8113610330575b5060010161ffff166102cd565b94506001610323565b935083610318565b50505f9056fea26469706673582212201bd4b2bb752f01fd2bf70b1533e84dbf3daeafe61e7e029106bda8dbcbb76e1564736f6c634300081e0033",
        "nonce": "0x69",
        "chainId": "0x515"
      },
      "additionalContracts": [],
      "isFixedGasLimit": false
    },
    {
      "hash": "0xdafffb6337b742f5508fa6f495566c14fa8c18b01504f785b434ac2d66a9745f",
      "transactionType": "CREATE",
      "contractName": "AegisReserve",
      "contractAddress": "0x7dd287edec07099f5ef1f1d2883150617df74a2e",
      "function": null,
      "arguments": [
        "0xe752c55ACAbC5F745AB36a0993bf35c6555B60e4"
      ],
      "transaction": {
        "from": "0xe752c55acabc5f745ab36a0993bf35c6555b60e4",
        "gas": "0xb6fde",
        "value": "0x0",
        "input": "0x60803460b857601f6109c738819003918201601f19168301916001600160401b0383118484101760bc5780849260209460405283398101031260b857516001600160a01b0381169081900360b857801560a5575f80546001600160a01b031981168317825560405192916001600160a01b03909116907f8be0079c531659141344cd1fd0a4f28419497f9722a3daafe3b4186f6b6457e09080a36108f690816100d18239f35b631e4fbdf760e01b5f525f60045260245ffd5b5f80fd5b634e487b7160e01b5f52604160045260245ffdfe608080604052600436101561001c575b50361561001a575f80fd5b005b5f3560e01c9081631104e984146105715750806315226b54146104f65780633dfd38731461052e5780634e7e36e2146104f65780635fc91fa11461046a578063715018a6146104135780637f5a7c7b146103eb5780638da5cb5b146103c4578063973e3c641461033c578063a0021cf11461031f578063a888c2cd146102b6578063e406f1d8146101405763f2fde38b146100b7575f61000f565b3461013c57602036600319011261013c576100d0610744565b6100d86107c8565b6001600160a01b03168015610129575f80546001600160a01b03198116831782556001600160a01b0316907f8be0079c531659141344cd1fd0a4f28419497f9722a3daafe3b4186f6b6457e09080a3005b631e4fbdf760e01b5f525f60045260245ffd5b5f80fd5b3461013c57602036600319011261013c57600435805f52600160205260405f2060038101805460ff81166102a85760ff191660019081179091558101546001600160a01b03168061023957505f80808060018060a01b038554166002860154905af16101aa610789565b50156101fe577fde08a05ae5789aba8379ff6caf08f56453d4a06024d0fc7aa02627cfffca70a9905b8054600290910154604080516001600160a01b0390931683526020830191909152819081015b0390a2005b60405162461bcd60e51b8152602060048201526013602482015272115512081d1c985b9cd9995c8819985a5b1959606a1b6044820152606490fd5b8154600283015460405163a9059cbb60e01b60208201526001600160a01b03909216602483015260448083019190915281527fde08a05ae5789aba8379ff6caf08f56453d4a06024d0fc7aa02627cfffca70a992916102a3919061029e60648361075a565b6107ee565b6101d3565b62560ff960e81b5f5260045ffd5b3461013c57602036600319011261013c576004355f52600160205260a060405f20600180831b0381541690600180841b03600182015416906002810154600460ff6003840154169201549260405194855260208501526040840152151560608301526080820152f35b3461013c575f36600319011261013c576020600254604051908152f35b604036600319011261013c57610350610744565b6024359061035c6107c8565b6001600160a01b031680610385575b5f52600360205261038160405f2091825461077c565b9055005b6103bf6040516323b872dd60e01b6020820152336024820152306044820152836064820152606481526103b960848261075a565b826107ee565b61036b565b3461013c575f36600319011261013c575f546040516001600160a01b039091168152602090f35b3461013c575f36600319011261013c576004546040516001600160a01b039091168152602090f35b3461013c575f36600319011261013c5761042b6107c8565b5f80546001600160a01b0319811682556001600160a01b03167f8be0079c531659141344cd1fd0a4f28419497f9722a3daafe3b4186f6b6457e08280a3005b3461013c57604036600319011261013c57610483610744565b60045460243591906001600160a01b031633036104e7577f1501c64b331d53fb59d05ec13c6ba57bdcf049a272660bb4616794d3f0168c569160209160018060a01b03165f526003825260405f206104dc82825461077c565b9055604051908152a1005b6318e59f8760e31b5f5260045ffd5b3461013c57602036600319011261013c576001600160a01b03610517610744565b165f526003602052602060405f2054604051908152f35b3461013c57602036600319011261013c57610547610744565b61054f6107c8565b600480546001600160a01b0319166001600160a01b0392909216919091179055005b3461013c57606036600319011261013c5761058a610744565b6024356001600160a01b03811692919083900361013c5760045460443591906001600160a01b031633036104e7576001600160a01b03811692831561073557821561072657845f5260036020528260405f20541061071757845f52600360205260405f208054908482039182116107035755600254945f198614610703576001860160025560a082019082821067ffffffffffffffff8311176106ef57604091825294825260208083019586528282018581525f6060850181815242608087019081528a8352600180865292869020965187546001600160a01b039182166001600160a01b03199182161789559a51938801805494821694909b169390931790995591516002860155905160038501805460ff191691151560ff16919091179055955160049093019290925580519290941682528101919091527ffe496b5c3e5f5796667695bb1534fe9abd404c3e454b8276fdc907d28c750fbb91819081016101f9565b634e487b7160e01b5f52604160045260245ffd5b634e487b7160e01b5f52601160045260245ffd5b6328b35f2160e01b5f5260045ffd5b631f2a200560e01b5f5260045ffd5b6364a7bd4d60e11b5f5260045ffd5b600435906001600160a01b038216820361013c57565b90601f8019910116810190811067ffffffffffffffff8211176106ef57604052565b9190820180921161070357565b3d156107c3573d9067ffffffffffffffff82116106ef57604051916107b8601f8201601f19166020018461075a565b82523d5f602084013e565b606090565b5f546001600160a01b031633036107db57565b63118cdaa760e01b5f523360045260245ffd5b5f806108169260018060a01b03169360208151910182865af161080f610789565b9083610862565b805190811515918261083e575b505061082c5750565b635274afe760e01b5f5260045260245ffd5b819250906020918101031261013c576020015180159081150361013c575f80610823565b90610886575080511561087757805190602001fd5b630a12f52160e11b5f5260045ffd5b815115806108b7575b610897575090565b639996b31560e01b5f9081526001600160a01b0391909116600452602490fd5b50803b1561088f56fea264697066735822122005fb4a56e441f4007843ed9a6a71b295ab822d17bf25251386d18b6cc96eba0c64736f6c634300081e0033000000000000000000000000e752c55acabc5f745ab36a0993bf35c6555b60e4",
        "nonce": "0x6a",
        "chainId": "0x515"
      },
      "additionalContracts": [],
      "isFixedGasLimit": false
    },
    {
      "hash": "0x533db7fc898c407ffe807fa44c775b698786e1d6c6dbd32e66f2fb5ae65d5ffd",
      "transactionType": "CREATE2",
      "contractName": "AegisHook",
      "contractAddress": "0x1b1e38436421512de424b666f3aac28c8c99e0c8",
      "function": null,
      "arguments": [
        "0x00B036B58a818B1BC34d502D3fE730Db729e62AC",
        "0xC42c18EE275a172569D28809745Aa97F1A022b7F",
        "0x7Dd287eDeC07099F5EF1F1d2883150617DF74A2E",
        "0x0649F336C2350A6BDfEc655B06DD9BDC4b4b7b2d"
      ],
      "transaction": {
        "from": "0xe752c55acabc5f745ab36a0993bf35c6555b60e4",
        "to": "0x4e59b44847b379578588920ca78fbf26c0b4956c",
        "gas": "0x20a626",
        "value": "0x0",
        "input": "0x00000000000000000000000000000000000000000000000000000000000055dd60a0604052346103d157604051601f611d2d38819003918201601f19168301916001600160401b038311848410176103d5578084926080946040528339810103126103d1578051906001600160a01b03821682036103d15761006360208201610409565b61007b606061007460408501610409565b9301610409565b926080525f6101a061008b6103e9565b8281528260208201528260408201528260608201528260808201528260a08201528260c08201528260e0820152826101008201528261012082015282610140820152826101608201528261018082015201525f6101a06100e96103e9565b600181528260208201528260408201528260608201528260808201528260a0820152600160c0820152600160e08201528261010082015282610120820152600161014082015282610160820152826101808201520152612000301615156001148015906103c4575b80156103b7575b80156103aa575b801561039d575b8015610390575b8015610380575b8015610370575b8015610364575b8015610358575b8015610348575b801561033c575b8015610330575b8015610324575b610311575f80546001600160a01b03199081166001600160a01b039384161790915560018054821693831693909317909255600280549092169216919091179055600454608081901c6001600160681b03166001600160801b0380831682029081169081036102e9576001600160801b033a811691909101919082116102e9576001016001600160681b0381116102e9576001600160681b031680156102fd576001600160801b0391821604166001600160681b036001600160801b03198316821760801c81169081146102e9576001600160e81b03199092161760019190910160801b600160801b600160e81b03161760045560405161190f908161041e8239608051818181610100015281816101860152818161020301528181610443015281816104ae0152818161057a01528181610689015281816107170152610ad50152f35b634e487b7160e01b5f52601160045260245ffd5b634e487b7160e01b5f52601260045260245ffd5b630732d7b560e51b5f523060045260245ffd5b506001301615156101a5565b5060023016151561019e565b50600430161515610197565b5060083016151560011415610190565b50601030161515610189565b50602030161515610182565b506040301615156001141561017b565b5060803016151560011415610174565b506101003016151561016d565b5061020030161515610166565b506104003016151561015f565b5061080030161515610158565b5061100030161515610151565b5f80fd5b634e487b7160e01b5f52604160045260245ffd5b604051906101c082016001600160401b038111838210176103d557604052565b51906001600160a01b03821682036103d15756fe6080806040526004361015610012575f80fd5b5f3560e01c9081630505c8c9146107585750806321d0ee7014610704578063259982e5146107045780633d18651e146106e8578063575e24b4146106335780636c2bbe7e1461049b5780636e1e5dd6146105b75780636fe7e6eb1461053f5780637dc0d1d0146105175780639a161daa146104f15780639f063efc1461049b578063b47b2fb1146103ec578063b6a8b0fa146100ed578063c4e833ce14610283578063cd2c70e81461025a578063cd3293de14610232578063dc4c90d3146101ee578063dc98354e146101555763e1b4af69146100ed575f80fd5b34610151576100fb366108e7565b5050507f00000000000000000000000000000000000000000000000000000000000000006001600160a01b03163303925061014291505057630a85dc2960e01b5f5260045ffd5b63570c108560e11b5f5260045ffd5b5f80fd5b346101515760e03660031901126101515761016e61077a565b5060a0366023190112610151576101836108c1565b507f00000000000000000000000000000000000000000000000000000000000000006001600160a01b031633036101425760643562ffffff81168091036101515762800000036101df57604051636e4c1aa760e11b8152602090f35b6315b3d69f60e31b5f5260045ffd5b34610151575f366003190112610151576040517f00000000000000000000000000000000000000000000000000000000000000006001600160a01b03168152602090f35b34610151575f366003190112610151576001546040516001600160a01b039091168152602090f35b34610151575f3660031901126101515760206001600160681b0360045460801c16604051908152f35b34610151575f366003190112610151575f6101a06040516102a38161093f565b8281528260208201528260408201528260608201528260808201528260a08201528260c08201528260e0820152826101008201528261012082015282610140820152826101608201528261018082015201526101c060206040516103068161093f565b60018152818101905f8252604081015f8152606082015f8152608083015f815260a084015f815260c085016001815260e0860190600182526101008701925f84526101208801945f8652610140890196600188526101608a01985f8a526101a06101808c019b5f8d52019b5f8d526040519d8e916001835251151591015251151560408d015251151560608c015251151560808b015251151560a08a015251151560c089015251151560e08801525115156101008701525115156101208601525115156101408501525115156101608401525115156101808301525115156101a0820152f35b34610151576101603660031901126101515761040661077a565b60a03660231901126101515760603660c3190112610151576101443567ffffffffffffffff81116101515761043f9036906004016107a4565b50507f00000000000000000000000000000000000000000000000000000000000000006001600160a01b031633036101425761048160409161012435906110ed565b82516001600160e01b03199092168252600f0b6020820152f35b34610151576104a936610836565b5050507f00000000000000000000000000000000000000000000000000000000000000006001600160a01b0316330393506101429250505057630a85dc2960e01b5f5260045ffd5b34610151575f3660031901126101515760206001600160801b0360045416604051908152f35b34610151575f366003190112610151576002546040516001600160a01b039091168152602090f35b34610151576101003660031901126101515761055961077a565b5060a03660231901126101515761056e6108c1565b506105776108d7565b507f00000000000000000000000000000000000000000000000000000000000000006001600160a01b0316330361014257630a85dc2960e01b5f5260045ffd5b34610151576020366003190112610151576001600160a01b036105d861077a565b165f52600360205260a060405f2062ffffff815491600260018201549101549061061860405194600180881b038116865260ff6020870191881c166108a0565b604084015260ff81161515606084015260081c166080820152f35b34610151576101403660031901126101515761064d61077a565b60a03660231901126101515760603660c3190112610151576101243567ffffffffffffffff8111610151576106869036906004016107a4565b917f00000000000000000000000000000000000000000000000000000000000000006001600160a01b031633036101425760609262ffffff926106c892610a39565b906040939293519363ffffffff60e01b1684526020840152166040820152f35b34610151575f366003190112610151576020604051610bb88152f35b3461015157610712366107d2565b5050507f00000000000000000000000000000000000000000000000000000000000000006001600160a01b031633039150610142905057630a85dc2960e01b5f5260045ffd5b34610151575f366003190112610151575f546001600160a01b03168152602090f35b600435906001600160a01b038216820361015157565b35906001600160a01b038216820361015157565b9181601f840112156101515782359167ffffffffffffffff8311610151576020838186019501011161015157565b90610160600319830112610151576004356001600160a01b0381168103610151579160a060231982011261015157602491608060c3198301126101515760c491610144359067ffffffffffffffff821161015157610832916004016107a4565b9091565b906101a0600319830112610151576004356001600160a01b0381168103610151579160a060231982011261015157602491608060c3198301126101515760c49161014435916101643591610184359067ffffffffffffffff821161015157610832916004016107a4565b9060048210156108ad5752565b634e487b7160e01b5f52602160045260245ffd5b60c435906001600160a01b038216820361015157565b60e435908160020b820361015157565b610120600319820112610151576004356001600160a01b0381168103610151579160a06023198301126101515760249160c4359160e43591610104359067ffffffffffffffff821161015157610832916004016107a4565b6101c0810190811067ffffffffffffffff82111761095c57604052565b634e487b7160e01b5f52604160045260245ffd5b60a0810190811067ffffffffffffffff82111761095c57604052565b90601f8019910116810190811067ffffffffffffffff82111761095c57604052565b91908260a0910312610151576040516109c681610970565b80926109d181610790565b82526109df60208201610790565b6020830152604081013562ffffff811681036101515760408301526060810135908160020b820361015157606083019190915260800135906001600160a01b03821682036101515760800152565b60048210156108ad5752565b6002545f946001600160a01b0390911693909260a0610a593660246109ae565b20906040519163609d78bd60e01b83526004830152602082602481895afa918215610ff0575f92611079575b50610a8e611579565b9560e4355f8113156110515780925b5f958061102f575b5050610abd60a0610ab73660246109ae565b206118b3565b604051631e2eaeaf60e01b81526004810191909152917f00000000000000000000000000000000000000000000000000000000000000006001600160a01b031690602084602481855afa938415610ff0575f94610ffb575b506001600160a01b0384169360a0610b2e3660246109ae565b2090823b156101515760445f928360405195869485936330162fab60e01b8552600485015260a01c60020b60248401525af18015610ff057610fdb575b506004861015610fc75785610b9457506315d7892d60e21b989762400000179695505050505050565b89549699959897966001600160a01b0316959394929392610bbb60a0610ab73660246109ae565b60038101809111610fb35760405190631e2eaeaf60e01b82526004820152602081602481865afa908115610fa8578591610f76575b50604051610bfd81610970565b87815260208101916001600160801b0316825260408101988c62ffffff8d1694858c52606084019081526080840191610c369083610a2d565b6040519b8c958695630c2a869b60e01b8752516004870152516001600160801b031660248601525162ffffff1660448501525160648401525160848301610c7c916108a0565b5a9260a491602094fa968715610f02578497610f42575b5060c4359081151590818303610f3e578b9c839c9a9b9c5060405190610cb882610970565b888252610cc9602083019c8d610a2d565b60408281018c815260608401958652608084019485526001600160a01b03928316808b526003602052918a20935184549e51929e919391929116906004811015610f2a579060029493929160ff60a01b9060a01b16916affffffffffffffffffffff60a81b161717825551600182015501915115159060ff63ffffff008454925160081b1692169063ffffffff1916171790555f14610f11576024356001600160a01b0381168103610ee557905b6001546001600160a01b031691813b15610f0d578491606483926040519485938492630b0d9c0960e01b845260018060a01b03169788600485015260248401528c60448401525af18015610f0257908491610ee9575b50506001546001600160a01b031690813b15610ee5578391604483926040519485938492635fc91fa160e01b845260048401528b60248401525af18015610eda57908794939291610eb7575b506040809593837f8b48094ca94a15bce5c6821917b4678892bcb632b5ba60894925baca1cb697d2937f53bd519f9951848882d76999d958cd7238893f96ea7980eb7c7c43dbda33807a99979550125f14610ea457610e868660801b9c5b835192835260208301906108a0565ba282519182526020820152a26315d7892d60e21b9291624000001790565b610e86866001600160801b03169c610e77565b8280949550610ec89193929361098c565b610ed657908592915f610e19565b5080fd5b6040513d85823e3d90fd5b8380fd5b81610ef39161098c565b610efe57825f610dcd565b8280fd5b6040513d86823e3d90fd5b8480fd5b6044356001600160a01b0381168103610ee55790610d77565b634e487b7160e01b8b52602160045260248bfd5b8580fd5b9096506020813d602011610f6e575b81610f5e6020938361098c565b810103126101515751955f610c93565b3d9150610f51565b90506020813d602011610fa0575b81610f916020938361098c565b8101031261015157515f610bf0565b3d9150610f84565b6040513d87823e3d90fd5b634e487b7160e01b85526011600452602485fd5b634e487b7160e01b8a52602160045260248afd5b610fe8919a505f9061098c565b5f985f610b6b565b6040513d5f823e3d90fd5b9093506020813d602011611027575b816110176020938361098c565b810103126101515751925f610b15565b3d915061100a565b8192965090602091810103126101515735600481101561015157935f80610aa5565b600160ff1b811461106557805f0392610a9d565b634e487b7160e01b5f52601160045260245ffd5b9091506020813d6020116110a5575b816110956020938361098c565b810103126101515751905f610a85565b3d9150611088565b600f0b6f7fffffffffffffffffffffffffffffff198114611065575f0390565b6040906110eb939594929560608201968252602082015201906108a0565b565b6001600160a01b03165f818152600360205260408082209051919493919061111482610970565b80546001600160a01b0381168352602083019160029161113a9060a01c60ff1684610a2d565b60018101546040850152015491606081019360ff84161515855262ffffff608083019460081c16845260018060a01b038251161561155c576001600160801b036111be8260801d92600f0b875115155f1461153d575f84600f0b135f1461153057826111a5856116ce565b8951911694901561151957505f81131561150b576116ce565b16935f60e43512156113e75762ffffff6111da91511682611847565b8103908111611065578451156113c157905161120a9190611204906001600160a01b0316806116f3565b906116f3565b905b5f549051906001600160a01b031660048210156108ad57611247936020936040519586948593849363ff4ee46760e01b8552600485016110cd565b03915afa908115610ff0575f9161138f575b50905115611378576044356001600160a01b0381168103610151575b825f5260036020525f6002604082208281558260018201550155816112ac575b5050506112a06115f1565b63b47b2fb160e01b9190565b6001546001600160a01b031690813b15610151576040516304413a6160e21b8152600481018590526001600160a01b03909116602482015260448101839052905f908290606490829084905af18015610ff057611362575b5060207ff42cf8c29487b42c009006cba2a2a0ca0388229f3183e6e957e0a0b163585cb491837f44cb7e4b1d655285c28e0aaa005ad65343b90cce5f80f1e0d150c9c7c4a53d7683604051848152a2604051908152a25f8080611295565b61136f9194505f9061098c565b5f926020611304565b6024356001600160a01b0381168114611275575f80fd5b90506020813d6020116113b9575b816113aa6020938361098c565b8101031261015157515f611259565b3d915061139d565b90516113e191906113db906001600160a01b0316806116f3565b9061173c565b9061120c565b9162ffffff9194865115155f146114eb57905161141291906113db906001600160a01b0316806116f3565b915b5116620f4240039062ffffff82116110655762ffffff6114359216906117c6565b5f54915190916001600160a01b031660048210156108ad576114719360209360405195869485938493637cd84e9f60e11b8552600485016110cd565b03915afa908115610ff0575f916114b9575b509051156114a2576024356001600160a01b0381168114611275575f80fd5b6044356001600160a01b0381168114611275575f80fd5b90506020813d6020116114e3575b816114d46020938361098c565b8101031261015157515f611483565b3d91506114c7565b90516115059190611204906001600160a01b0316806116f3565b91611414565b611514906110ad565b6116ce565b90505f81600f0b135f036116ce57611514906110ad565b826111a5611514866110ad565b5f81131561154f57826111a5826116ce565b826111a5611514836110ad565b505050505050905061156c6115f1565b63b47b2fb160e01b905f90565b6001600160801b033a166001600160801b0360045416600b81026001600160801b03811690810361106557600a6001600160801b0391041682116115e9576009026001600160801b03811690810361106557600a6001600160801b03910416116115e357610bb890565b61177090565b50506105dc90565b6004546001600160681b038160801c16806001600160801b038316026001600160801b038116908103611065576001600160801b033a1601906001600160801b038211611065576001016001600160681b038111611065576001600160681b031680156116ba576001600160801b0380921604166001600160681b03816001600160801b031984161760801c166001600160681b038114611065576001600160e81b03199092161760019190910160801b6cffffffffffffffffffffffffff60801b1617600455565b634e487b7160e01b5f52601260045260245ffd5b5f81600f0b126116e4576001600160801b031690565b6393dafdf160e01b5f5260045ffd5b81810291905f1982820991838084109303928084039384600160601b1115610151571461173357600160601b910990828211900360a01b910360601c1790565b50505060601c90565b90606082901b905f19600160601b84099282808510940393808503948584111561015157146117bf578190600160601b900981805f03168092046002816003021880820260020302808202600203028082026002030280820260020302808202600203028091026002030293600183805f03040190848311900302920304170290565b5091500490565b90620f42408202905f19620f424084099282808510940393808503948584111561015157146117bf57620f424082910981805f03168092046002816003021880820260020302808202600203028082026002030280820260020302808202600203028091026002030293600183805f03040190848311900302920304170290565b808202905f1983820990828083109203918083039283620f4240111561015157146118a7577fde8f6cefed634549b62c77574f722e1ac57e23f24d8fd5cb790fb65668c2613993620f4240910990828211900360fa1b910360061c170290565b5050620f424091500490565b6040516020810191825260066040820152604081526118d360608261098c565b5190209056fea26469706673582212202e011c2e45ea4326c62aabe662ad05372a031ea7f0c4b8210e8c74f7ade51ba064736f6c634300081e003300000000000000000000000000b036b58a818b1bc34d502d3fe730db729e62ac000000000000000000000000c42c18ee275a172569d28809745aa97f1a022b7f0000000000000000000000007dd287edec07099f5ef1f1d2883150617df74a2e0000000000000000000000000649f336c2350a6bdfec655b06dd9bdc4b4b7b2d",
        "nonce": "0x6b",
        "chainId": "0x515"
      },
      "additionalContracts": [],
      "isFixedGasLimit": false
    },
    {
      "hash": "0xebd84e6a972dd8fd75292c212ceb55aae7bdd220e2f11e723b29f9007b05ad0f",
      "transactionType": "CALL",
      "contractName": "AegisReserve",
      "contractAddress": "0x7dd287edec07099f5ef1f1d2883150617df74a2e",
      "function": "setHook(address)",
      "arguments": [
        "0x1b1e38436421512DE424B666F3aaC28c8c99e0C8"
      ],
      "transaction": {
        "from": "0xe752c55acabc5f745ab36a0993bf35c6555b60e4",
        "to": "0x7dd287edec07099f5ef1f1d2883150617df74a2e",
        "gas": "0x106d9",
        "value": "0x0",
        "input": "0x3dfd38730000000000000000000000001b1e38436421512de424b666f3aac28c8c99e0c8",
        "nonce": "0x6c",
        "chainId": "0x515"
      },
      "additionalContracts": [],
      "isFixedGasLimit": false
    },
    {
      "hash": "0x3269a0bd9fe8fa5d3e614459223885e4b978a8bf7444ec98d5af62a9fc760a54",
      "transactionType": "CALL",
      "contractName": null,
      "contractAddress": "0x00b036b58a818b1bc34d502d3fe730db729e62ac",
      "function": "initialize((address,address,uint24,int24,address),uint160)",
      "arguments": [
        "(0x83190Ed6aBa775d7910EF2f5F94845Ca79ccC29E, 0xE55C5Ace3b0645AeAD6d685D29DFEC35245619Bc, 8388608, 60, 0x1b1e38436421512DE424B666F3aaC28c8c99e0C8)",
        "1771595571142957166518320255467520"
      ],
      "transaction": {
        "from": "0xe752c55acabc5f745ab36a0993bf35c6555b60e4",
        "to": "0x00b036b58a818b1bc34d502d3fe730db729e62ac",
        "gas": "0x129c8",
        "value": "0x0",
        "input": "0x6276cbbe00000000000000000000000083190ed6aba775d7910ef2f5f94845ca79ccc29e000000000000000000000000e55c5ace3b0645aead6d685d29dfec35245619bc0000000000000000000000000000000000000000000000000000000000800000000000000000000000000000000000000000000000000000000000000000003c0000000000000000000000001b1e38436421512de424b666f3aac28c8c99e0c80000000000000000000000000000000000005758ae05bbf89c00000000000000",
        "nonce": "0x6d",
        "chainId": "0x515"
      },
      "additionalContracts": [],
      "isFixedGasLimit": false
    },
    {
      "hash": "0x9bcf35994ee9f3a1a9656664d9cda44732c4b3f269b276a6be21e2fed4d5eb11",
      "transactionType": "CALL",
      "contractName": "MockERC20",
      "contractAddress": "0xe55c5ace3b0645aead6d685d29dfec35245619bc",
      "function": "mint(address,uint256)",
      "arguments": [
        "0xe752c55ACAbC5F745AB36a0993bf35c6555B60e4",
        "100000000000"
      ],
      "transaction": {
        "from": "0xe752c55acabc5f745ab36a0993bf35c6555b60e4",
        "to": "0xe55c5ace3b0645aead6d685d29dfec35245619bc",
        "gas": "0x184e4",
        "value": "0x0",
        "input": "0x40c10f19000000000000000000000000e752c55acabc5f745ab36a0993bf35c6555b60e4000000000000000000000000000000000000000000000000000000174876e800",
        "nonce": "0x6e",
        "chainId": "0x515"
      },
      "additionalContracts": [],
      "isFixedGasLimit": false
    },
    {
      "hash": "0xeb68d2206d1024948f1814276c9eb6c1a7c99c01f71e18c47159493b3c930043",
      "transactionType": "CALL",
      "contractName": "MockERC20",
      "contractAddress": "0x83190ed6aba775d7910ef2f5f94845ca79ccc29e",
      "function": "mint(address,uint256)",
      "arguments": [
        "0xe752c55ACAbC5F745AB36a0993bf35c6555B60e4",
        "50000000000000000000"
      ],
      "transaction": {
        "from": "0xe752c55acabc5f745ab36a0993bf35c6555b60e4",
        "to": "0x83190ed6aba775d7910ef2f5f94845ca79ccc29e",
        "gas": "0x16f7a",
        "value": "0x0",
        "input": "0x40c10f19000000000000000000000000e752c55acabc5f745ab36a0993bf35c6555b60e4000000000000000000000000000000000000000000000002b5e3af16b1880000",
        "nonce": "0x6f",
        "chainId": "0x515"
      },
      "additionalContracts": [],
      "isFixedGasLimit": false
    },
    {
      "hash": "0xd6f5dd670b4f42e9c3abfdb05b6d4152122befe4fdb2e3ef3f35609d3ec3a4d4",
      "transactionType": "CALL",
      "contractName": "MockERC20",
      "contractAddress": "0xe55c5ace3b0645aead6d685d29dfec35245619bc",
      "function": "approve(address,uint256)",
      "arguments": [
        "0x7Dd287eDeC07099F5EF1F1d2883150617DF74A2E",
        "10000000000"
      ],
      "transaction": {
        "from": "0xe752c55acabc5f745ab36a0993bf35c6555b60e4",
        "to": "0xe55c5ace3b0645aead6d685d29dfec35245619bc",
        "gas": "0xf7d3",
        "value": "0x0",
        "input": "0x095ea7b30000000000000000000000007dd287edec07099f5ef1f1d2883150617df74a2e00000000000000000000000000000000000000000000000000000002540be400",
        "nonce": "0x70",
        "chainId": "0x515"
      },
      "additionalContracts": [],
      "isFixedGasLimit": false
    },
    {
      "hash": "0xa553699a1af1dc7b565ad8f3108b2fcbf26ca312ae5806ae762f5cfd55f1b64a",
      "transactionType": "CALL",
      "contractName": "MockERC20",
      "contractAddress": "0x83190ed6aba775d7910ef2f5f94845ca79ccc29e",
      "function": "approve(address,uint256)",
      "arguments": [
        "0x7Dd287eDeC07099F5EF1F1d2883150617DF74A2E",
        "5000000000000000000"
      ],
      "transaction": {
        "from": "0xe752c55acabc5f745ab36a0993bf35c6555b60e4",
        "to": "0x83190ed6aba775d7910ef2f5f94845ca79ccc29e",
        "gas": "0xf7f5",
        "value": "0x0",
        "input": "0x095ea7b30000000000000000000000007dd287edec07099f5ef1f1d2883150617df74a2e0000000000000000000000000000000000000000000000004563918244f40000",
        "nonce": "0x71",
        "chainId": "0x515"
      },
      "additionalContracts": [],
      "isFixedGasLimit": false
    },
    {
      "hash": "0x92fac7e668de07284dad00f79bf9db12455dc047c718f2594b2664d466227eb2",
      "transactionType": "CALL",
      "contractName": "AegisReserve",
      "contractAddress": "0x7dd287edec07099f5ef1f1d2883150617df74a2e",
      "function": "seedReserve(address,uint256)",
      "arguments": [
        "0xE55C5Ace3b0645AeAD6d685D29DFEC35245619Bc",
        "10000000000"
      ],
      "transaction": {
        "from": "0xe752c55acabc5f745ab36a0993bf35c6555b60e4",
        "to": "0x7dd287edec07099f5ef1f1d2883150617df74a2e",
        "gas": "0x1af98",
        "value": "0x0",
        "input": "0x973e3c64000000000000000000000000e55c5ace3b0645aead6d685d29dfec35245619bc00000000000000000000000000000000000000000000000000000002540be400",
        "nonce": "0x72",
        "chainId": "0x515"
      },
      "additionalContracts": [],
      "isFixedGasLimit": false
    },
    {
      "hash": "0x2470de0748fa7cf80501773a50d0cc6fd4ad24ca15bc90fb023f852729fd4d94",
      "transactionType": "CALL",
      "contractName": "AegisReserve",
      "contractAddress": "0x7dd287edec07099f5ef1f1d2883150617df74a2e",
      "function": "seedReserve(address,uint256)",
      "arguments": [
        "0x83190Ed6aBa775d7910EF2f5F94845Ca79ccC29E",
        "5000000000000000000"
      ],
      "transaction": {
        "from": "0xe752c55acabc5f745ab36a0993bf35c6555b60e4",
        "to": "0x7dd287edec07099f5ef1f1d2883150617df74a2e",
        "gas": "0x1afba",
        "value": "0x0",
        "input": "0x973e3c6400000000000000000000000083190ed6aba775d7910ef2f5f94845ca79ccc29e0000000000000000000000000000000000000000000000004563918244f40000",
        "nonce": "0x73",
        "chainId": "0x515"
      },
      "additionalContracts": [],
      "isFixedGasLimit": false
    }
  ],
  "receipts": [
    {
      "status": "0x1",
      "cumulativeGasUsed": "0x169c6b",
      "logs": [],
      "logsBloom": "0x00000000000000000000000000000000000000000000000000000000000000000000000000000000000000000000000000000000000000000000000000000000000000000000000000000000000000000000000000000000000000000000000000000000000000000000000000000000000000000000000000000000000000000000000000000000000000000000000000000000000000000000000000000000000000000000000000000000000000000000000000000000000000000000000000000000000000000000000000000000000000000000000000000000000000000000000000000000000000000000000000000000000000000000000000000000",
      "type": "0x2",
      "transactionHash": "0x2684e3fd604920fce0304d22fffc442731cda58f410bb213c51fdbb4001f1501",
      "transactionIndex": "0x7",
      "blockHash": "0xd80b2c69956ac7f83400ff0ab52a716ae9e32fd49dec2d82d93b2f6188101b61",
      "blockNumber": "0x2ce3450",
      "gasUsed": "0x77552",
      "effectiveGasPrice": "0x7a121",
      "blobGasUsed": "0x9dd00",
      "from": "0xe752c55acabc5f745ab36a0993bf35c6555b60e4",
      "to": null,
      "contractAddress": "0xe55c5ace3b0645aead6d685d29dfec35245619bc",
      "daFootprintGasScalar": "0x190",
      "l1BaseFeeScalar": "0x7d0",
      "l1BlobBaseFee": "0x1",
      "l1BlobBaseFeeScalar": "0xdbba0",
      "l1Fee": "0x7b3",
      "l1GasPrice": "0xa",
      "l1GasUsed": "0x6503"
    },
    {
      "status": "0x1",
      "cumulativeGasUsed": "0x9ef4a",
      "logs": [],
      "logsBloom": "0x00000000000000000000000000000000000000000000000000000000000000000000000000000000000000000000000000000000000000000000000000000000000000000000000000000000000000000000000000000000000000000000000000000000000000000000000000000000000000000000000000000000000000000000000000000000000000000000000000000000000000000000000000000000000000000000000000000000000000000000000000000000000000000000000000000000000000000000000000000000000000000000000000000000000000000000000000000000000000000000000000000000000000000000000000000000",
      "type": "0x2",
      "transactionHash": "0xe6de691aa37723737a8094be151b6b913ef247cb888a324a41aaf43517f85c46",
      "transactionIndex": "0x3",
      "blockHash": "0x0000000000000000000000000000000000000000000000000000000000000000",
      "blockNumber": "0x2ce3451",
      "gasUsed": "0x77552",
      "effectiveGasPrice": "0x7a121",
      "blobGasUsed": "0x9dd00",
      "from": "0xe752c55acabc5f745ab36a0993bf35c6555b60e4",
      "to": null,
      "contractAddress": "0x83190ed6aba775d7910ef2f5f94845ca79ccc29e",
      "daFootprintGasScalar": "0x190",
      "l1BaseFeeScalar": "0x7d0",
      "l1BlobBaseFee": "0x1",
      "l1BlobBaseFeeScalar": "0xdbba0",
      "l1Fee": "0xa9",
      "l1GasPrice": "0xa",
      "l1GasUsed": "0x6503"
    },
    {
      "status": "0x1",
      "cumulativeGasUsed": "0x126939",
      "logs": [
        {
          "address": "0xc42c18ee275a172569d28809745aa97f1a022b7f",
          "topics": [
            "0x8be0079c531659141344cd1fd0a4f28419497f9722a3daafe3b4186f6b6457e0",
            "0x0000000000000000000000000000000000000000000000000000000000000000",
            "0x000000000000000000000000e752c55acabc5f745ab36a0993bf35c6555b60e4"
          ],
          "data": "0x",
          "blockHash": "0x0000000000000000000000000000000000000000000000000000000000000000",
          "blockNumber": "0x2ce3451",
          "blockTimestamp": "0x69bbe19d",
          "transactionHash": "0x584cb67f4af3c652aa44574b8c13782ce1ca5b4c0a879c5d959047809c6bf094",
          "transactionIndex": "0x4",
          "logIndex": "0x1",
          "removed": false
        }
      ],
      "logsBloom": "0x00000000000000000000000000000000040000000000000000800000000000000000000000000000000000000000000000000000000000000000000000002400000000000000000000000000000000000001000000000000000000000000000000000000020000000000000002008800000000000000000000000000000000400000000000000000000000000000000000000000000000000000000000000000000000000000000000000000000000000000000000000000000000000000000000000000000000000000000000000000000000008000000000000000000020000000000000000000000000000000000000000000000000000000000000000000",
      "type": "0x2",
      "transactionHash": "0x584cb67f4af3c652aa44574b8c13782ce1ca5b4c0a879c5d959047809c6bf094",
      "transactionIndex": "0x4",
      "blockHash": "0x0000000000000000000000000000000000000000000000000000000000000000",
      "blockNumber": "0x2ce3451",
      "gasUsed": "0x879ef",
      "effectiveGasPrice": "0x7a121",
      "blobGasUsed": "0x87f00",
      "from": "0xe752c55acabc5f745ab36a0993bf35c6555b60e4",
      "to": null,
      "contractAddress": "0xc42c18ee275a172569d28809745aa97f1a022b7f",
      "daFootprintGasScalar": "0x190",
      "l1BaseFeeScalar": "0x7d0",
      "l1BlobBaseFee": "0x1",
      "l1BlobBaseFeeScalar": "0xdbba0",
      "l1Fee": "0xa9",
      "l1GasPrice": "0xa",
      "l1GasUsed": "0x5700"
    },
    {
      "status": "0x1",
      "cumulativeGasUsed": "0x162b0e",
      "logs": [],
      "logsBloom": "0x00000000000000000000000000000000000000000000000000000000000000000000000000000000000000000000000000000000000000000000000000000000000000000000000000000000000000000000000000000000000000000000000000000000000000000000000000000000000000000000000000000000000000000000000000000000000000000000000000000000000000000000000000000000000000000000000000000000000000000000000000000000000000000000000000000000000000000000000000000000000000000000000000000000000000000000000000000000000000000000000000000000000000000000000000000000",
      "type": "0x2",
      "transactionHash": "0x3269a0bd9fe8fa5d3e614459223885e4b978a8bf7444ec98d5af62a9fc760a54",
      "transactionIndex": "0x5",
      "blockHash": "0x0000000000000000000000000000000000000000000000000000000000000000",
      "blockNumber": "0x2ce3451",
      "gasUsed": "0x3c1d5",
      "effectiveGasPrice": "0x7a121",
      "blobGasUsed": "0x40740",
      "from": "0xe752c55acabc5f745ab36a0993bf35c6555b60e4",
      "to": null,
      "contractAddress": "0x0649f336c2350a6bdfec655b06dd9bdc4b4b7b2d",
      "daFootprintGasScalar": "0x190",
      "l1BaseFeeScalar": "0x7d0",
      "l1BlobBaseFee": "0x1",
      "l1BlobBaseFeeScalar": "0xdbba0",
      "l1Fee": "0xa9",
      "l1GasPrice": "0xa",
      "l1GasUsed": "0x294e"
    },
    {
      "status": "0x1",
      "cumulativeGasUsed": "0x1ef743",
      "logs": [
        {
          "address": "0x7dd287edec07099f5ef1f1d2883150617df74a2e",
          "topics": [
            "0x8be0079c531659141344cd1fd0a4f28419497f9722a3daafe3b4186f6b6457e0",
            "0x0000000000000000000000000000000000000000000000000000000000000000",
            "0x000000000000000000000000e752c55acabc5f745ab36a0993bf35c6555b60e4"
          ],
          "data": "0x",
          "blockHash": "0x0000000000000000000000000000000000000000000000000000000000000000",
          "blockNumber": "0x2ce3451",
          "blockTimestamp": "0x69bbe19d",
          "transactionHash": "0xeb68d2206d1024948f1814276c9eb6c1a7c99c01f71e18c47159493b3c930043",
          "transactionIndex": "0x6",
          "logIndex": "0x2",
          "removed": false
        }
      ],
      "logsBloom": "0x00000000000000000000000000000000040000000000000000800000000000000000000000000000000000000000000000000000000000000000000000000000000000000000000000000000000000000001080000000000000000000000000000000000020000000000000000008800000000000000200000000000000000400000000000000000000000000000000000000000000000000000000000000000000000000000000000000000000000000000000000000000000000000000000000000000800000000000000000000000000000008000000000000000000020000000000000000000000000000000000000000000000000000000000000000000",
      "type": "0x2",
      "transactionHash": "0xeb68d2206d1024948f1814276c9eb6c1a7c99c01f71e18c47159493b3c930043",
      "transactionIndex": "0x6",
      "blockHash": "0x0000000000000000000000000000000000000000000000000000000000000000",
      "blockNumber": "0x2ce3451",
      "gasUsed": "0x8cc35",
      "effectiveGasPrice": "0x7a121",
      "blobGasUsed": "0x9d3a0",
      "from": "0xe752c55acabc5f745ab36a0993bf35c6555b60e4",
      "to": null,
      "contractAddress": "0x7dd287edec07099f5ef1f1d2883150617df74a2e",
      "daFootprintGasScalar": "0x190",
      "l1BaseFeeScalar": "0x7d0",
      "l1BlobBaseFee": "0x1",
      "l1BlobBaseFeeScalar": "0xdbba0",
      "l1Fee": "0xa9",
      "l1GasPrice": "0xa",
      "l1GasUsed": "0x64a5"
    },
    {
      "status": "0x1",
      "cumulativeGasUsed": "0x380a9c",
      "logs": [],
      "logsBloom": "0x00000000000000000000000000000000000000000000000000000000000000000000000000000000000000000000000000000000000000000000000000000000000000000000000000000000000000000000000000000000000000000000000000000000000000000000000000000000000000000000000000000000000000000000000000000000000000000000000000000000000000000000000000000000000000000000000000000000000000000000000000000000000000000000000000000000000000000000000000000000000000000000000000000000000000000000000000000000000000000000000000000000000000000000000000000000",
      "type": "0x2",
      "transactionHash": "0x9bcf35994ee9f3a1a9656664d9cda44732c4b3f269b276a6be21e2fed4d5eb11",
      "transactionIndex": "0x8",
      "blockHash": "0x0000000000000000000000000000000000000000000000000000000000000000",
      "blockNumber": "0x2ce3451",
      "gasUsed": "0x17a327",
      "effectiveGasPrice": "0x7a121",
      "blobGasUsed": "0x194fb0",
      "from": "0xe752c55acabc5f745ab36a0993bf35c6555b60e4",
      "to": "0x4e59b44847b379578588920ca78fbf26c0b4956c",
      "contractAddress": "0x1b1e38436421512de424b666f3aac28c8c99e0c8",
      "daFootprintGasScalar": "0x190",
      "l1BaseFeeScalar": "0x7d0",
      "l1BlobBaseFee": "0x1",
      "l1BlobBaseFeeScalar": "0xdbba0",
      "l1Fee": "0xa9",
      "l1GasPrice": "0xa",
      "l1GasUsed": "0x10337"
    },
    {
      "status": "0x1",
      "cumulativeGasUsed": "0x38be56",
      "logs": [],
      "logsBloom": "0x00000000000000000000000000000000000000000000000000000000000000000000000000000000000000000000000000000000000000000000000000000000000000000000000000000000000000000000000000000000000000000000000000000000000000000000000000000000000000000000000000000000000000000000000000000000000000000000000000000000000000000000000000000000000000000000000000000000000000000000000000000000000000000000000000000000000000000000000000000000000000000000000000000000000000000000000000000000000000000000000000000000000000000000000000000000",
      "type": "0x2",
      "transactionHash": "0x126539186bc7dafc964c4388149996d10899ec0694c2929b19e59d2a234f984e",
      "transactionIndex": "0x9",
      "blockHash": "0x0000000000000000000000000000000000000000000000000000000000000000",
      "blockNumber": "0x2ce3451",
      "gasUsed": "0xb3ba",
      "effectiveGasPrice": "0x7a121",
      "blobGasUsed": "0x9c40",
      "from": "0xe752c55acabc5f745ab36a0993bf35c6555b60e4",
      "to": "0x7dd287edec07099f5ef1f1d2883150617df74a2e",
      "contractAddress": null,
      "daFootprintGasScalar": "0x190",
      "l1BaseFeeScalar": "0x7d0",
      "l1BlobBaseFee": "0x1",
      "l1BlobBaseFeeScalar": "0xdbba0",
      "l1Fee": "0xa9",
      "l1GasPrice": "0xa",
      "l1GasUsed": "0x640"
    },
    {
      "status": "0x1",
      "cumulativeGasUsed": "0x3995ed",
      "logs": [
        {
          "address": "0x00b036b58a818b1bc34d502d3fe730db729e62ac",
          "topics": [
            "0xdd466e674ea557f56295e2d0218a125ea4b4f0f6f3307b95f85e6110838d6438",
            "0x18dcc01dd173290d892590aabf1bbcd60f36dd0b62dcd0046ad8bfe4e8640896",
            "0x00000000000000000000000083190ed6aba775d7910ef2f5f94845ca79ccc29e",
            "0x000000000000000000000000e55c5ace3b0645aead6d685d29dfec35245619bc"
          ],
          "data": "0x0000000000000000000000000000000000000000000000000000000000800000000000000000000000000000000000000000000000000000000000000000003c0000000000000000000000001b1e38436421512de424b666f3aac28c8c99e0c80000000000000000000000000000000000005758ae05bbf89c000000000000000000000000000000000000000000000000000000000000000000000000030e77",
          "blockHash": "0x0000000000000000000000000000000000000000000000000000000000000000",
          "blockNumber": "0x2ce3451",
          "blockTimestamp": "0x69bbe19d",
          "transactionHash": "0xebd84e6a972dd8fd75292c212ceb55aae7bdd220e2f11e723b29f9007b05ad0f",
          "transactionIndex": "0xa",
          "logIndex": "0x4",
          "removed": false
        }
      ],
      "logsBloom": "0x00000000000000000000000000000000000000000000000000000000000000000000000000000000000000000000000000000000100000000000000000000000000000000000000000000000000000008000000000000000000000000000000000000000000000000000000000000010000000000000000000800000000000000000000000000008000000000008000000000021000000000000000100200000000000000000000000000000000000000000000000000000000000000000000000000000000000000002000000000000000000000000800000000000000000000000000100000000000000000000000000000000000002000000000000000010",
      "type": "0x2",
      "transactionHash": "0xebd84e6a972dd8fd75292c212ceb55aae7bdd220e2f11e723b29f9007b05ad0f",
      "transactionIndex": "0xa",
      "blockHash": "0x0000000000000000000000000000000000000000000000000000000000000000",
      "blockNumber": "0x2ce3451",
      "gasUsed": "0xd797",
      "effectiveGasPrice": "0x7a121",
      "blobGasUsed": "0xdf70",
      "from": "0xe752c55acabc5f745ab36a0993bf35c6555b60e4",
      "to": "0x00b036b58a818b1bc34d502d3fe730db729e62ac",
      "contractAddress": null,
      "daFootprintGasScalar": "0x190",
      "l1BaseFeeScalar": "0x7d0",
      "l1BlobBaseFee": "0x1",
      "l1BlobBaseFeeScalar": "0xdbba0",
      "l1Fee": "0xa9",
      "l1GasPrice": "0xa",
      "l1GasUsed": "0x8f1"
    },
    {
      "status": "0x1",
      "cumulativeGasUsed": "0x3a9fd6",
      "logs": [
        {
          "address": "0xe55c5ace3b0645aead6d685d29dfec35245619bc",
          "topics": [
            "0xddf252ad1be2c89b69c2b068fc378daa952ba7f163c4a11628f55a4df523b3ef",
            "0x0000000000000000000000000000000000000000000000000000000000000000",
            "0x000000000000000000000000e752c55acabc5f745ab36a0993bf35c6555b60e4"
          ],
          "data": "0x000000000000000000000000000000000000000000000000000000174876e800",
          "blockHash": "0x0000000000000000000000000000000000000000000000000000000000000000",
          "blockNumber": "0x2ce3451",
          "blockTimestamp": "0x69bbe19d",
          "transactionHash": "0x533db7fc898c407ffe807fa44c775b698786e1d6c6dbd32e66f2fb5ae65d5ffd",
          "transactionIndex": "0xb",
          "logIndex": "0x5",
          "removed": false
        }
      ],
      "logsBloom": "0x00000000000000000000000000000000040000000000000000000000000000000000000000000000000000000000000000000000000000000000000000000000000000000000004000000008000000000000000000000000000000000000000000000000020000000000000000008800000000000000000000000010000000000000001000000000000000000000000000000000000000000000000000000000000000000000000000000000000000000020000000000000000000000000000000000002000000000000000000000000000000008000000000000000000020000000000000000000000000000000000000000000000000000000000000000000",
      "type": "0x2",
      "transactionHash": "0x533db7fc898c407ffe807fa44c775b698786e1d6c6dbd32e66f2fb5ae65d5ffd",
      "transactionIndex": "0xb",
      "blockHash": "0x0000000000000000000000000000000000000000000000000000000000000000",
      "blockNumber": "0x2ce3451",
      "gasUsed": "0x109e9",
      "effectiveGasPrice": "0x7a121",
      "blobGasUsed": "0x9c40",
      "from": "0xe752c55acabc5f745ab36a0993bf35c6555b60e4",
      "to": "0xe55c5ace3b0645aead6d685d29dfec35245619bc",
      "contractAddress": null,
      "daFootprintGasScalar": "0x190",
      "l1BaseFeeScalar": "0x7d0",
      "l1BlobBaseFee": "0x1",
      "l1BlobBaseFeeScalar": "0xdbba0",
      "l1Fee": "0xa9",
      "l1GasPrice": "0xa",
      "l1GasUsed": "0x640"
    },
    {
      "status": "0x1",
      "cumulativeGasUsed": "0x3ba9e3",
      "logs": [
        {
          "address": "0x83190ed6aba775d7910ef2f5f94845ca79ccc29e",
          "topics": [
            "0xddf252ad1be2c89b69c2b068fc378daa952ba7f163c4a11628f55a4df523b3ef",
            "0x0000000000000000000000000000000000000000000000000000000000000000",
            "0x000000000000000000000000e752c55acabc5f745ab36a0993bf35c6555b60e4"
          ],
          "data": "0x000000000000000000000000000000000000000000000002b5e3af16b1880000",
          "blockHash": "0x0000000000000000000000000000000000000000000000000000000000000000",
          "blockNumber": "0x2ce3451",
          "blockTimestamp": "0x69bbe19d",
          "transactionHash": "0xdafffb6337b742f5508fa6f495566c14fa8c18b01504f785b434ac2d66a9745f",
          "transactionIndex": "0xc",
          "logIndex": "0x6",
          "removed": false
        }
      ],
      "logsBloom": "0x00000000000000000000000000000000040000000000000000000000000000000000000000000000000000000000000000000000000000000000000000010000000000000000000000000008000000000000000000000000000000000000000000000000020080000000010000008800000000000000000000000010000000000000000000000000000000000000000000000000000000000000000000000000000000000000000000000000000000000000000000000000000000000000000000000002000000000000000000000000000000008000000000000000000020000000000000000000000000000000000000000000000000000000000000000000",
      "type": "0x2",
      "transactionHash": "0xdafffb6337b742f5508fa6f495566c14fa8c18b01504f785b434ac2d66a9745f",
      "transactionIndex": "0xc",
      "blockHash": "0x0000000000000000000000000000000000000000000000000000000000000000",
      "blockNumber": "0x2ce3451",
      "gasUsed": "0x10a0d",
      "effectiveGasPrice": "0x7a121",
      "blobGasUsed": "0x9c40",
      "from": "0xe752c55acabc5f745ab36a0993bf35c6555b60e4",
      "to": "0x83190ed6aba775d7910ef2f5f94845ca79ccc29e",
      "contractAddress": null,
      "daFootprintGasScalar": "0x190",
      "l1BaseFeeScalar": "0x7d0",
      "l1BlobBaseFee": "0x1",
      "l1BlobBaseFeeScalar": "0xdbba0",
      "l1Fee": "0xa9",
      "l1GasPrice": "0xa",
      "l1GasUsed": "0x640"
    },
    {
      "status": "0x1",
      "cumulativeGasUsed": "0x3c5d50",
      "logs": [
        {
          "address": "0xe55c5ace3b0645aead6d685d29dfec35245619bc",
          "topics": [
            "0x8c5be1e5ebec7d5bd14f71427d1e84f3dd0314c0f7b2291e5b200ac8c7c3b925",
            "0x000000000000000000000000e752c55acabc5f745ab36a0993bf35c6555b60e4",
            "0x0000000000000000000000007dd287edec07099f5ef1f1d2883150617df74a2e"
          ],
          "data": "0x00000000000000000000000000000000000000000000000000000002540be400",
          "blockHash": "0x3dddfb27e5dded2fb48239214b3154d855b210b45acfa1c1834204d4a6f10956",
          "blockNumber": "0x2ce3451",
          "blockTimestamp": "0x69bbe19d",
          "transactionHash": "0x92fac7e668de07284dad00f79bf9db12455dc047c718f2594b2664d466227eb2",
          "transactionIndex": "0xd",
          "logIndex": "0x7",
          "removed": false
        }
      ],
      "logsBloom": "0x00000000000000000000000000000000040000000000000000000000000000000000000000000000800000000000000000000000000000000000000000200000000000000000004000000000000000000000000000000000000000000000000000000000000000000010000000008000000000000000000000000000000000000000001000000000000000000000000000000000000000080000000000000000020000000000000000000000000000000020000000000000000000000000000000000000000000000000000000000000000000008000000000000000000000000010000000000000000000000000000000000000000000000000000000000000",
      "type": "0x2",
      "transactionHash": "0x92fac7e668de07284dad00f79bf9db12455dc047c718f2594b2664d466227eb2",
      "transactionIndex": "0xd",
      "blockHash": "0x3dddfb27e5dded2fb48239214b3154d855b210b45acfa1c1834204d4a6f10956",
      "blockNumber": "0x2ce3451",
      "gasUsed": "0xb36d",
      "effectiveGasPrice": "0x7a121",
      "blobGasUsed": "0x9c40",
      "from": "0xe752c55acabc5f745ab36a0993bf35c6555b60e4",
      "to": "0xe55c5ace3b0645aead6d685d29dfec35245619bc",
      "contractAddress": null,
      "daFootprintGasScalar": "0x190",
      "l1BaseFeeScalar": "0x7d0",
      "l1BlobBaseFee": "0x1",
      "l1BlobBaseFeeScalar": "0xdbba0",
      "l1Fee": "0x7a",
      "l1GasPrice": "0xa",
      "l1GasUsed": "0x640"
    },
    {
      "status": "0x1",
      "cumulativeGasUsed": "0x3d10d5",
      "logs": [
        {
          "address": "0x83190ed6aba775d7910ef2f5f94845ca79ccc29e",
          "topics": [
            "0x8c5be1e5ebec7d5bd14f71427d1e84f3dd0314c0f7b2291e5b200ac8c7c3b925",
            "0x000000000000000000000000e752c55acabc5f745ab36a0993bf35c6555b60e4",
            "0x0000000000000000000000007dd287edec07099f5ef1f1d2883150617df74a2e"
          ],
          "data": "0x0000000000000000000000000000000000000000000000004563918244f40000",
          "blockHash": "0x3dddfb27e5dded2fb48239214b3154d855b210b45acfa1c1834204d4a6f10956",
          "blockNumber": "0x2ce3451",
          "blockTimestamp": "0x69bbe19d",
          "transactionHash": "0xa553699a1af1dc7b565ad8f3108b2fcbf26ca312ae5806ae762f5cfd55f1b64a",
          "transactionIndex": "0xe",
          "logIndex": "0x8",
          "removed": false
        }
      ],
      "logsBloom": "0x00000000000000000000000000000000040000000000000000000000000000000000000000000000800000000000000000000000000000000000000000210000000000000000000000000000000000000000000000000000000000000000000000000000000080000010010000008000000000000000000000000000000000000000000000000000000000000000000000000000000000080000000000000000020000000000000000000000000000000000000000000000000000000000000000000000000000000000000000000000000000008000000000000000000000000010000000000000000000000000000000000000000000000000000000000000",
      "type": "0x2",
      "transactionHash": "0xa553699a1af1dc7b565ad8f3108b2fcbf26ca312ae5806ae762f5cfd55f1b64a",
      "transactionIndex": "0xe",
      "blockHash": "0x3dddfb27e5dded2fb48239214b3154d855b210b45acfa1c1834204d4a6f10956",
      "blockNumber": "0x2ce3451",
      "gasUsed": "0xb385",
      "effectiveGasPrice": "0x7a121",
      "blobGasUsed": "0x9c40",
      "from": "0xe752c55acabc5f745ab36a0993bf35c6555b60e4",
      "to": "0x83190ed6aba775d7910ef2f5f94845ca79ccc29e",
      "contractAddress": null,
      "daFootprintGasScalar": "0x190",
      "l1BaseFeeScalar": "0x7d0",
      "l1BlobBaseFee": "0x1",
      "l1BlobBaseFeeScalar": "0xdbba0",
      "l1Fee": "0x7a",
      "l1GasPrice": "0xa",
      "l1GasUsed": "0x640"
    },
    {
      "status": "0x1",
      "cumulativeGasUsed": "0x3e494d",
      "logs": [
        {
          "address": "0xe55c5ace3b0645aead6d685d29dfec35245619bc",
          "topics": [
            "0xddf252ad1be2c89b69c2b068fc378daa952ba7f163c4a11628f55a4df523b3ef",
            "0x000000000000000000000000e752c55acabc5f745ab36a0993bf35c6555b60e4",
            "0x0000000000000000000000007dd287edec07099f5ef1f1d2883150617df74a2e"
          ],
          "data": "0x00000000000000000000000000000000000000000000000000000002540be400",
          "blockHash": "0x3dddfb27e5dded2fb48239214b3154d855b210b45acfa1c1834204d4a6f10956",
          "blockNumber": "0x2ce3451",
          "blockTimestamp": "0x69bbe19d",
          "transactionHash": "0x2470de0748fa7cf80501773a50d0cc6fd4ad24ca15bc90fb023f852729fd4d94",
          "transactionIndex": "0xf",
          "logIndex": "0x9",
          "removed": false
        }
      ],
      "logsBloom": "0x00000000000000000000000000000000040000000000000000000000000000000000000000000000800000000000000000000000000000000000000000000000000000000000004000000008000000000000000000000000000000000000000000000000000000000010000000008000000000000000000000000010000000000000001000000000000000000000000000000000000000080000000000000000000000000000000000000000000000000020000000000000000000000000000000000002000000000000000000000000000000008000000000000000000000000000000000000000000000000000000000000000000000000000000000000000",
      "type": "0x2",
      "transactionHash": "0x2470de0748fa7cf80501773a50d0cc6fd4ad24ca15bc90fb023f852729fd4d94",
      "transactionIndex": "0xf",
      "blockHash": "0x3dddfb27e5dded2fb48239214b3154d855b210b45acfa1c1834204d4a6f10956",
      "blockNumber": "0x2ce3451",
      "gasUsed": "0x13878",
      "effectiveGasPrice": "0x7a121",
      "blobGasUsed": "0x9c40",
      "from": "0xe752c55acabc5f745ab36a0993bf35c6555b60e4",
      "to": "0x7dd287edec07099f5ef1f1d2883150617df74a2e",
      "contractAddress": null,
      "daFootprintGasScalar": "0x190",
      "l1BaseFeeScalar": "0x7d0",
      "l1BlobBaseFee": "0x1",
      "l1BlobBaseFeeScalar": "0xdbba0",
      "l1Fee": "0x7a",
      "l1GasPrice": "0xa",
      "l1GasUsed": "0x640"
    },
    {
      "status": "0x1",
      "cumulativeGasUsed": "0x3f81dd",
      "logs": [
        {
          "address": "0x83190ed6aba775d7910ef2f5f94845ca79ccc29e",
          "topics": [
            "0xddf252ad1be2c89b69c2b068fc378daa952ba7f163c4a11628f55a4df523b3ef",
            "0x000000000000000000000000e752c55acabc5f745ab36a0993bf35c6555b60e4",
            "0x0000000000000000000000007dd287edec07099f5ef1f1d2883150617df74a2e"
          ],
          "data": "0x0000000000000000000000000000000000000000000000004563918244f40000",
          "blockHash": "0x3dddfb27e5dded2fb48239214b3154d855b210b45acfa1c1834204d4a6f10956",
          "blockNumber": "0x2ce3451",
          "blockTimestamp": "0x69bbe19d",
          "transactionHash": "0xd6f5dd670b4f42e9c3abfdb05b6d4152122befe4fdb2e3ef3f35609d3ec3a4d4",
          "transactionIndex": "0x10",
          "logIndex": "0xa",
          "removed": false
        }
      ],
      "logsBloom": "0x00000000000000000000000000000000040000000000000000000000000000000000000000000000800000000000000000000000000000000000000000010000000000000000000000000008000000000000000000000000000000000000000000000000000080000010010000008000000000000000000000000010000000000000000000000000000000000000000000000000000000080000000000000000000000000000000000000000000000000000000000000000000000000000000000000002000000000000000000000000000000008000000000000000000000000000000000000000000000000000000000000000000000000000000000000000",
      "type": "0x2",
      "transactionHash": "0xd6f5dd670b4f42e9c3abfdb05b6d4152122befe4fdb2e3ef3f35609d3ec3a4d4",
      "transactionIndex": "0x10",
      "blockHash": "0x3dddfb27e5dded2fb48239214b3154d855b210b45acfa1c1834204d4a6f10956",
      "blockNumber": "0x2ce3451",
      "gasUsed": "0x13890",
      "effectiveGasPrice": "0x7a121",
      "blobGasUsed": "0x9c40",
      "from": "0xe752c55acabc5f745ab36a0993bf35c6555b60e4",
      "to": "0x7dd287edec07099f5ef1f1d2883150617df74a2e",
      "contractAddress": null,
      "daFootprintGasScalar": "0x190",
      "l1BaseFeeScalar": "0x7d0",
      "l1BlobBaseFee": "0x1",
      "l1BlobBaseFeeScalar": "0xdbba0",
      "l1Fee": "0x7a",
      "l1GasPrice": "0xa",
      "l1GasUsed": "0x640"
    }
  ],
  "libraries": [],
  "pending": [],
  "returns": {},
  "timestamp": 1773920754706,
  "chain": 1301,
  "commit": "21cfb75"
}