{
  "transactions": [
    {
      "hash": "0x67915a3e470e2d50c211c67964b7fde92a70f1182df32ad0f04ac9ddcea140d9",
      "transactionType": "CALL",
      "contractName": null,
      "contractAddress": "0xad86b4c5048fdc15550543c45cdd70f70d0a63ef",
      "function": "mint(address,uint256)",
      "arguments": [
        "0xe752c55ACAbC5F745AB36a0993bf35c6555B60e4",
        "50000000000000000000"
      ],
      "transaction": {
        "from": "0xe752c55acabc5f745ab36a0993bf35c6555b60e4",
        "to": "0xad86b4c5048fdc15550543c45cdd70f70d0a63ef",
        "gas": "0x16f7a",
        "value": "0x0",
        "input": "0x40c10f19000000000000000000000000e752c55acabc5f745ab36a0993bf35c6555b60e4000000000000000000000000000000000000000000000002b5e3af16b1880000",
        "nonce": "0x36",
        "chainId": "0x515"
      },
      "additionalContracts": [],
      "isFixedGasLimit": false
    },
    {
      "hash": "0x27e80307694967444f79702db8fbf8669524e6a6adc0148ab895975888544aaa",
      "transactionType": "CALL",
      "contractName": null,
      "contractAddress": "0x665d2ce2a1c0de6d1a633f7e64c2383cb624662a",
      "function": "mint(address,uint256)",
      "arguments": [
        "0xe752c55ACAbC5F745AB36a0993bf35c6555B60e4",
        "100000000000"
      ],
      "transaction": {
        "from": "0xe752c55acabc5f745ab36a0993bf35c6555b60e4",
        "to": "0x665d2ce2a1c0de6d1a633f7e64c2383cb624662a",
        "gas": "0x184e4",
        "value": "0x0",
        "input": "0x40c10f19000000000000000000000000e752c55acabc5f745ab36a0993bf35c6555b60e4000000000000000000000000000000000000000000000000000000174876e800",
        "nonce": "0x37",
        "chainId": "0x515"
      },
      "additionalContracts": [],
      "isFixedGasLimit": false
    },
    {
      "hash": "0x258ffc75e415d7eb6de29f0e1a7934fa452142fe9b2d30ed4214fd0136589eff",
      "transactionType": "CALL",
      "contractName": null,
      "contractAddress": "0x665d2ce2a1c0de6d1a633f7e64c2383cb624662a",
      "function": "approve(address,uint256)",
      "arguments": [
        "0x404362df39d9352D439eAA00cFaD2074498883d0",
        "10000000000"
      ],
      "transaction": {
        "from": "0xe752c55acabc5f745ab36a0993bf35c6555b60e4",
        "to": "0x665d2ce2a1c0de6d1a633f7e64c2383cb624662a",
        "gas": "0x10657",
        "value": "0x0",
        "input": "0x095ea7b3000000000000000000000000404362df39d9352d439eaa00cfad2074498883d000000000000000000000000000000000000000000000000000000002540be400",
        "nonce": "0x38",
        "chainId": "0x515"
      },
      "additionalContracts": [],
      "isFixedGasLimit": false
    },
    {
      "hash": "0x2d3fc902c848a1026cb58eb67617ba6c851255ec93be736d30715fc350741fef",
      "transactionType": "CALL",
      "contractName": null,
      "contractAddress": "0xad86b4c5048fdc15550543c45cdd70f70d0a63ef",
      "function": "approve(address,uint256)",
      "arguments": [
        "0x404362df39d9352D439eAA00cFaD2074498883d0",
        "5000000000000000000"
      ],
      "transaction": {
        "from": "0xe752c55acabc5f745ab36a0993bf35c6555b60e4",
        "to": "0xad86b4c5048fdc15550543c45cdd70f70d0a63ef",
        "gas": "0x1067a",
        "value": "0x0",
        "input": "0x095ea7b3000000000000000000000000404362df39d9352d439eaa00cfad2074498883d00000000000000000000000000000000000000000000000004563918244f40000",
        "nonce": "0x39",
        "chainId": "0x515"
      },
      "additionalContracts": [],
      "isFixedGasLimit": false
    },
    {
      "hash": "0x8212b300b7b084700b7f8c64f614607744247bfc6b4d8aaf21403015869a15d0",
      "transactionType": "CALL",
      "contractName": null,
      "contractAddress": "0x404362df39d9352d439eaa00cfad2074498883d0",
      "function": "seedReserve(address,uint256)",
      "arguments": [
        "0x665D2ce2a1c0De6D1a633f7E64C2383CB624662A",
        "10000000000"
      ],
      "transaction": {
        "from": "0xe752c55acabc5f745ab36a0993bf35c6555b60e4",
        "to": "0x404362df39d9352d439eaa00cfad2074498883d0",
        "gas": "0x1af98",
        "value": "0x0",
        "input": "0x973e3c64000000000000000000000000665d2ce2a1c0de6d1a633f7e64c2383cb624662a00000000000000000000000000000000000000000000000000000002540be400",
        "nonce": "0x3a",
        "chainId": "0x515"
      },
      "additionalContracts": [],
      "isFixedGasLimit": false
    },
    {
      "hash": "0x62427697a4f3d107a1844f89bcdd03c81c6105bd88ac97ded5aa6648f3c68cf4",
      "transactionType": "CALL",
      "contractName": null,
      "contractAddress": "0x404362df39d9352d439eaa00cfad2074498883d0",
      "function": "seedReserve(address,uint256)",
      "arguments": [
        "0xad86B4C5048Fdc15550543C45cdD70f70D0A63EF",
        "5000000000000000000"
      ],
      "transaction": {
        "from": "0xe752c55acabc5f745ab36a0993bf35c6555b60e4",
        "to": "0x404362df39d9352d439eaa00cfad2074498883d0",
        "gas": "0x1afba",
        "value": "0x0",
        "input": "0x973e3c64000000000000000000000000ad86b4c5048fdc15550543c45cdd70f70d0a63ef0000000000000000000000000000000000000000000000004563918244f40000",
        "nonce": "0x3b",
        "chainId": "0x515"
      },
      "additionalContracts": [],
      "isFixedGasLimit": false
    },
    {
      "hash": "0xac8c2aae72cd3717acfd7d6f7c2b98512e61cb5c8544f7722b5487f72f08fb1f",
      "transactionType": "CALL",
      "contractName": null,
      "contractAddress": "0x00b036b58a818b1bc34d502d3fe730db729e62ac",
      "function": "initialize((address,address,uint24,int24,address),uint160)",
      "arguments": [
        "(0x665D2ce2a1c0De6D1a633f7E64C2383CB624662A, 0xad86B4C5048Fdc15550543C45cdD70f70D0A63EF, 8388608, 60, 0x2042d29d9FC03a225c6a1d56b5a138C9e61960C8)",
        "1771595571142957166518320255467520"
      ],
      "transaction": {
        "from": "0xe752c55acabc5f745ab36a0993bf35c6555b60e4",
        "to": "0x00b036b58a818b1bc34d502d3fe730db729e62ac",
        "gas": "0x129c8",
        "value": "0x0",
        "input": "0x6276cbbe000000000000000000000000665d2ce2a1c0de6d1a633f7e64c2383cb624662a000000000000000000000000ad86b4c5048fdc15550543c45cdd70f70d0a63ef0000000000000000000000000000000000000000000000000000000000800000000000000000000000000000000000000000000000000000000000000000003c0000000000000000000000002042d29d9fc03a225c6a1d56b5a138c9e61960c80000000000000000000000000000000000005758ae05bbf89c00000000000000",
        "nonce": "0x3c",
        "chainId": "0x515"
      },
      "additionalContracts": [],
      "isFixedGasLimit": false
    },
    {
      "hash": "0x9a62aa48d4f286908dd21ac1b679ddc4e8ba1bdd075aca0d8771ecbf33ed6a03",
      "transactionType": "CALL",
      "contractName": null,
      "contractAddress": "0x665d2ce2a1c0de6d1a633f7e64c2383cb624662a",
      "function": "approve(address,uint256)",
      "arguments": [
        "0x000000000022D473030F116dDEE9F6B43aC78BA3",
        "115792089237316195423570985008687907853269984665640564039457584007913129639935"
      ],
      "transaction": {
        "from": "0xe752c55acabc5f745ab36a0993bf35c6555b60e4",
        "to": "0x665d2ce2a1c0de6d1a633f7e64c2383cb624662a",
        "gas": "0x107fc",
        "value": "0x0",
        "input": "0x095ea7b3000000000000000000000000000000000022d473030f116ddee9f6b43ac78ba3ffffffffffffffffffffffffffffffffffffffffffffffffffffffffffffffff",
        "nonce": "0x3d",
        "chainId": "0x515"
      },
      "additionalContracts": [],
      "isFixedGasLimit": false
    },
    {
      "hash": "0x642727935957cf3c374ecfcf7ac3d805491b9e74f7800e9ab0a76f71fd0fffd4",
      "transactionType": "CALL",
      "contractName": null,
      "contractAddress": "0xad86b4c5048fdc15550543c45cdd70f70d0a63ef",
      "function": "approve(address,uint256)",
      "arguments": [
        "0x000000000022D473030F116dDEE9F6B43aC78BA3",
        "115792089237316195423570985008687907853269984665640564039457584007913129639935"
      ],
      "transaction": {
        "from": "0xe752c55acabc5f745ab36a0993bf35c6555b60e4",
        "to": "0xad86b4c5048fdc15550543c45cdd70f70d0a63ef",
        "gas": "0x107fc",
        "value": "0x0",
        "input": "0x095ea7b3000000000000000000000000000000000022d473030f116ddee9f6b43ac78ba3ffffffffffffffffffffffffffffffffffffffffffffffffffffffffffffffff",
        "nonce": "0x3e",
        "chainId": "0x515"
      },
      "additionalContracts": [],
      "isFixedGasLimit": false
    },
    {
      "hash": "0x4aa07cdf8f80d95dd01422e8b0ca239f831e2f4bb41423e2443350afe052f028",
      "transactionType": "CALL",
      "contractName": null,
      "contractAddress": "0x000000000022d473030f116ddee9f6b43ac78ba3",
      "function": "approve(address,address,uint160,uint48)",
      "arguments": [
        "0x665D2ce2a1c0De6D1a633f7E64C2383CB624662A",
        "0xf969Aee60879C54bAAed9F3eD26147Db216Fd664",
        "1461501637330902918203684832716283019655932542975",
        "281474976710655"
      ],
      "transaction": {
        "from": "0xe752c55acabc5f745ab36a0993bf35c6555b60e4",
        "to": "0x000000000022d473030f116ddee9f6b43ac78ba3",
        "gas": "0x1112d",
        "value": "0x0",
        "input": "0x87517c45000000000000000000000000665d2ce2a1c0de6d1a633f7e64c2383cb624662a000000000000000000000000f969aee60879c54baaed9f3ed26147db216fd664000000000000000000000000ffffffffffffffffffffffffffffffffffffffff0000000000000000000000000000000000000000000000000000ffffffffffff",
        "nonce": "0x3f",
        "chainId": "0x515"
      },
      "additionalContracts": [],
      "isFixedGasLimit": false
    },
    {
      "hash": "0xcc6788624cfb9775175d2b1a954b74f54d0dfaf5987c9434c3acb9abade34b76",
      "transactionType": "CALL",
      "contractName": null,
      "contractAddress": "0x000000000022d473030f116ddee9f6b43ac78ba3",
      "function": "approve(address,address,uint160,uint48)",
      "arguments": [
        "0xad86B4C5048Fdc15550543C45cdD70f70D0A63EF",
        "0xf969Aee60879C54bAAed9F3eD26147Db216Fd664",
        "1461501637330902918203684832716283019655932542975",
        "281474976710655"
      ],
      "transaction": {
        "from": "0xe752c55acabc5f745ab36a0993bf35c6555b60e4",
        "to": "0x000000000022d473030f116ddee9f6b43ac78ba3",
        "gas": "0x1112d",
        "value": "0x0",
        "input": "0x87517c45000000000000000000000000ad86b4c5048fdc15550543c45cdd70f70d0a63ef000000000000000000000000f969aee60879c54baaed9f3ed26147db216fd664000000000000000000000000ffffffffffffffffffffffffffffffffffffffff0000000000000000000000000000000000000000000000000000ffffffffffff",
        "nonce": "0x40",
        "chainId": "0x515"
      },
      "additionalContracts": [],
      "isFixedGasLimit": false
    },
    {
      "hash": "0xb231b2b8359d7b20051dc50c5128597112dff2a6086b5b2636f1abf5a4496811",
      "transactionType": "CALL",
      "contractName": null,
      "contractAddress": "0xf969aee60879c54baaed9f3ed26147db216fd664",
      "function": "modifyLiquidities(bytes,uint256)",
      "arguments": [
        "0x000000000000000000000000000000000000000000000000000000000000004000000000000000000000000000000000000000000000000000000000000000800000000000000000000000000000000000000000000000000000000000000002020d00000000000000000000000000000000000000000000000000000000000000000000000000000000000000000000000000000000000000000000000000020000000000000000000000000000000000000000000000000000000000000040000000000000000000000000000000000000000000000000000000000000020000000000000000000000000000000000000000000000000000000000000001a0000000000000000000000000665d2ce2a1c0de6d1a633f7e64c2383cb624662a000000000000000000000000ad86b4c5048fdc15550543c45cdd70f70d0a63ef0000000000000000000000000000000000000000000000000000000000800000000000000000000000000000000000000000000000000000000000000000003c0000000000000000000000002042d29d9fc03a225c6a1d56b5a138c9e61960c8000000000000000000000000000000000000000000000000000000000002f724000000000000000000000000000000000000000000000000000000000003260400000000000000000000000000000000000000000000000000009d96664aeb000000000000000000000000000000000000000000000000000000000135f1b4000000000000000000000000000000000000000000000000000f43fc2c04ee0000000000000000000000000000e752c55acabc5f745ab36a0993bf35c6555b60e4000000000000000000000000000000000000000000000000000000000000018000000000000000000000000000000000000000000000000000000000000000000000000000000000000000000000000000000000000000000000000000000040000000000000000000000000665d2ce2a1c0de6d1a633f7e64c2383cb624662a000000000000000000000000ad86b4c5048fdc15550543c45cdd70f70d0a63ef",
        "1773880497"
      ],
      "transaction": {
        "from": "0xe752c55acabc5f745ab36a0993bf35c6555b60e4",
        "to": "0xf969aee60879c54baaed9f3ed26147db216fd664",
        "gas": "0x96d68",
        "value": "0x0",
        "input": "0xdd46508f00000000000000000000000000000000000000000000000000000000000000400000000000000000000000000000000000000000000000000000000069bb44b10000000000000000000000000000000000000000000000000000000000000300000000000000000000000000000000000000000000000000000000000000004000000000000000000000000000000000000000000000000000000000000000800000000000000000000000000000000000000000000000000000000000000002020d00000000000000000000000000000000000000000000000000000000000000000000000000000000000000000000000000000000000000000000000000020000000000000000000000000000000000000000000000000000000000000040000000000000000000000000000000000000000000000000000000000000020000000000000000000000000000000000000000000000000000000000000001a0000000000000000000000000665d2ce2a1c0de6d1a633f7e64c2383cb624662a000000000000000000000000ad86b4c5048fdc15550543c45cdd70f70d0a63ef0000000000000000000000000000000000000000000000000000000000800000000000000000000000000000000000000000000000000000000000000000003c0000000000000000000000002042d29d9fc03a225c6a1d56b5a138c9e61960c8000000000000000000000000000000000000000000000000000000000002f724000000000000000000000000000000000000000000000000000000000003260400000000000000000000000000000000000000000000000000009d96664aeb000000000000000000000000000000000000000000000000000000000135f1b4000000000000000000000000000000000000000000000000000f43fc2c04ee0000000000000000000000000000e752c55acabc5f745ab36a0993bf35c6555b60e4000000000000000000000000000000000000000000000000000000000000018000000000000000000000000000000000000000000000000000000000000000000000000000000000000000000000000000000000000000000000000000000040000000000000000000000000665d2ce2a1c0de6d1a633f7e64c2383cb624662a000000000000000000000000ad86b4c5048fdc15550543c45cdd70f70d0a63ef",
        "nonce": "0x41",
        "chainId": "0x515"
      },
      "additionalContracts": [],
      "isFixedGasLimit": false
    }
  ],
  "receipts": [
    {
      "status": "0x1",
      "cumulativeGasUsed": "0x38405",
      "logs": [
        {
          "address": "0xad86b4c5048fdc15550543c45cdd70f70d0a63ef",
          "topics": [
            "0xddf252ad1be2c89b69c2b068fc378daa952ba7f163c4a11628f55a4df523b3ef",
            "0x0000000000000000000000000000000000000000000000000000000000000000",
            "0x000000000000000000000000e752c55acabc5f745ab36a0993bf35c6555b60e4"
          ],
          "data": "0x000000000000000000000000000000000000000000000002b5e3af16b1880000",
          "blockHash": "0x0000000000000000000000000000000000000000000000000000000000000000",
          "blockNumber": "0x2cd9746",
          "blockTimestamp": "0x69bb4492",
          "transactionHash": "0x67915a3e470e2d50c211c67964b7fde92a70f1182df32ad0f04ac9ddcea140d9",
          "transactionIndex": "0x3",
          "logIndex": "0x1",
          "removed": false
        }
      ],
      "logsBloom": "0x00000000000000000000000000000000040000000000000000000000000000000000000000000000000000000000000000000000000000000000400000000000000000000000000000000008000000000000000000000000000000000000000000000000020000000000000000008800000000000000000000000010000000000000000000000000000000000000000000800000000000000000000000000000000000000000000000000000000000000000400000000000000000000000000000000002000000000000000000000000000000008000000000000000000020000000000000000000000000000000000000000000000000000000000000000000",
      "type": "0x2",
      "transactionHash": "0x67915a3e470e2d50c211c67964b7fde92a70f1182df32ad0f04ac9ddcea140d9",
      "transactionIndex": "0x3",
      "blockHash": "0x0000000000000000000000000000000000000000000000000000000000000000",
      "blockNumber": "0x2cd9746",
      "gasUsed": "0x10a0d",
      "effectiveGasPrice": "0x7a121",
      "blobGasUsed": "0x9c40",
      "from": "0xe752c55acabc5f745ab36a0993bf35c6555b60e4",
      "to": "0xad86b4c5048fdc15550543c45cdd70f70d0a63ef",
      "contractAddress": null,
      "daFootprintGasScalar": "0x190",
      "l1BaseFeeScalar": "0x7d0",
      "l1BlobBaseFee": "0x1",
      "l1BlobBaseFeeScalar": "0xdbba0",
      "l1Fee": "0xa0",
      "l1GasPrice": "0x8",
      "l1GasUsed": "0x640"
    },
    {
      "status": "0x1",
      "cumulativeGasUsed": "0x6cec4",
      "logs": [
        {
          "address": "0x665d2ce2a1c0de6d1a633f7e64c2383cb624662a",
          "topics": [
            "0xddf252ad1be2c89b69c2b068fc378daa952ba7f163c4a11628f55a4df523b3ef",
            "0x0000000000000000000000000000000000000000000000000000000000000000",
            "0x000000000000000000000000e752c55acabc5f745ab36a0993bf35c6555b60e4"
          ],
          "data": "0x000000000000000000000000000000000000000000000000000000174876e800",
          "blockHash": "0x0000000000000000000000000000000000000000000000000000000000000000",
          "blockNumber": "0x2cd9746",
          "blockTimestamp": "0x69bb4492",
          "transactionHash": "0x27e80307694967444f79702db8fbf8669524e6a6adc0148ab895975888544aaa",
          "transactionIndex": "0x5",
          "logIndex": "0x6",
          "removed": false
        }
      ],
      "logsBloom": "0x00000000000000000000000000000000040000000000000000020000000000000000000000000000000000000000000000000000000000000000000000000000000000000000000000000208000000000000000000000000000000000000000000000000020000000000000000008800000000000000000000000010000000000000000000000000000000000000000000000000000000000000000000000000000000000000000000000000000000000000000000000000000000000000000000000002000000000000000000000000000000008000000000000000200020000000000000000000000000000000000000000000000000000000000000000000",
      "type": "0x2",
      "transactionHash": "0x27e80307694967444f79702db8fbf8669524e6a6adc0148ab895975888544aaa",
      "transactionIndex": "0x5",
      "blockHash": "0x0000000000000000000000000000000000000000000000000000000000000000",
      "blockNumber": "0x2cd9746",
      "gasUsed": "0x109e9",
      "effectiveGasPrice": "0x7a121",
      "blobGasUsed": "0x9c40",
      "from": "0xe752c55acabc5f745ab36a0993bf35c6555b60e4",
      "to": "0x665d2ce2a1c0de6d1a633f7e64c2383cb624662a",
      "contractAddress": null,
      "daFootprintGasScalar": "0x190",
      "l1BaseFeeScalar": "0x7d0",
      "l1BlobBaseFee": "0x1",
      "l1BlobBaseFeeScalar": "0xdbba0",
      "l1Fee": "0xa0",
      "l1GasPrice": "0x8",
      "l1GasUsed": "0x640"
    },
    {
      "status": "0x1",
      "cumulativeGasUsed": "0x78225",
      "logs": [
        {
          "address": "0x665d2ce2a1c0de6d1a633f7e64c2383cb624662a",
          "topics": [
            "0x8c5be1e5ebec7d5bd14f71427d1e84f3dd0314c0f7b2291e5b200ac8c7c3b925",
            "0x000000000000000000000000e752c55acabc5f745ab36a0993bf35c6555b60e4",
            "0x000000000000000000000000404362df39d9352d439eaa00cfad2074498883d0"
          ],
          "data": "0x00000000000000000000000000000000000000000000000000000002540be400",
          "blockHash": "0x0000000000000000000000000000000000000000000000000000000000000000",
          "blockNumber": "0x2cd9746",
          "blockTimestamp": "0x69bb4492",
          "transactionHash": "0x2d3fc902c848a1026cb58eb67617ba6c851255ec93be736d30715fc350741fef",
          "transactionIndex": "0x6",
          "logIndex": "0x7",
          "removed": false
        }
      ],
      "logsBloom": "0x00000000000000000000000000000000040000000000000000020000000000000000000000000000000000000000000000000000000000000008000000200000000000000000000000000200000000000000000000000000400000000000000000000000000000000000000000008000000000000000000000000000000000000000000000000000000000000000000000000000000000000000000000000000020000000000000000000000000000000000000000000000000000000000000000000000000000000000000000000000000000008000000000000000200000000010000000000000000000000000000000000000000000000000000000400000",
      "type": "0x2",
      "transactionHash": "0x2d3fc902c848a1026cb58eb67617ba6c851255ec93be736d30715fc350741fef",
      "transactionIndex": "0x6",
      "blockHash": "0x0000000000000000000000000000000000000000000000000000000000000000",
      "blockNumber": "0x2cd9746",
      "gasUsed": "0xb361",
      "effectiveGasPrice": "0x7a121",
      "blobGasUsed": "0x9c40",
      "from": "0xe752c55acabc5f745ab36a0993bf35c6555b60e4",
      "to": "0x665d2ce2a1c0de6d1a633f7e64c2383cb624662a",
      "contractAddress": null,
      "daFootprintGasScalar": "0x190",
      "l1BaseFeeScalar": "0x7d0",
      "l1BlobBaseFee": "0x1",
      "l1BlobBaseFeeScalar": "0xdbba0",
      "l1Fee": "0xa0",
      "l1GasPrice": "0x8",
      "l1GasUsed": "0x640"
    },
    {
      "status": "0x1",
      "cumulativeGasUsed": "0x8359e",
      "logs": [
        {
          "address": "0xad86b4c5048fdc15550543c45cdd70f70d0a63ef",
          "topics": [
            "0x8c5be1e5ebec7d5bd14f71427d1e84f3dd0314c0f7b2291e5b200ac8c7c3b925",
            "0x000000000000000000000000e752c55acabc5f745ab36a0993bf35c6555b60e4",
            "0x000000000000000000000000404362df39d9352d439eaa00cfad2074498883d0"
          ],
          "data": "0x0000000000000000000000000000000000000000000000004563918244f40000",
          "blockHash": "0x0000000000000000000000000000000000000000000000000000000000000000",
          "blockNumber": "0x2cd9746",
          "blockTimestamp": "0x69bb4492",
          "transactionHash": "0x62427697a4f3d107a1844f89bcdd03c81c6105bd88ac97ded5aa6648f3c68cf4",
          "transactionIndex": "0x7",
          "logIndex": "0x8",
          "removed": false
        }
      ],
      "logsBloom": "0x00000000000000000000000000000000040000000000000000000000000000000000000000000000000000000000000000000000000000000008400000200000000000000000000000000000000000000000000000000000400000000000000000000000000000000000000000008000000000000000000000000000000000000000000000000000000000000000000000800000000000000000000000000000020000000000000000000000000000000000400000000000000000000000000000000000000000000000000000000000000000008000000000000000000000000010000000000000000000000000000000000000000000000000000000400000",
      "type": "0x2",
      "transactionHash": "0x62427697a4f3d107a1844f89bcdd03c81c6105bd88ac97ded5aa6648f3c68cf4",
      "transactionIndex": "0x7",
      "blockHash": "0x0000000000000000000000000000000000000000000000000000000000000000",
      "blockNumber": "0x2cd9746",
      "gasUsed": "0xb379",
      "effectiveGasPrice": "0x7a121",
      "blobGasUsed": "0x9c40",
      "from": "0xe752c55acabc5f745ab36a0993bf35c6555b60e4",
      "to": "0xad86b4c5048fdc15550543c45cdd70f70d0a63ef",
      "contractAddress": null,
      "daFootprintGasScalar": "0x190",
      "l1BaseFeeScalar": "0x7d0",
      "l1BlobBaseFee": "0x1",
      "l1BlobBaseFeeScalar": "0xdbba0",
      "l1Fee": "0xa0",
      "l1GasPrice": "0x8",
      "l1GasUsed": "0x640"
    },
    {
      "status": "0x1",
      "cumulativeGasUsed": "0x96e16",
      "logs": [
        {
          "address": "0x665d2ce2a1c0de6d1a633f7e64c2383cb624662a",
          "topics": [
            "0xddf252ad1be2c89b69c2b068fc378daa952ba7f163c4a11628f55a4df523b3ef",
            "0x000000000000000000000000e752c55acabc5f745ab36a0993bf35c6555b60e4",
            "0x000000000000000000000000404362df39d9352d439eaa00cfad2074498883d0"
          ],
          "data": "0x00000000000000000000000000000000000000000000000000000002540be400",
          "blockHash": "0xa213821d4ebe6b58301c5f515db52de43466fe250c459ddd68dd2b88a8827616",
          "blockNumber": "0x2cd9746",
          "blockTimestamp": "0x69bb4492",
          "transactionHash": "0xb231b2b8359d7b20051dc50c5128597112dff2a6086b5b2636f1abf5a4496811",
          "transactionIndex": "0x8",
          "logIndex": "0x9",
          "removed": false
        }
      ],
      "logsBloom": "0x00000000000000000000000000000000040000000000000000020000000000000000000000000000000000000000000000000000000000000008000000000000000000000000000000000208000000000000000000000000400000000000000000000000000000000000000000008000000000000000000000000010000000000000000000000000000000000000000000000000000000000000000000000000000000000000000000000000000000000000000000000000000000000000000000000002000000000000000000000000000000008000000000000000200000000000000000000000000000000000000000000000000000000000000000400000",
      "type": "0x2",
      "transactionHash": "0xb231b2b8359d7b20051dc50c5128597112dff2a6086b5b2636f1abf5a4496811",
      "transactionIndex": "0x8",
      "blockHash": "0xa213821d4ebe6b58301c5f515db52de43466fe250c459ddd68dd2b88a8827616",
      "blockNumber": "0x2cd9746",
      "gasUsed": "0x13878",
      "effectiveGasPrice": "0x7a121",
      "blobGasUsed": "0x9c40",
      "from": "0xe752c55acabc5f745ab36a0993bf35c6555b60e4",
      "to": "0x404362df39d9352d439eaa00cfad2074498883d0",
      "contractAddress": null,
      "daFootprintGasScalar": "0x190",
      "l1BaseFeeScalar": "0x7d0",
      "l1BlobBaseFee": "0x1",
      "l1BlobBaseFeeScalar": "0xdbba0",
      "l1Fee": "0x73",
      "l1GasPrice": "0x8",
      "l1GasUsed": "0x640"
    },
    {
      "status": "0x1",
      "cumulativeGasUsed": "0xaa6a6",
      "logs": [
        {
          "address": "0xad86b4c5048fdc15550543c45cdd70f70d0a63ef",
          "topics": [
            "0xddf252ad1be2c89b69c2b068fc378daa952ba7f163c4a11628f55a4df523b3ef",
            "0x000000000000000000000000e752c55acabc5f745ab36a0993bf35c6555b60e4",
            "0x000000000000000000000000404362df39d9352d439eaa00cfad2074498883d0"
          ],
          "data": "0x0000000000000000000000000000000000000000000000004563918244f40000",
          "blockHash": "0x0000000000000000000000000000000000000000000000000000000000000000",
          "blockNumber": "0x2cd9746",
          "blockTimestamp": "0x69bb4492",
          "transactionHash": "0x8212b300b7b084700b7f8c64f614607744247bfc6b4d8aaf21403015869a15d0",
          "transactionIndex": "0x9",
          "logIndex": "0xa",
          "removed": false
        }
      ],
      "logsBloom": "0x00000000000000000000000000000000040000000000000000000000000000000000000000000000000000000000000000000000000000000008400000000000000000000000000000000008000000000000000000000000400000000000000000000000000000000000000000008000000000000000000000000010000000000000000000000000000000000000000000800000000000000000000000000000000000000000000000000000000000000000400000000000000000000000000000000002000000000000000000000000000000008000000000000000000000000000000000000000000000000000000000000000000000000000000000400000",
      "type": "0x2",
      "transactionHash": "0x8212b300b7b084700b7f8c64f614607744247bfc6b4d8aaf21403015869a15d0",
      "transactionIndex": "0x9",
      "blockHash": "0x0000000000000000000000000000000000000000000000000000000000000000",
      "blockNumber": "0x2cd9746",
      "gasUsed": "0x13890",
      "effectiveGasPrice": "0x7a121",
      "blobGasUsed": "0x9c40",
      "from": "0xe752c55acabc5f745ab36a0993bf35c6555b60e4",
      "to": "0x404362df39d9352d439eaa00cfad2074498883d0",
      "contractAddress": null,
      "daFootprintGasScalar": "0x190",
      "l1BaseFeeScalar": "0x7d0",
      "l1BlobBaseFee": "0x1",
      "l1BlobBaseFeeScalar": "0xdbba0",
      "l1Fee": "0xa0",
      "l1GasPrice": "0x8",
      "l1GasUsed": "0x640"
    },
    {
      "status": "0x1",
      "cumulativeGasUsed": "0xb7e3d",
      "logs": [
        {
          "address": "0x00b036b58a818b1bc34d502d3fe730db729e62ac",
          "topics": [
            "0xdd466e674ea557f56295e2d0218a125ea4b4f0f6f3307b95f85e6110838d6438",
            "0x740bad5c8757ac3212f333bc0e0cbc11fc07740b5be0cdab568a1c927a45ad90",
            "0x000000000000000000000000665d2ce2a1c0de6d1a633f7e64c2383cb624662a",
            "0x000000000000000000000000ad86b4c5048fdc15550543c45cdd70f70d0a63ef"
          ],
          "data": "0x0000000000000000000000000000000000000000000000000000000000800000000000000000000000000000000000000000000000000000000000000000003c0000000000000000000000002042d29d9fc03a225c6a1d56b5a138c9e61960c80000000000000000000000000000000000005758ae05bbf89c000000000000000000000000000000000000000000000000000000000000000000000000030e77",
          "blockHash": "0x0000000000000000000000000000000000000000000000000000000000000000",
          "blockNumber": "0x2cd9746",
          "blockTimestamp": "0x69bb4492",
          "transactionHash": "0x258ffc75e415d7eb6de29f0e1a7934fa452142fe9b2d30ed4214fd0136589eff",
          "transactionIndex": "0xa",
          "logIndex": "0xb",
          "removed": false
        }
      ],
      "logsBloom": "0x00000000000000000000000000000000000000000000000000000000000000000000000000000000000000000000000000000000000002000000000000000000000000800000000000000000000000000000000000000000000000000000010000000000000000000000000000000000000000000000000000000000000000000000000000080008000000000008000000000001000000000000000000200001000000000020000000008000000000000000000000000000000000000000000000000000000000000000000000000000000000000000000000000000000000000000400000000000000000000000000000000000000002010000000000000010",
      "type": "0x2",
      "transactionHash": "0x258ffc75e415d7eb6de29f0e1a7934fa452142fe9b2d30ed4214fd0136589eff",
      "transactionIndex": "0xa",
      "blockHash": "0x0000000000000000000000000000000000000000000000000000000000000000",
      "blockNumber": "0x2cd9746",
      "gasUsed": "0xd797",
      "effectiveGasPrice": "0x7a121",
      "blobGasUsed": "0xdf70",
      "from": "0xe752c55acabc5f745ab36a0993bf35c6555b60e4",
      "to": "0x00b036b58a818b1bc34d502d3fe730db729e62ac",
      "contractAddress": null,
      "daFootprintGasScalar": "0x190",
      "l1BaseFeeScalar": "0x7d0",
      "l1BlobBaseFee": "0x1",
      "l1BlobBaseFeeScalar": "0xdbba0",
      "l1Fee": "0xa0",
      "l1GasPrice": "0x8",
      "l1GasUsed": "0x8f1"
    },
    {
      "status": "0x1",
      "cumulativeGasUsed": "0xc32be",
      "logs": [
        {
          "address": "0x665d2ce2a1c0de6d1a633f7e64c2383cb624662a",
          "topics": [
            "0x8c5be1e5ebec7d5bd14f71427d1e84f3dd0314c0f7b2291e5b200ac8c7c3b925",
            "0x000000000000000000000000e752c55acabc5f745ab36a0993bf35c6555b60e4",
            "0x000000000000000000000000000000000022d473030f116ddee9f6b43ac78ba3"
          ],
          "data": "0xffffffffffffffffffffffffffffffffffffffffffffffffffffffffffffffff",
          "blockHash": "0xa213821d4ebe6b58301c5f515db52de43466fe250c459ddd68dd2b88a8827616",
          "blockNumber": "0x2cd9746",
          "blockTimestamp": "0x69bb4492",
          "transactionHash": "0xcc6788624cfb9775175d2b1a954b74f54d0dfaf5987c9434c3acb9abade34b76",
          "transactionIndex": "0xb",
          "logIndex": "0xc",
          "removed": false
        }
      ],
      "logsBloom": "0x00000000000000000000000000000000040000000000000000020000000000000000000000000000000000000000000000000000800000000000000000200000000000000000000000004200000000000000000000000800000000000000000000000000000000000000000000008000000000000000000000000000000000000000000000000000000000000000000000000000000000000000000000000000020000000000000000000000000000000000000000000000000000000000000000000000000000000000000000000000000000008000000000000000200000000010000000000000000000000000000000000000000000000000000000000000",
      "type": "0x2",
      "transactionHash": "0xcc6788624cfb9775175d2b1a954b74f54d0dfaf5987c9434c3acb9abade34b76",
      "transactionIndex": "0xb",
      "blockHash": "0xa213821d4ebe6b58301c5f515db52de43466fe250c459ddd68dd2b88a8827616",
      "blockNumber": "0x2cd9746",
      "gasUsed": "0xb481",
      "effectiveGasPrice": "0x7a121",
      "blobGasUsed": "0x9c40",
      "from": "0xe752c55acabc5f745ab36a0993bf35c6555b60e4",
      "to": "0x665d2ce2a1c0de6d1a633f7e64c2383cb624662a",
      "contractAddress": null,
      "daFootprintGasScalar": "0x190",
      "l1BaseFeeScalar": "0x7d0",
      "l1BlobBaseFee": "0x1",
      "l1BlobBaseFeeScalar": "0xdbba0",
      "l1Fee": "0x73",
      "l1GasPrice": "0x8",
      "l1GasUsed": "0x640"
    },
    {
      "status": "0x1",
      "cumulativeGasUsed": "0xce73f",
      "logs": [
        {
          "address": "0xad86b4c5048fdc15550543c45cdd70f70d0a63ef",
          "topics": [
            "0x8c5be1e5ebec7d5bd14f71427d1e84f3dd0314c0f7b2291e5b200ac8c7c3b925",
            "0x000000000000000000000000e752c55acabc5f745ab36a0993bf35c6555b60e4",
            "0x000000000000000000000000000000000022d473030f116ddee9f6b43ac78ba3"
          ],
          "data": "0xffffffffffffffffffffffffffffffffffffffffffffffffffffffffffffffff",
          "blockHash": "0x0000000000000000000000000000000000000000000000000000000000000000",
          "blockNumber": "0x2cd9746",
          "blockTimestamp": "0x69bb4492",
          "transactionHash": "0x9a62aa48d4f286908dd21ac1b679ddc4e8ba1bdd075aca0d8771ecbf33ed6a03",
          "transactionIndex": "0xc",
          "logIndex": "0xd",
          "removed": false
        }
      ],
      "logsBloom": "0x00000000000000000000000000000000040000000000000000000000000000000000000000000000000000000000000000000000800000000000400000200000000000000000000000004000000000000000000000000800000000000000000000000000000000000000000000008000000000000000000000000000000000000000000000000000000000000000000000800000000000000000000000000000020000000000000000000000000000000000400000000000000000000000000000000000000000000000000000000000000000008000000000000000000000000010000000000000000000000000000000000000000000000000000000000000",
      "type": "0x2",
      "transactionHash": "0x9a62aa48d4f286908dd21ac1b679ddc4e8ba1bdd075aca0d8771ecbf33ed6a03",
      "transactionIndex": "0xc",
      "blockHash": "0x0000000000000000000000000000000000000000000000000000000000000000",
      "blockNumber": "0x2cd9746",
      "gasUsed": "0xb481",
      "effectiveGasPrice": "0x7a121",
      "blobGasUsed": "0x9c40",
      "from": "0xe752c55acabc5f745ab36a0993bf35c6555b60e4",
      "to": "0xad86b4c5048fdc15550543c45cdd70f70d0a63ef",
      "contractAddress": null,
      "daFootprintGasScalar": "0x190",
      "l1BaseFeeScalar": "0x7d0",
      "l1BlobBaseFee": "0x1",
      "l1BlobBaseFeeScalar": "0xdbba0",
      "l1Fee": "0xa0",
      "l1GasPrice": "0x8",
      "l1GasUsed": "0x640"
    },
    {
      "status": "0x1",
      "cumulativeGasUsed": "0xda209",
      "logs": [
        {
          "address": "0x000000000022d473030f116ddee9f6b43ac78ba3",
          "topics": [
            "0xda9fa7c1b00402c17d0161b249b1ab8bbec047c5a52207b9c112deffd817036b",
            "0x000000000000000000000000e752c55acabc5f745ab36a0993bf35c6555b60e4",
            "0x000000000000000000000000665d2ce2a1c0de6d1a633f7e64c2383cb624662a",
            "0x000000000000000000000000f969aee60879c54baaed9f3ed26147db216fd664"
          ],
          "data": "0x000000000000000000000000ffffffffffffffffffffffffffffffffffffffff0000000000000000000000000000000000000000000000000000ffffffffffff",
          "blockHash": "0x0000000000000000000000000000000000000000000000000000000000000000",
          "blockNumber": "0x2cd9746",
          "blockTimestamp": "0x69bb4492",
          "transactionHash": "0xac8c2aae72cd3717acfd7d6f7c2b98512e61cb5c8544f7722b5487f72f08fb1f",
          "transactionIndex": "0xd",
          "logIndex": "0xe",
          "removed": false
        }
      ],
      "logsBloom": "0x00010000000000000000000000000000040000000000000000000000000000000000000000000000000000000000000000000000000002000000000000080000000000800000000000000000000000000000000000000000000000001000000000000000000000000000000000008000000000000040000000000000000000000020000000080000000000000000000000000000000000000000000000000000000000000000000000000000000000000000000000000000000000080000000000000000000000000000000000000000000000008000000040000000000000000000000000000000000000000000000000000000000000000000000000002400",
      "type": "0x2",
      "transactionHash": "0xac8c2aae72cd3717acfd7d6f7c2b98512e61cb5c8544f7722b5487f72f08fb1f",
      "transactionIndex": "0xd",
      "blockHash": "0x0000000000000000000000000000000000000000000000000000000000000000",
      "blockNumber": "0x2cd9746",
      "gasUsed": "0xbaca",
      "effectiveGasPrice": "0x7a121",
      "blobGasUsed": "0xa8c0",
      "from": "0xe752c55acabc5f745ab36a0993bf35c6555b60e4",
      "to": "0x000000000022d473030f116ddee9f6b43ac78ba3",
      "contractAddress": null,
      "daFootprintGasScalar": "0x190",
      "l1BaseFeeScalar": "0x7d0",
      "l1BlobBaseFee": "0x1",
      "l1BlobBaseFeeScalar": "0xdbba0",
      "l1Fee": "0xa0",
      "l1GasPrice": "0x8",
      "l1GasUsed": "0x6cd"
    },
    {
      "status": "0x1",
      "cumulativeGasUsed": "0xe5cd3",
      "logs": [
        {
          "address": "0x000000000022d473030f116ddee9f6b43ac78ba3",
          "topics": [
            "0xda9fa7c1b00402c17d0161b249b1ab8bbec047c5a52207b9c112deffd817036b",
            "0x000000000000000000000000e752c55acabc5f745ab36a0993bf35c6555b60e4",
            "0x000000000000000000000000ad86b4c5048fdc15550543c45cdd70f70d0a63ef",
            "0x000000000000000000000000f969aee60879c54baaed9f3ed26147db216fd664"
          ],
          "data": "0x000000000000000000000000ffffffffffffffffffffffffffffffffffffffff0000000000000000000000000000000000000000000000000000ffffffffffff",
          "blockHash": "0x0000000000000000000000000000000000000000000000000000000000000000",
          "blockNumber": "0x2cd9746",
          "blockTimestamp": "0x69bb4492",
          "transactionHash": "0x642727935957cf3c374ecfcf7ac3d805491b9e74f7800e9ab0a76f71fd0fffd4",
          "transactionIndex": "0xe",
          "logIndex": "0xf",
          "removed": false
        }
      ],
      "logsBloom": "0x00010000000000000000000000000000040000000000000000000000000000000000000000000000000000000000000000000000000000000000000000080000000000000000000000000000000000000000000000000000000000001000010000000000000000000000000000008000000000000040000000000000000000000020000000000000000000000000000000000000000000000000000000000000000000000000000000000000000000000000000000000000000000080000000000000000000000000000000000000000000000008000000040000000000000000000400000000000000000000000000000000000000000010000000000002400",
      "type": "0x2",
      "transactionHash": "0x642727935957cf3c374ecfcf7ac3d805491b9e74f7800e9ab0a76f71fd0fffd4",
      "transactionIndex": "0xe",
      "blockHash": "0x0000000000000000000000000000000000000000000000000000000000000000",
      "blockNumber": "0x2cd9746",
      "gasUsed": "0xbaca",
      "effectiveGasPrice": "0x7a121",
      "blobGasUsed": "0xa8c0",
      "from": "0xe752c55acabc5f745ab36a0993bf35c6555b60e4",
      "to": "0x000000000022d473030f116ddee9f6b43ac78ba3",
      "contractAddress": null,
      "daFootprintGasScalar": "0x190",
      "l1BaseFeeScalar": "0x7d0",
      "l1BlobBaseFee": "0x1",
      "l1BlobBaseFeeScalar": "0xdbba0",
      "l1Fee": "0xa0",
      "l1GasPrice": "0x8",
      "l1GasUsed": "0x6cd"
    },
    {
      "status": "0x1",
      "cumulativeGasUsed": "0x14cf05",
      "logs": [
        {
          "address": "0xf969aee60879c54baaed9f3ed26147db216fd664",
          "topics": [
            "0xddf252ad1be2c89b69c2b068fc378daa952ba7f163c4a11628f55a4df523b3ef",
            "0x0000000000000000000000000000000000000000000000000000000000000000",
            "0x000000000000000000000000e752c55acabc5f745ab36a0993bf35c6555b60e4",
            "0x0000000000000000000000000000000000000000000000000000000000001c4e"
          ],
          "data": "0x",
          "blockHash": "0x0000000000000000000000000000000000000000000000000000000000000000",
          "blockNumber": "0x2cd9746",
          "blockTimestamp": "0x69bb4492",
          "transactionHash": "0x4aa07cdf8f80d95dd01422e8b0ca239f831e2f4bb41423e2443350afe052f028",
          "transactionIndex": "0xf",
          "logIndex": "0x10",
          "removed": false
        },
        {
          "address": "0x00b036b58a818b1bc34d502d3fe730db729e62ac",
          "topics": [
            "0xf208f4912782fd25c7f114ca3723a2d5dd6f3bcc3ac8db5af63baa85f711d5ec",
            "0x740bad5c8757ac3212f333bc0e0cbc11fc07740b5be0cdab568a1c927a45ad90",
            "0x000000000000000000000000f969aee60879c54baaed9f3ed26147db216fd664"
          ],
          "data": "0x000000000000000000000000000000000000000000000000000000000002f724000000000000000000000000000000000000000000000000000000000003260400000000000000000000000000000000000000000000000000009d96664aeb000000000000000000000000000000000000000000000000000000000000001c4e",
          "blockHash": "0x0000000000000000000000000000000000000000000000000000000000000000",
          "blockNumber": "0x2cd9746",
          "blockTimestamp": "0x69bb4492",
          "transactionHash": "0x4aa07cdf8f80d95dd01422e8b0ca239f831e2f4bb41423e2443350afe052f028",
          "transactionIndex": "0xf",
          "logIndex": "0x11",
          "removed": false
        },
        {
          "address": "0x665d2ce2a1c0de6d1a633f7e64c2383cb624662a",
          "topics": [
            "0xddf252ad1be2c89b69c2b068fc378daa952ba7f163c4a11628f55a4df523b3ef",
            "0x000000000000000000000000e752c55acabc5f745ab36a0993bf35c6555b60e4",
            "0x00000000000000000000000000b036b58a818b1bc34d502d3fe730db729e62ac"
          ],
          "data": "0x000000000000000000000000000000000000000000000000000000007831d2e7",
          "blockHash": "0x0000000000000000000000000000000000000000000000000000000000000000",
          "blockNumber": "0x2cd9746",
          "blockTimestamp": "0x69bb4492",
          "transactionHash": "0x4aa07cdf8f80d95dd01422e8b0ca239f831e2f4bb41423e2443350afe052f028",
          "transactionIndex": "0xf",
          "logIndex": "0x12",
          "removed": false
        },
        {
          "address": "0xad86b4c5048fdc15550543c45cdd70f70d0a63ef",
          "topics": [
            "0xddf252ad1be2c89b69c2b068fc378daa952ba7f163c4a11628f55a4df523b3ef",
            "0x000000000000000000000000e752c55acabc5f745ab36a0993bf35c6555b60e4",
            "0x00000000000000000000000000b036b58a818b1bc34d502d3fe730db729e62ac"
          ],
          "data": "0x0000000000000000000000000000000000000000000000000de0b6b3a7350867",
          "blockHash": "0x0000000000000000000000000000000000000000000000000000000000000000",
          "blockNumber": "0x2cd9746",
          "blockTimestamp": "0x69bb4492",
          "transactionHash": "0x4aa07cdf8f80d95dd01422e8b0ca239f831e2f4bb41423e2443350afe052f028",
          "transactionIndex": "0xf",
          "logIndex": "0x13",
          "removed": false
        }
      ],
      "logsBloom": "0x0000000000000000000000000000000004000000000000000002000000000000000000000000000000000000000000000000000000100000000040000000000000000000000000000000020800000000000000000000000000000000100000000000008002000000000000000000c800000000400040000000000010000000000000000001000000000000000008000000800000004000000000000000000001000004000020000000008000000000000800400000000020000000000000000000000002080000000000000000000000000000008000000000000000200020004000000000000000000000000000000004000000000002000000000000002010",
      "type": "0x2",
      "transactionHash": "0x4aa07cdf8f80d95dd01422e8b0ca239f831e2f4bb41423e2443350afe052f028",
      "transactionIndex": "0xf",
      "blockHash": "0x0000000000000000000000000000000000000000000000000000000000000000",
      "blockNumber": "0x2cd9746",
      "gasUsed": "0x67232",
      "effectiveGasPrice": "0x7a121",
      "blobGasUsed": "0x19e10",
      "from": "0xe752c55acabc5f745ab36a0993bf35c6555b60e4",
      "to": "0xf969aee60879c54baaed9f3ed26147db216fd664",
      "contractAddress": null,
      "daFootprintGasScalar": "0x190",
      "l1BaseFeeScalar": "0x7d0",
      "l1BlobBaseFee": "0x1",
      "l1BlobBaseFeeScalar": "0xdbba0",
      "l1Fee": "0xa0",
      "l1GasPrice": "0x8",
      "l1GasUsed": "0x1093"
    }
  ],
  "libraries": [],
  "pending": [],
  "returns": {},
  "timestamp": 1773880466474,
  "chain": 1301,
  "commit": "9125607"
}